{
  "abi": [
    {
      "inputs": [],
      "name": "TransactionArrayUnequal",
      "type": "error"
    },
    {
      "inputs": [],
      "name": "TransactionEmpty",
      "type": "error"
    },
    {
      "inputs": [],
      "name": "TransactionExecuted",
      "type": "error"
    },
    {
      "inputs": [],
      "name": "TransactionExists",
      "type": "error"
    },
    {
      "inputs": [],
      "name": "TransactionNotPending",
      "type": "error"
    },
    {
      "anonymous": false,
      "inputs": [
        {
          "indexed": true,
          "internalType": "address",
          "name": "sender",
          "type": "address"
        },
        {
          "indexed": true,
          "internalType": "uint256",
          "name": "transactionId",
          "type": "uint256"
        }
      ],
      "name": "Approved",
      "type": "event"
    },
    {
      "anonymous": false,
      "inputs": [
        {
          "indexed": true,
          "internalType": "uint256",
          "name": "executionId",
          "type": "uint256"
        },
        {
          "indexed": true,
          "internalType": "address[]",
          "name": "to",
          "type": "address[]"
        },
        {
          "indexed": true,
          "internalType": "uint256[]",
          "name": "value",
          "type": "uint256[]"
        },
        {
          "indexed": false,
          "internalType": "bytes[]",
          "name": "data",
          "type": "bytes[]"
        }
      ],
      "name": "Cancelled",
      "type": "event"
    },
    {
      "anonymous": false,
      "inputs": [
        {
          "indexed": true,
          "internalType": "uint256",
          "name": "executionId",
          "type": "uint256"
        },
        {
          "indexed": true,
          "internalType": "address[]",
          "name": "to",
          "type": "address[]"
        },
        {
          "indexed": true,
          "internalType": "uint256[]",
          "name": "value",
          "type": "uint256[]"
        },
        {
          "indexed": false,
          "internalType": "bytes[]",
          "name": "data",
          "type": "bytes[]"
        }
      ],
      "name": "Executed",
      "type": "event"
    },
    {
      "anonymous": false,
      "inputs": [
        {
          "indexed": true,
          "internalType": "uint256",
          "name": "transactionId",
          "type": "uint256"
        }
      ],
      "name": "ExecutionFailure",
      "type": "event"
    },
    {
      "anonymous": false,
      "inputs": [
        {
          "indexed": true,
          "internalType": "address",
          "name": "sender",
          "type": "address"
        },
        {
          "indexed": true,
          "internalType": "uint256",
          "name": "transactionId",
          "type": "uint256"
        }
      ],
      "name": "Revoked",
      "type": "event"
    },
    {
      "anonymous": false,
      "inputs": [
        {
          "indexed": true,
          "internalType": "uint256",
          "name": "executionId",
          "type": "uint256"
        },
        {
          "indexed": true,
          "internalType": "address[]",
          "name": "to",
          "type": "address[]"
        },
        {
          "indexed": true,
          "internalType": "uint256[]",
          "name": "value",
          "type": "uint256[]"
        },
        {
          "indexed": false,
          "internalType": "bytes[]",
          "name": "data",
          "type": "bytes[]"
        }
      ],
      "name": "Submitted",
      "type": "event"
    },
    {
      "inputs": [
        {
          "internalType": "uint256",
          "name": "txHash",
          "type": "uint256"
        }
      ],
      "name": "checkTransactionExists",
      "outputs": [
        {
          "internalType": "bool",
          "name": "",
          "type": "bool"
        }
      ],
      "stateMutability": "view",
      "type": "function"
    },
    {
      "inputs": [],
      "name": "getExecutedTransactions",
      "outputs": [
        {
          "internalType": "uint256[]",
          "name": "",
          "type": "uint256[]"
        }
      ],
      "stateMutability": "nonpayable",
      "type": "function"
    },
    {
      "inputs": [],
      "name": "getExpiryPeriod",
      "outputs": [
        {
          "internalType": "uint256",
          "name": "",
          "type": "uint256"
        }
      ],
      "stateMutability": "view",
      "type": "function"
    },
    {
      "inputs": [],
      "name": "getPendingTransaction",
      "outputs": [
        {
          "internalType": "uint256[]",
          "name": "",
          "type": "uint256[]"
        }
      ],
      "stateMutability": "nonpayable",
      "type": "function"
    },
    {
      "inputs": [],
      "name": "getPendingTransactions",
      "outputs": [
        {
          "internalType": "uint256[]",
          "name": "",
          "type": "uint256[]"
        }
      ],
      "stateMutability": "nonpayable",
      "type": "function"
    },
    {
      "inputs": [
        {
          "internalType": "uint256",
          "name": "txHash",
          "type": "uint256"
        }
      ],
      "name": "getTransaction",
      "outputs": [
        {
          "internalType": "bool",
          "name": "exists",
          "type": "bool"
        },
        {
          "internalType": "uint64",
          "name": "submitted",
          "type": "uint64"
        },
        {
          "internalType": "uint64",
          "name": "expires",
          "type": "uint64"
        },
        {
          "internalType": "address[]",
          "name": "targets",
          "type": "address[]"
        },
        {
          "internalType": "uint256[]",
          "name": "values",
          "type": "uint256[]"
        },
        {
          "internalType": "bytes[]",
          "name": "calldatas",
          "type": "bytes[]"
        },
        {
          "internalType": "uint256",
          "name": "status",
          "type": "uint256"
        }
      ],
      "stateMutability": "view",
      "type": "function"
    },
    {
      "inputs": [
        {
          "internalType": "address[]",
          "name": "targets",
          "type": "address[]"
        },
        {
          "internalType": "uint256[]",
          "name": "values",
          "type": "uint256[]"
        },
        {
          "internalType": "bytes[]",
          "name": "calldatas",
          "type": "bytes[]"
        }
      ],
      "name": "getTransactionHash",
      "outputs": [
        {
          "internalType": "uint256",
          "name": "",
          "type": "uint256"
        }
      ],
      "stateMutability": "view",
      "type": "function"
    }
  ],
  "bytecode": {
    "object": "0x608060405234801561001057600080fd5b50610916806100206000396000f3fe608060405234801561001057600080fd5b506004361061007d5760003560e01c8063be2f5f521161005b578063be2f5f52146100f9578063bf6b0a861461010b578063d11db83f14610082578063e6a6d4c81461011e57600080fd5b806332a85b3e1461008257806333ea3dc8146100a0578063aad59c2c146100c6575b600080fd5b61008a610126565b6040516100979190610433565b60405180910390f35b6100b36100ae36600461044d565b6101a1565b6040516100979796959493929190610530565b6100e96100d436600461044d565b60009081526002602052604090205460ff1690565b6040519015158152602001610097565b6001545b604051908152602001610097565b6100fd61011936600461075a565b6103b4565b61008a6103eb565b606060036000805b600381111561013f5761013f61084d565b815260200190815260200160002080548060200260200160405190810160405280929190818152602001828054801561019757602002820191906000526020600020905b815481526020019060010190808311610183575b5050505050905090565b600081815260026020908152604080832080546001909101805483518186028101860190945280845260ff83169567ffffffffffffffff61010085048116966901000000000000000000909504169460609485948594909183018282801561023257602002820191906000526020600020905b81546001600160a01b03168152600190910190602001808311610214575b505050505093506002600089815260200190815260200160002060020180548060200260200160405190810160405280929190818152602001828054801561029957602002820191906000526020600020905b815481526020019060010190808311610285575b50505060008b815260026020908152604080832060030180548251818502810185019093528083529699509095909450925084015b8282101561037a5783829060005260206000200180546102ed90610863565b80601f016020809104026020016040519081016040528092919081815260200182805461031990610863565b80156103665780601f1061033b57610100808354040283529160200191610366565b820191906000526020600020905b81548152906001019060200180831161034957829003601f168201915b5050505050815260200190600101906102ce565b50505060008a8152600260205260409020600401549193505060ff1660038111156103a7576103a761084d565b9050919395979092949650565b60008383836040516020016103cb9392919061089d565b60408051601f198184030181529190528051602090910120949350505050565b606060036000600261012e565b600081518084526020808501945080840160005b838110156104285781518752958201959082019060010161040c565b509495945050505050565b60208152600061044660208301846103f8565b9392505050565b60006020828403121561045f57600080fd5b5035919050565b600081518084526020808501945080840160005b838110156104285781516001600160a01b03168752958201959082019060010161047a565b600082825180855260208086019550808260051b8401018186016000805b8581101561052257601f1980888603018b5283518051808752845b818110156104f3578281018901518882018a015288016104d8565b81811115610503578589838a0101525b509b87019b601f019091169490940185019350918401916001016104bd565b509198975050505050505050565b8715158152600067ffffffffffffffff808916602084015280881660408401525060e0606083015261056560e0830187610466565b828103608084015261057781876103f8565b905082810360a084015261058b818661049f565b9150508260c083015298975050505050505050565b634e487b7160e01b600052604160045260246000fd5b604051601f8201601f1916810167ffffffffffffffff811182821017156105df576105df6105a0565b604052919050565b600067ffffffffffffffff821115610601576106016105a0565b5060051b60200190565b600082601f83011261061c57600080fd5b8135602061063161062c836105e7565b6105b6565b82815260059290921b8401810191818101908684111561065057600080fd5b8286015b8481101561066b5780358352918301918301610654565b509695505050505050565b6000601f838184011261068857600080fd5b8235602061069861062c836105e7565b82815260059290921b850181019181810190878411156106b757600080fd5b8287015b8481101561074e57803567ffffffffffffffff808211156106dc5760008081fd5b818a0191508a603f8301126106f15760008081fd5b85820135604082821115610707576107076105a0565b610718828b01601f191689016105b6565b92508183528c8183860101111561072f5760008081fd5b81818501898501375060009082018701528452509183019183016106bb565b50979650505050505050565b60008060006060848603121561076f57600080fd5b833567ffffffffffffffff8082111561078757600080fd5b818601915086601f83011261079b57600080fd5b813560206107ab61062c836105e7565b82815260059290921b8401810191818101908a8411156107ca57600080fd5b948201945b838610156107fe5785356001600160a01b03811681146107ef5760008081fd5b825294820194908201906107cf565b9750508701359250508082111561081457600080fd5b6108208783880161060b565b9350604086013591508082111561083657600080fd5b5061084386828701610676565b9150509250925092565b634e487b7160e01b600052602160045260246000fd5b600181811c9082168061087757607f821691505b60208210810361089757634e487b7160e01b600052602260045260246000fd5b50919050565b6060815260006108b06060830186610466565b82810360208401526108c281866103f8565b905082810360408401526108d6818561049f565b969550505050505056fea2646970667358221220c56d2cdccddec6ed034f80ce6a48abc9dd08edf4b1dd97157a54a0c2e7674a1664736f6c634300080e0033",
    "linkReferences": {}
  },
  "methodIdentifiers": {
    "checkTransactionExists(uint256)": "aad59c2c",
    "getExecutedTransactions()": "e6a6d4c8",
    "getExpiryPeriod()": "be2f5f52",
    "getPendingTransaction()": "32a85b3e",
    "getPendingTransactions()": "d11db83f",
    "getTransaction(uint256)": "33ea3dc8",
    "getTransactionHash(address[],uint256[],bytes[])": "bf6b0a86"
  },
  "id": 24
}