{
  "abi": [
    {
      "inputs": [],
      "name": "NoTransactionArrayParity",
      "type": "error"
    },
    {
      "inputs": [],
      "name": "TransactionEmpty",
      "type": "error"
    },
    {
      "inputs": [],
      "name": "TransactionExecuted",
      "type": "error"
    },
    {
      "inputs": [],
      "name": "TransactionExists",
      "type": "error"
    },
    {
      "inputs": [],
      "name": "TransactionNotPending",
      "type": "error"
    },
    {
      "anonymous": false,
      "inputs": [
        {
          "indexed": true,
          "internalType": "address",
          "name": "sender",
          "type": "address"
        },
        {
          "indexed": true,
          "internalType": "uint256",
          "name": "transactionId",
          "type": "uint256"
        }
      ],
      "name": "Approved",
      "type": "event"
    },
    {
      "anonymous": false,
      "inputs": [
        {
          "indexed": true,
          "internalType": "uint256",
          "name": "executionId",
          "type": "uint256"
        },
        {
          "indexed": true,
          "internalType": "address[]",
          "name": "to",
          "type": "address[]"
        },
        {
          "indexed": true,
          "internalType": "uint256[]",
          "name": "value",
          "type": "uint256[]"
        },
        {
          "indexed": false,
          "internalType": "bytes[]",
          "name": "data",
          "type": "bytes[]"
        }
      ],
      "name": "Cancelled",
      "type": "event"
    },
    {
      "anonymous": false,
      "inputs": [
        {
          "indexed": true,
          "internalType": "uint256",
          "name": "executionId",
          "type": "uint256"
        },
        {
          "indexed": true,
          "internalType": "address[]",
          "name": "to",
          "type": "address[]"
        },
        {
          "indexed": true,
          "internalType": "uint256[]",
          "name": "value",
          "type": "uint256[]"
        },
        {
          "indexed": false,
          "internalType": "bytes[]",
          "name": "data",
          "type": "bytes[]"
        }
      ],
      "name": "Executed",
      "type": "event"
    },
    {
      "anonymous": false,
      "inputs": [
        {
          "indexed": true,
          "internalType": "uint256",
          "name": "transactionId",
          "type": "uint256"
        }
      ],
      "name": "ExecutionFailure",
      "type": "event"
    },
    {
      "anonymous": false,
      "inputs": [
        {
          "indexed": true,
          "internalType": "address",
          "name": "sender",
          "type": "address"
        },
        {
          "indexed": true,
          "internalType": "uint256",
          "name": "transactionId",
          "type": "uint256"
        }
      ],
      "name": "Revoked",
      "type": "event"
    },
    {
      "anonymous": false,
      "inputs": [
        {
          "indexed": true,
          "internalType": "uint256",
          "name": "executionId",
          "type": "uint256"
        },
        {
          "indexed": true,
          "internalType": "address[]",
          "name": "to",
          "type": "address[]"
        },
        {
          "indexed": true,
          "internalType": "uint256[]",
          "name": "value",
          "type": "uint256[]"
        },
        {
          "indexed": false,
          "internalType": "bytes[]",
          "name": "data",
          "type": "bytes[]"
        }
      ],
      "name": "Submitted",
      "type": "event"
    },
    {
      "inputs": [],
      "name": "getExpiryPeriod",
      "outputs": [
        {
          "internalType": "uint256",
          "name": "",
          "type": "uint256"
        }
      ],
      "stateMutability": "view",
      "type": "function"
    },
    {
      "inputs": [
        {
          "internalType": "bool",
          "name": "pending",
          "type": "bool"
        },
        {
          "internalType": "bool",
          "name": "executed",
          "type": "bool"
        }
      ],
      "name": "getTransactionCount",
      "outputs": [
        {
          "internalType": "uint8",
          "name": "approvalCount",
          "type": "uint8"
        }
      ],
      "stateMutability": "view",
      "type": "function"
    },
    {
      "inputs": [
        {
          "internalType": "address[]",
          "name": "targets",
          "type": "address[]"
        },
        {
          "internalType": "uint256[]",
          "name": "values",
          "type": "uint256[]"
        },
        {
          "internalType": "bytes[]",
          "name": "calldatas",
          "type": "bytes[]"
        }
      ],
      "name": "getTransactionHash",
      "outputs": [
        {
          "internalType": "uint256",
          "name": "",
          "type": "uint256"
        }
      ],
      "stateMutability": "pure",
      "type": "function"
    },
    {
      "inputs": [
        {
          "internalType": "uint256",
          "name": "from",
          "type": "uint256"
        },
        {
          "internalType": "uint256",
          "name": "to",
          "type": "uint256"
        },
        {
          "internalType": "bool",
          "name": "pending",
          "type": "bool"
        },
        {
          "internalType": "bool",
          "name": "executed",
          "type": "bool"
        }
      ],
      "name": "getTransactionIds",
      "outputs": [
        {
          "internalType": "uint256[]",
          "name": "txHashs",
          "type": "uint256[]"
        }
      ],
      "stateMutability": "view",
      "type": "function"
    }
  ],
  "bytecode": {
    "object": "0x608060405234801561001057600080fd5b506108f9806100206000396000f3fe608060405234801561001057600080fd5b506004361061004c5760003560e01c80635474152514610051578063a8abe69a1461007b578063be2f5f521461009b578063bf6b0a86146100ad575b600080fd5b61006461005f3660046103c7565b6100c0565b60405160ff90911681526020015b60405180910390f35b61008e6100893660046103fa565b61018e565b604051610072919061047b565b6001545b604051908152602001610072565b61009f6100bb36600461064f565b61037b565b6000805b6002548110156101875783801561011557506000600282815481106100eb576100eb610758565b60009182526020909120600460059092020181015460ff169081111561011357610113610742565b145b806101625750828015610162575060036002828154811061013857610138610758565b60009182526020909120600460059092020181015460ff169081111561016057610160610742565b145b15610175578161017181610784565b9250505b8061017f816107a3565b9150506100c4565b5092915050565b60025460609060009067ffffffffffffffff8111156101af576101af610495565b6040519080825280602002602001820160405280156101d8578160200160208202803683370190505b5090506000805b6002548110156102c357858015610230575060006002828154811061020657610206610758565b60009182526020909120600460059092020181015460ff169081111561022e5761022e610742565b145b8061027d575084801561027d575060036002828154811061025357610253610758565b60009182526020909120600460059092020181015460ff169081111561027b5761027b610742565b145b156102b15780838360ff168151811061029857610298610758565b6020908102919091010152816102ad81610784565b9250505b806102bb816107a3565b9150506101df565b506102ce87876107bc565b67ffffffffffffffff8111156102e6576102e6610495565b60405190808252806020026020018201604052801561030f578160200160208202803683370190505b509250865b868110156103705782818151811061032e5761032e610758565b602002602001015184898361034391906107bc565b8151811061035357610353610758565b602090810291909101015280610368816107a3565b915050610314565b505050949350505050565b6000838383604051602001610392939291906107d3565b60408051601f198184030181529190528051602090910120949350505050565b803580151581146103c257600080fd5b919050565b600080604083850312156103da57600080fd5b6103e3836103b2565b91506103f1602084016103b2565b90509250929050565b6000806000806080858703121561041057600080fd5b8435935060208501359250610427604086016103b2565b9150610435606086016103b2565b905092959194509250565b600081518084526020808501945080840160005b8381101561047057815187529582019590820190600101610454565b509495945050505050565b60208152600061048e6020830184610440565b9392505050565b634e487b7160e01b600052604160045260246000fd5b604051601f8201601f1916810167ffffffffffffffff811182821017156104d4576104d4610495565b604052919050565b600067ffffffffffffffff8211156104f6576104f6610495565b5060051b60200190565b600082601f83011261051157600080fd5b81356020610526610521836104dc565b6104ab565b82815260059290921b8401810191818101908684111561054557600080fd5b8286015b848110156105605780358352918301918301610549565b509695505050505050565b6000601f838184011261057d57600080fd5b8235602061058d610521836104dc565b82815260059290921b850181019181810190878411156105ac57600080fd5b8287015b8481101561064357803567ffffffffffffffff808211156105d15760008081fd5b818a0191508a603f8301126105e65760008081fd5b858201356040828211156105fc576105fc610495565b61060d828b01601f191689016104ab565b92508183528c818386010111156106245760008081fd5b81818501898501375060009082018701528452509183019183016105b0565b50979650505050505050565b60008060006060848603121561066457600080fd5b833567ffffffffffffffff8082111561067c57600080fd5b818601915086601f83011261069057600080fd5b813560206106a0610521836104dc565b82815260059290921b8401810191818101908a8411156106bf57600080fd5b948201945b838610156106f35785356001600160a01b03811681146106e45760008081fd5b825294820194908201906106c4565b9750508701359250508082111561070957600080fd5b61071587838801610500565b9350604086013591508082111561072b57600080fd5b506107388682870161056b565b9150509250925092565b634e487b7160e01b600052602160045260246000fd5b634e487b7160e01b600052603260045260246000fd5b634e487b7160e01b600052601160045260246000fd5b600060ff821660ff810361079a5761079a61076e565b60010192915050565b6000600182016107b5576107b561076e565b5060010190565b6000828210156107ce576107ce61076e565b500390565b606080825284519082018190526000906020906080840190828801845b828110156108155781516001600160a01b0316845292840192908401906001016107f0565b505050838103828501526108298187610440565b905083810360408501528085518083528383019150838160051b84010184880160005b838110156108b357601f19808785030186528251805180865260005b81811015610883578281018b01518782018c01528a01610868565b818111156108945760008b83890101525b5096890196601f0190911693909301870192509086019060010161084c565b50909a995050505050505050505056fea2646970667358221220413503ee9ac65dcf322d6166f030c564f2275cff6bee55a8b15899bfff9713a664736f6c634300080e0033",
    "linkReferences": {}
  },
  "methodIdentifiers": {
    "getExpiryPeriod()": "be2f5f52",
    "getTransactionCount(bool,bool)": "54741525",
    "getTransactionHash(address[],uint256[],bytes[])": "bf6b0a86",
    "getTransactionIds(uint256,uint256,bool,bool)": "a8abe69a"
  },
  "id": 7
}