{
  "abi": [
    {
      "inputs": [],
      "name": "EmptyClaimTopics",
      "type": "error"
    },
    {
      "inputs": [],
      "name": "NonExistantClaim",
      "type": "error"
    },
    {
      "inputs": [],
      "name": "NonExistantVerifier",
      "type": "error"
    },
    {
      "inputs": [],
      "name": "VerifierAlreadyExists",
      "type": "error"
    },
    {
      "anonymous": false,
      "inputs": [
        {
          "indexed": false,
          "internalType": "bytes32",
          "name": "claimId",
          "type": "bytes32"
        },
        {
          "indexed": true,
          "internalType": "uint256",
          "name": "topic",
          "type": "uint256"
        },
        {
          "indexed": false,
          "internalType": "uint256",
          "name": "scheme",
          "type": "uint256"
        },
        {
          "indexed": true,
          "internalType": "address",
          "name": "issuer",
          "type": "address"
        },
        {
          "indexed": true,
          "internalType": "address",
          "name": "subject",
          "type": "address"
        },
        {
          "indexed": false,
          "internalType": "bytes",
          "name": "signature",
          "type": "bytes"
        },
        {
          "indexed": false,
          "internalType": "bytes",
          "name": "data",
          "type": "bytes"
        },
        {
          "indexed": false,
          "internalType": "string",
          "name": "uri",
          "type": "string"
        }
      ],
      "name": "ClaimAdded",
      "type": "event"
    },
    {
      "anonymous": false,
      "inputs": [
        {
          "indexed": false,
          "internalType": "bytes32",
          "name": "claimId",
          "type": "bytes32"
        },
        {
          "indexed": false,
          "internalType": "uint256",
          "name": "topic",
          "type": "uint256"
        },
        {
          "indexed": false,
          "internalType": "uint256",
          "name": "scheme",
          "type": "uint256"
        },
        {
          "indexed": false,
          "internalType": "address",
          "name": "issuer",
          "type": "address"
        },
        {
          "indexed": false,
          "internalType": "address",
          "name": "subject",
          "type": "address"
        },
        {
          "indexed": false,
          "internalType": "bytes",
          "name": "signature",
          "type": "bytes"
        },
        {
          "indexed": false,
          "internalType": "bytes",
          "name": "data",
          "type": "bytes"
        },
        {
          "indexed": false,
          "internalType": "string",
          "name": "uri",
          "type": "string"
        }
      ],
      "name": "ClaimChanged",
      "type": "event"
    },
    {
      "anonymous": false,
      "inputs": [
        {
          "indexed": false,
          "internalType": "bytes32",
          "name": "claimId",
          "type": "bytes32"
        },
        {
          "indexed": false,
          "internalType": "uint256",
          "name": "topic",
          "type": "uint256"
        },
        {
          "indexed": false,
          "internalType": "uint256",
          "name": "scheme",
          "type": "uint256"
        },
        {
          "indexed": false,
          "internalType": "address",
          "name": "issuer",
          "type": "address"
        },
        {
          "indexed": false,
          "internalType": "address",
          "name": "subject",
          "type": "address"
        },
        {
          "indexed": false,
          "internalType": "bytes",
          "name": "signature",
          "type": "bytes"
        },
        {
          "indexed": false,
          "internalType": "bytes",
          "name": "data",
          "type": "bytes"
        },
        {
          "indexed": false,
          "internalType": "string",
          "name": "uri",
          "type": "string"
        }
      ],
      "name": "ClaimRemoved",
      "type": "event"
    },
    {
      "anonymous": false,
      "inputs": [
        {
          "indexed": false,
          "internalType": "bytes32",
          "name": "claimId",
          "type": "bytes32"
        },
        {
          "indexed": false,
          "internalType": "uint256",
          "name": "topic",
          "type": "uint256"
        },
        {
          "indexed": false,
          "internalType": "uint256",
          "name": "scheme",
          "type": "uint256"
        },
        {
          "indexed": false,
          "internalType": "address",
          "name": "issuer",
          "type": "address"
        },
        {
          "indexed": false,
          "internalType": "address",
          "name": "subject",
          "type": "address"
        },
        {
          "indexed": false,
          "internalType": "bytes",
          "name": "signature",
          "type": "bytes"
        },
        {
          "indexed": false,
          "internalType": "bytes",
          "name": "data",
          "type": "bytes"
        },
        {
          "indexed": false,
          "internalType": "string",
          "name": "uri",
          "type": "string"
        }
      ],
      "name": "ClaimRequested",
      "type": "event"
    },
    {
      "anonymous": false,
      "inputs": [
        {
          "indexed": true,
          "internalType": "address",
          "name": "previousOwner",
          "type": "address"
        },
        {
          "indexed": true,
          "internalType": "address",
          "name": "newOwner",
          "type": "address"
        }
      ],
      "name": "OwnershipTransferred",
      "type": "event"
    },
    {
      "anonymous": false,
      "inputs": [
        {
          "indexed": true,
          "internalType": "address",
          "name": "verifier",
          "type": "address"
        },
        {
          "indexed": false,
          "internalType": "uint256[]",
          "name": "trustedTopics",
          "type": "uint256[]"
        }
      ],
      "name": "TrustedClaimTopicsUpdated",
      "type": "event"
    },
    {
      "anonymous": false,
      "inputs": [
        {
          "indexed": true,
          "internalType": "address",
          "name": "verifier",
          "type": "address"
        },
        {
          "indexed": false,
          "internalType": "uint256[]",
          "name": "claimTopics",
          "type": "uint256[]"
        }
      ],
      "name": "TrustedVerifierAdded",
      "type": "event"
    },
    {
      "anonymous": false,
      "inputs": [
        {
          "indexed": true,
          "internalType": "address",
          "name": "verifier",
          "type": "address"
        }
      ],
      "name": "TrustedVerifierRemoved",
      "type": "event"
    },
    {
      "inputs": [
        {
          "internalType": "bytes",
          "name": "",
          "type": "bytes"
        }
      ],
      "name": "_revokedBySig",
      "outputs": [
        {
          "internalType": "bool",
          "name": "",
          "type": "bool"
        }
      ],
      "stateMutability": "view",
      "type": "function"
    },
    {
      "inputs": [
        {
          "internalType": "address",
          "name": "",
          "type": "address"
        },
        {
          "internalType": "uint256",
          "name": "",
          "type": "uint256"
        }
      ],
      "name": "_verifierTrustedTopics",
      "outputs": [
        {
          "internalType": "uint256",
          "name": "",
          "type": "uint256"
        }
      ],
      "stateMutability": "view",
      "type": "function"
    },
    {
      "inputs": [
        {
          "internalType": "uint256",
          "name": "",
          "type": "uint256"
        }
      ],
      "name": "_verifiers",
      "outputs": [
        {
          "internalType": "address",
          "name": "",
          "type": "address"
        }
      ],
      "stateMutability": "view",
      "type": "function"
    },
    {
      "inputs": [
        {
          "internalType": "uint256",
          "name": "topic",
          "type": "uint256"
        },
        {
          "internalType": "uint256",
          "name": "scheme",
          "type": "uint256"
        },
        {
          "internalType": "address",
          "name": "issuer",
          "type": "address"
        },
        {
          "internalType": "address",
          "name": "subject",
          "type": "address"
        },
        {
          "internalType": "bytes",
          "name": "sig",
          "type": "bytes"
        },
        {
          "internalType": "bytes",
          "name": "data",
          "type": "bytes"
        },
        {
          "internalType": "string",
          "name": "uri",
          "type": "string"
        }
      ],
      "name": "addClaim",
      "outputs": [
        {
          "internalType": "bytes32",
          "name": "claimRequestId",
          "type": "bytes32"
        }
      ],
      "stateMutability": "nonpayable",
      "type": "function"
    },
    {
      "inputs": [
        {
          "internalType": "address",
          "name": "verifier",
          "type": "address"
        },
        {
          "internalType": "uint256[]",
          "name": "trustedTopics",
          "type": "uint256[]"
        }
      ],
      "name": "addTrustedVerifier",
      "outputs": [],
      "stateMutability": "nonpayable",
      "type": "function"
    },
    {
      "inputs": [
        {
          "internalType": "bytes",
          "name": "_sig",
          "type": "bytes"
        }
      ],
      "name": "checkIsClaimRevoked",
      "outputs": [
        {
          "internalType": "bool",
          "name": "",
          "type": "bool"
        }
      ],
      "stateMutability": "view",
      "type": "function"
    },
    {
      "inputs": [
        {
          "internalType": "address",
          "name": "subject",
          "type": "address"
        },
        {
          "internalType": "uint256",
          "name": "topic",
          "type": "uint256"
        },
        {
          "internalType": "bytes",
          "name": "sig",
          "type": "bytes"
        },
        {
          "internalType": "bytes",
          "name": "data",
          "type": "bytes"
        }
      ],
      "name": "checkIsClaimValid",
      "outputs": [
        {
          "internalType": "bool",
          "name": "claimValid",
          "type": "bool"
        }
      ],
      "stateMutability": "view",
      "type": "function"
    },
    {
      "inputs": [
        {
          "internalType": "address",
          "name": "subject",
          "type": "address"
        },
        {
          "internalType": "bytes32",
          "name": "claimId",
          "type": "bytes32"
        }
      ],
      "name": "checkIsClaimValidById",
      "outputs": [
        {
          "internalType": "bool",
          "name": "claimValid",
          "type": "bool"
        }
      ],
      "stateMutability": "view",
      "type": "function"
    },
    {
      "inputs": [
        {
          "internalType": "address",
          "name": "verifier",
          "type": "address"
        }
      ],
      "name": "checkIsVerifier",
      "outputs": [
        {
          "internalType": "bool",
          "name": "",
          "type": "bool"
        }
      ],
      "stateMutability": "view",
      "type": "function"
    },
    {
      "inputs": [
        {
          "internalType": "address",
          "name": "verifier",
          "type": "address"
        },
        {
          "internalType": "uint256",
          "name": "topic",
          "type": "uint256"
        }
      ],
      "name": "checkIsVerifierTrustedTopic",
      "outputs": [
        {
          "internalType": "bool",
          "name": "",
          "type": "bool"
        }
      ],
      "stateMutability": "view",
      "type": "function"
    },
    {
      "inputs": [
        {
          "internalType": "bytes32",
          "name": "claimId",
          "type": "bytes32"
        },
        {
          "internalType": "address",
          "name": "subject",
          "type": "address"
        }
      ],
      "name": "getClaim",
      "outputs": [
        {
          "internalType": "uint256",
          "name": "",
          "type": "uint256"
        },
        {
          "internalType": "uint256",
          "name": "",
          "type": "uint256"
        },
        {
          "internalType": "address",
          "name": "",
          "type": "address"
        },
        {
          "internalType": "bytes",
          "name": "",
          "type": "bytes"
        },
        {
          "internalType": "bytes",
          "name": "",
          "type": "bytes"
        },
        {
          "internalType": "string",
          "name": "",
          "type": "string"
        }
      ],
      "stateMutability": "view",
      "type": "function"
    },
    {
      "inputs": [
        {
          "internalType": "address",
          "name": "subject",
          "type": "address"
        },
        {
          "internalType": "uint256",
          "name": "topic",
          "type": "uint256"
        }
      ],
      "name": "getClaimIdsByTopic",
      "outputs": [
        {
          "internalType": "bytes32[]",
          "name": "claimIds",
          "type": "bytes32[]"
        }
      ],
      "stateMutability": "view",
      "type": "function"
    },
    {
      "inputs": [
        {
          "internalType": "bytes",
          "name": "sig",
          "type": "bytes"
        },
        {
          "internalType": "bytes32",
          "name": "dataHash",
          "type": "bytes32"
        }
      ],
      "name": "getRecoveredAddress",
      "outputs": [
        {
          "internalType": "address",
          "name": "addr",
          "type": "address"
        }
      ],
      "stateMutability": "pure",
      "type": "function"
    },
    {
      "inputs": [],
      "name": "owner",
      "outputs": [
        {
          "internalType": "address",
          "name": "",
          "type": "address"
        }
      ],
      "stateMutability": "view",
      "type": "function"
    },
    {
      "inputs": [
        {
          "internalType": "bytes32",
          "name": "claimId",
          "type": "bytes32"
        },
        {
          "internalType": "address",
          "name": "subject",
          "type": "address"
        }
      ],
      "name": "removeClaim",
      "outputs": [
        {
          "internalType": "bool",
          "name": "success",
          "type": "bool"
        }
      ],
      "stateMutability": "nonpayable",
      "type": "function"
    },
    {
      "inputs": [
        {
          "internalType": "address",
          "name": "verifier",
          "type": "address"
        }
      ],
      "name": "removeTrustedVerifier",
      "outputs": [],
      "stateMutability": "nonpayable",
      "type": "function"
    },
    {
      "inputs": [],
      "name": "renounceOwnership",
      "outputs": [],
      "stateMutability": "nonpayable",
      "type": "function"
    },
    {
      "inputs": [
        {
          "internalType": "bytes32",
          "name": "claimId",
          "type": "bytes32"
        },
        {
          "internalType": "address",
          "name": "subject",
          "type": "address"
        }
      ],
      "name": "revokeClaim",
      "outputs": [
        {
          "internalType": "bool",
          "name": "",
          "type": "bool"
        }
      ],
      "stateMutability": "nonpayable",
      "type": "function"
    },
    {
      "inputs": [
        {
          "internalType": "address",
          "name": "newOwner",
          "type": "address"
        }
      ],
      "name": "transferOwnership",
      "outputs": [],
      "stateMutability": "nonpayable",
      "type": "function"
    },
    {
      "inputs": [
        {
          "internalType": "address",
          "name": "verifier",
          "type": "address"
        },
        {
          "internalType": "uint256[]",
          "name": "trustedTopics",
          "type": "uint256[]"
        }
      ],
      "name": "updateVerifierClaimTopics",
      "outputs": [],
      "stateMutability": "nonpayable",
      "type": "function"
    }
  ],
  "bytecode": {
    "object": "0x608060405234801561001057600080fd5b5061001a3361001f565b61006f565b600080546001600160a01b038381166001600160a01b0319831681178455604051919092169283917f8be0079c531659141344cd1fd0a4f28419497f9722a3daafe3b4186f6b6457e09190a35050565b611fa58061007e6000396000f3fe608060405234801561001057600080fd5b506004361061012c5760003560e01c8063be4a5040116100ad578063e8241d4e11610071578063e8241d4e146102b4578063ecccf27b146102c7578063f0f40189146102da578063f2fde38b146102ed578063f7efada21461030057600080fd5b8063be4a504014610247578063c3b129e31461025a578063c44609751461026d578063d91b308714610280578063dd5ae160146102a157600080fd5b806381e45bd2116100f457806381e45bd2146101b757806385048035146101ca5780638da5cb5b146101ea5780639d030de11461020f578063bc99e1901461023457600080fd5b806345b2b682146101315780636036ff4a14610159578063715018a61461018757806373c3370814610191578063801d2cf1146101a4575b600080fd5b61014461013f366004611842565b610313565b60405190151581526020015b60405180910390f35b6101446101673660046118c0565b805160208183018101805160038252928201919093012091525460ff1681565b61018f610408565b005b61014461019f3660046118f5565b610447565b61018f6101b2366004611921565b6104b0565b61018f6101c536600461193c565b610673565b6101dd6101d83660046119c2565b6107a1565b60405161015091906119ec565b6000546001600160a01b03165b6040516001600160a01b039091168152602001610150565b61022261021d3660046118f5565b610816565b60405161015096959493929190611a8c565b6101446102423660046118c0565b610a23565b6101446102553660046119c2565b610a5d565b6101f7610268366004611aec565b610bdd565b61014461027b3660046119c2565b610c8e565b61029361028e366004611b31565b610d15565b604051908152602001610150565b6102936102af3660046119c2565b611149565b6101446102c23660046118f5565b61117a565b61018f6102d536600461193c565b6113f4565b6101446102e8366004611921565b6114d4565b61018f6102fb366004611921565b61153d565b6101f761030e366004611c02565b6115d8565b60008085858460405160200161032b93929190611c1b565b60405160208183030381529060405280519060200120905060008160405160200161038291907f19457468657265756d205369676e6564204d6573736167653a0a3332000000008152601c810191909152603c0190565b60405160208183030381529060405280519060200120905060006103a68683610bdd565b604080516001600160a01b0383166020820152919250600091016040516020818303038152906040528051906020012090506103e187610a23565b15156000036103f7576001945050505050610400565b60009450505050505b949350505050565b6000546001600160a01b0316331461043b5760405162461bcd60e51b815260040161043290611c4b565b60405180910390fd5b6104456000611602565b565b600080600080606080606061045c8989610816565b604051959b5093995091975095509350915060019060039061047f908690611c80565b908152604051908190036020019020805491151560ff19909216919091179055506001955050505050505b92915050565b6000546001600160a01b031633146104da5760405162461bcd60e51b815260040161043290611c4b565b6001600160a01b03811660009081526005602052604081205490036105125760405163163091ab60e21b815260040160405180910390fd5b60005b60045481101561061a57816001600160a01b03166004828154811061053c5761053c611c9c565b6000918252602090912001546001600160a01b031603610608576004805461056690600190611cc8565b8154811061057657610576611c9c565b600091825260209091200154600480546001600160a01b0390921691839081106105a2576105a2611c9c565b9060005260206000200160006101000a8154816001600160a01b0302191690836001600160a01b0316021790555060048054806105e1576105e1611cdf565b600082815260209020810160001990810180546001600160a01b031916905501905561061a565b8061061281611cf5565b915050610515565b506001600160a01b038116600090815260056020526040812061063c91611652565b6040516001600160a01b038216907f950a8e112b31e97be460baabc0d4707401514b9c8de4a4bc01b7b1554e4dbb1690600090a250565b6000546001600160a01b0316331461069d5760405162461bcd60e51b815260040161043290611c4b565b6001600160a01b038316600090815260056020526040902054156106d45760405163fdb6137760e01b815260040160405180910390fd5b60008190036106f657604051631eda577d60e11b815260040160405180910390fd5b60048054600181019091557f8a35acfbc15ff81a39ae7d344fd709f28e8600b4aa8c65c6b64bfe7fe36bd19b0180546001600160a01b0319166001600160a01b0385169081179091556000908152600560205260409020610758908383611670565b50826001600160a01b03167f8cfa048f319519100018c070f5b70ebdb10f75f14622c98ec59725c0de0f12f18383604051610794929190611d0e565b60405180910390a2505050565b6001600160a01b038216600090815260026020908152604080832084845282529182902080548351818402810184019094528084526060939283018282801561080957602002820191906000526020600020905b8154815260200190600101908083116107f5575b5050505050905092915050565b6001600160a01b0381811660009081526001602081815260408084208785529091528220805491810154600282015460048301805495968796879660609687968796929590949290921692600582019160060190839061087590611d4a565b80601f01602080910402602001604051908101604052809291908181526020018280546108a190611d4a565b80156108ee5780601f106108c3576101008083540402835291602001916108ee565b820191906000526020600020905b8154815290600101906020018083116108d157829003601f168201915b5050505050925081805461090190611d4a565b80601f016020809104026020016040519081016040528092919081815260200182805461092d90611d4a565b801561097a5780601f1061094f5761010080835404028352916020019161097a565b820191906000526020600020905b81548152906001019060200180831161095d57829003601f168201915b5050505050915080805461098d90611d4a565b80601f01602080910402602001604051908101604052809291908181526020018280546109b990611d4a565b8015610a065780601f106109db57610100808354040283529160200191610a06565b820191906000526020600020905b8154815290600101906020018083116109e957829003601f168201915b505050505090509550955095509550955095509295509295509295565b6000600382604051610a359190611c80565b9081526040519081900360200190205460ff1615610a5557506001919050565b506000919050565b6001600160a01b038281166000908152600160209081526040808320858452909152812060038101548154600490920180549394610bd69492169291610aa290611d4a565b80601f0160208091040260200160405190810160405280929190818152602001828054610ace90611d4a565b8015610b1b5780601f10610af057610100808354040283529160200191610b1b565b820191906000526020600020905b815481529060010190602001808311610afe57829003601f168201915b5050506001600160a01b03891660009081526001602090815260408083208b845290915290206005018054909250610b539150611d4a565b80601f0160208091040260200160405190810160405280929190818152602001828054610b7f90611d4a565b8015610bcc5780601f10610ba157610100808354040283529160200191610bcc565b820191906000526020600020905b815481529060010190602001808311610baf57829003601f168201915b5050505050610313565b9392505050565b6000806000808551604114610bf857600093505050506104aa565b50505060208301516040840151606085015160001a601b811015610c2457610c21601b82611d84565b90505b6040805160008082526020820180845288905260ff841692820192909252606081018590526080810184905260019060a0016020604051602081039080840390855afa158015610c78573d6000803e3d6000fd5b5050604051601f19015198975050505050505050565b6000805b6001600160a01b038416600090815260056020526040902054811015610d0b576001600160a01b0384166000908152600560205260409020805484919083908110610cdf57610cdf611c9c565b906000526020600020015403610cf95760019150506104aa565b80610d0381611cf5565b915050610c92565b5060009392505050565b604080516001600160a01b0387811660208084018290528385018c905284518085038601815260609094018552835193810193909320888316600090815260018552858120828252909452938320600201549293929091161461101e5760026000876001600160a01b03166001600160a01b0316815260200190815260200160002060008a81526020019081526020016000208190806001815401808255809150506001900390600052602060002001600090919091909150558860016000886001600160a01b03166001600160a01b031681526020019081526020016000206000838152602001908152602001600020600001819055508760016000886001600160a01b03166001600160a01b031681526020019081526020016000206000838152602001908152602001600020600101819055508660016000886001600160a01b03166001600160a01b03168152602001908152602001600020600083815260200190815260200160002060020160006101000a8154816001600160a01b0302191690836001600160a01b031602179055508560016000886001600160a01b03166001600160a01b03168152602001908152602001600020600083815260200190815260200160002060030160006101000a8154816001600160a01b0302191690836001600160a01b031602179055508460016000886001600160a01b03166001600160a01b0316815260200190815260200160002060008381526020019081526020016000206004019080519060200190610f549291906116bb565b506001600160a01b038616600090815260016020908152604080832084845282529091208551610f8c926005909201918701906116bb565b506001600160a01b038616600090815260016020908152604080832084845282529091208451610fc4926006909201918601906116bb565b50856001600160a01b0316876001600160a01b03168a7f86ea032ace832ee5963d0fd78c0db5612b4b18873fc907c8f0983c932468f669848c8a8a8a604051611011959493929190611da9565b60405180910390a461113d565b6001600160a01b03868116600081815260016020818152604080842087855282529092208d81559081018c9055600281018054948c166001600160a01b03199586161790556003810180549094169092179092558651611086926004909201918801906116bb565b506001600160a01b0386166000908152600160209081526040808320848452825290912085516110be926005909201918701906116bb565b506001600160a01b0386166000908152600160209081526040808320848452825290912084516110f6926006909201918601906116bb565b507fc43d78b16213c025978f20e4b16d97c1ef39a4a7ecee28dc1ca79c3b4040aab4818a8a8a8a8a8a8a604051611134989796959493929190611dee565b60405180910390a15b98975050505050505050565b6005602052816000526040600020818154811061116557600080fd5b90600052602060002001600091509150505481565b6001600160a01b03811660009081526001602090815260408083208584529091528120548082036111be5760405163dbc9651760e01b815260040160405180910390fd5b60005b6001600160a01b038416600090815260026020908152604080832085845290915290208054869190839081106111f9576111f9611c9c565b90600052602060002001541461121b578061121381611cf5565b9150506111c1565b6001600160a01b03841660009081526002602090815260408083208584529091529020805461124c90600190611cc8565b8154811061125c5761125c611c9c565b60009182526020808320909101546001600160a01b0387168352600282526040808420868552909252912080548390811061129957611299611c9c565b60009182526020808320909101929092556001600160a01b0386168152600282526040808220858352909252208054806112d5576112d5611cdf565b6000828152602080822060001990840181018390559092019092556001600160a01b038681168352600180835260408085208a8652909352928290208054938101546002820154600383015494517f507dd2d01a3eaa5a5d3cf7532c8e8b2cdd9ead9af7fc19621af1c0e2936a693f96611369968d9691959382169391169160048201916005810191600690910190611f06565b60405180910390a16001600160a01b038416600090815260016020818152604080842089855290915282208281559081018290556002810180546001600160a01b03199081169091556003820180549091169055906113cb600483018261172f565b6113d960058301600061172f565b6113e760068301600061172f565b5060019695505050505050565b6000546001600160a01b0316331461141e5760405162461bcd60e51b815260040161043290611c4b565b6001600160a01b03831660009081526005602052604081205490036114565760405163163091ab60e21b815260040160405180910390fd5b801561147557604051631eda577d60e11b815260040160405180910390fd5b6001600160a01b0383166000908152600560205260409020611498908383611670565b50826001600160a01b03167f67adb3160f1b29d02eaac3d30a18ecfd19d38ea4c4777c300a6572f21918188c8383604051610794929190611d0e565b6000805b60045481101561153457826001600160a01b0316600482815481106114ff576114ff611c9c565b6000918252602090912001546001600160a01b0316036115225750600192915050565b8061152c81611cf5565b9150506114d8565b50600092915050565b6000546001600160a01b031633146115675760405162461bcd60e51b815260040161043290611c4b565b6001600160a01b0381166115cc5760405162461bcd60e51b815260206004820152602660248201527f4f776e61626c653a206e6577206f776e657220697320746865207a65726f206160448201526564647265737360d01b6064820152608401610432565b6115d581611602565b50565b600481815481106115e857600080fd5b6000918252602090912001546001600160a01b0316905081565b600080546001600160a01b038381166001600160a01b0319831681178455604051919092169283917f8be0079c531659141344cd1fd0a4f28419497f9722a3daafe3b4186f6b6457e09190a35050565b50805460008255906000526020600020908101906115d59190611765565b8280548282559060005260206000209081019282156116ab579160200282015b828111156116ab578235825591602001919060010190611690565b506116b7929150611765565b5090565b8280546116c790611d4a565b90600052602060002090601f0160209004810192826116e957600085556116ab565b82601f1061170257805160ff19168380011785556116ab565b828001600101855582156116ab579182015b828111156116ab578251825591602001919060010190611714565b50805461173b90611d4a565b6000825580601f1061174b575050565b601f0160209004906000526020600020908101906115d591905b5b808211156116b75760008155600101611766565b80356001600160a01b038116811461179157600080fd5b919050565b634e487b7160e01b600052604160045260246000fd5b600067ffffffffffffffff808411156117c7576117c7611796565b604051601f8501601f19908116603f011681019082821181831017156117ef576117ef611796565b8160405280935085815286868601111561180857600080fd5b858560208301376000602087830101525050509392505050565b600082601f83011261183357600080fd5b610bd6838335602085016117ac565b6000806000806080858703121561185857600080fd5b6118618561177a565b935060208501359250604085013567ffffffffffffffff8082111561188557600080fd5b61189188838901611822565b935060608701359150808211156118a757600080fd5b506118b487828801611822565b91505092959194509250565b6000602082840312156118d257600080fd5b813567ffffffffffffffff8111156118e957600080fd5b61040084828501611822565b6000806040838503121561190857600080fd5b823591506119186020840161177a565b90509250929050565b60006020828403121561193357600080fd5b610bd68261177a565b60008060006040848603121561195157600080fd5b61195a8461177a565b9250602084013567ffffffffffffffff8082111561197757600080fd5b818601915086601f83011261198b57600080fd5b81358181111561199a57600080fd5b8760208260051b85010111156119af57600080fd5b6020830194508093505050509250925092565b600080604083850312156119d557600080fd5b6119de8361177a565b946020939093013593505050565b6020808252825182820181905260009190848201906040850190845b81811015611a2457835183529284019291840191600101611a08565b50909695505050505050565b60005b83811015611a4b578181015183820152602001611a33565b83811115611a5a576000848401525b50505050565b60008151808452611a78816020860160208601611a30565b601f01601f19169290920160200192915050565b86815285602082015260018060a01b038516604082015260c060608201526000611ab960c0830186611a60565b8281036080840152611acb8186611a60565b905082810360a0840152611adf8185611a60565b9998505050505050505050565b60008060408385031215611aff57600080fd5b823567ffffffffffffffff811115611b1657600080fd5b611b2285828601611822565b95602094909401359450505050565b600080600080600080600060e0888a031215611b4c57600080fd5b8735965060208801359550611b636040890161177a565b9450611b716060890161177a565b9350608088013567ffffffffffffffff80821115611b8e57600080fd5b611b9a8b838c01611822565b945060a08a0135915080821115611bb057600080fd5b611bbc8b838c01611822565b935060c08a0135915080821115611bd257600080fd5b508801601f81018a13611be457600080fd5b611bf38a8235602084016117ac565b91505092959891949750929550565b600060208284031215611c1457600080fd5b5035919050565b60018060a01b0384168152826020820152606060408201526000611c426060830184611a60565b95945050505050565b6020808252818101527f4f776e61626c653a2063616c6c6572206973206e6f7420746865206f776e6572604082015260600190565b60008251611c92818460208701611a30565b9190910192915050565b634e487b7160e01b600052603260045260246000fd5b634e487b7160e01b600052601160045260246000fd5b600082821015611cda57611cda611cb2565b500390565b634e487b7160e01b600052603160045260246000fd5b600060018201611d0757611d07611cb2565b5060010190565b6020808252810182905260006001600160fb1b03831115611d2e57600080fd5b8260051b80856040850137600092016040019182525092915050565b600181811c90821680611d5e57607f821691505b602082108103611d7e57634e487b7160e01b600052602260045260246000fd5b50919050565b600060ff821660ff84168060ff03821115611da157611da1611cb2565b019392505050565b85815284602082015260a060408201526000611dc860a0830186611a60565b8281036060840152611dda8186611a60565b9050828103608084015261113d8185611a60565b88815260208101889052604081018790526001600160a01b0386811660608301528516608082015261010060a08201819052600090611e2f83820187611a60565b905082810360c0840152611e438186611a60565b905082810360e0840152611e578185611a60565b9b9a5050505050505050505050565b8054600090600181811c9080831680611e8057607f831692505b60208084108203611ea157634e487b7160e01b600052602260045260246000fd5b838852818015611eb85760018114611ecc57611efa565b60ff19861689830152604089019650611efa565b876000528160002060005b86811015611ef25781548b8201850152908501908301611ed7565b8a0183019750505b50505050505092915050565b88815260208101889052604081018790526001600160a01b0386811660608301528516608082015261010060a08201819052600090611f4783820187611e66565b905082810360c0840152611f5b8186611e66565b905082810360e0840152611e578185611e6656fea2646970667358221220091d38b8a17fe0477a3a08dd81fa36d8a5a21e8027b214100fdb5b57f6dcd14e64736f6c634300080e0033",
    "linkReferences": {}
  },
  "methodIdentifiers": {
    "_revokedBySig(bytes)": "6036ff4a",
    "_verifierTrustedTopics(address,uint256)": "dd5ae160",
    "_verifiers(uint256)": "f7efada2",
    "addClaim(uint256,uint256,address,address,bytes,bytes,string)": "d91b3087",
    "addTrustedVerifier(address,uint256[])": "81e45bd2",
    "checkIsClaimRevoked(bytes)": "bc99e190",
    "checkIsClaimValid(address,uint256,bytes,bytes)": "45b2b682",
    "checkIsClaimValidById(address,bytes32)": "be4a5040",
    "checkIsVerifier(address)": "f0f40189",
    "checkIsVerifierTrustedTopic(address,uint256)": "c4460975",
    "getClaim(bytes32,address)": "9d030de1",
    "getClaimIdsByTopic(address,uint256)": "85048035",
    "getRecoveredAddress(bytes,bytes32)": "c3b129e3",
    "owner()": "8da5cb5b",
    "removeClaim(bytes32,address)": "e8241d4e",
    "removeTrustedVerifier(address)": "801d2cf1",
    "renounceOwnership()": "715018a6",
    "revokeClaim(bytes32,address)": "73c33708",
    "transferOwnership(address)": "f2fde38b",
    "updateVerifierClaimTopics(address,uint256[])": "ecccf27b"
  },
  "id": 2
}