{
  "abi": [
    {
      "anonymous": false,
      "inputs": [
        {
          "indexed": false,
          "internalType": "bytes32",
          "name": "claimId",
          "type": "bytes32"
        },
        {
          "indexed": false,
          "internalType": "uint256",
          "name": "topic",
          "type": "uint256"
        },
        {
          "indexed": false,
          "internalType": "uint256",
          "name": "scheme",
          "type": "uint256"
        },
        {
          "indexed": false,
          "internalType": "address",
          "name": "issuer",
          "type": "address"
        },
        {
          "indexed": false,
          "internalType": "address",
          "name": "subject",
          "type": "address"
        },
        {
          "indexed": false,
          "internalType": "bytes",
          "name": "signature",
          "type": "bytes"
        },
        {
          "indexed": false,
          "internalType": "bytes",
          "name": "data",
          "type": "bytes"
        },
        {
          "indexed": false,
          "internalType": "string",
          "name": "uri",
          "type": "string"
        }
      ],
      "name": "ClaimAdded",
      "type": "event"
    },
    {
      "anonymous": false,
      "inputs": [
        {
          "indexed": false,
          "internalType": "bytes32",
          "name": "claimId",
          "type": "bytes32"
        },
        {
          "indexed": false,
          "internalType": "uint256",
          "name": "topic",
          "type": "uint256"
        },
        {
          "indexed": false,
          "internalType": "uint256",
          "name": "scheme",
          "type": "uint256"
        },
        {
          "indexed": false,
          "internalType": "address",
          "name": "issuer",
          "type": "address"
        },
        {
          "indexed": false,
          "internalType": "address",
          "name": "subject",
          "type": "address"
        },
        {
          "indexed": false,
          "internalType": "bytes",
          "name": "signature",
          "type": "bytes"
        },
        {
          "indexed": false,
          "internalType": "bytes",
          "name": "data",
          "type": "bytes"
        },
        {
          "indexed": false,
          "internalType": "string",
          "name": "uri",
          "type": "string"
        }
      ],
      "name": "ClaimChanged",
      "type": "event"
    },
    {
      "anonymous": false,
      "inputs": [
        {
          "indexed": false,
          "internalType": "bytes32",
          "name": "claimId",
          "type": "bytes32"
        },
        {
          "indexed": false,
          "internalType": "uint256",
          "name": "topic",
          "type": "uint256"
        },
        {
          "indexed": false,
          "internalType": "uint256",
          "name": "scheme",
          "type": "uint256"
        },
        {
          "indexed": false,
          "internalType": "address",
          "name": "issuer",
          "type": "address"
        },
        {
          "indexed": false,
          "internalType": "address",
          "name": "subject",
          "type": "address"
        },
        {
          "indexed": false,
          "internalType": "bytes",
          "name": "signature",
          "type": "bytes"
        },
        {
          "indexed": false,
          "internalType": "bytes",
          "name": "data",
          "type": "bytes"
        },
        {
          "indexed": false,
          "internalType": "string",
          "name": "uri",
          "type": "string"
        }
      ],
      "name": "ClaimRemoved",
      "type": "event"
    },
    {
      "anonymous": false,
      "inputs": [
        {
          "indexed": false,
          "internalType": "bytes32",
          "name": "claimId",
          "type": "bytes32"
        },
        {
          "indexed": false,
          "internalType": "uint256",
          "name": "topic",
          "type": "uint256"
        },
        {
          "indexed": false,
          "internalType": "uint256",
          "name": "scheme",
          "type": "uint256"
        },
        {
          "indexed": false,
          "internalType": "address",
          "name": "issuer",
          "type": "address"
        },
        {
          "indexed": false,
          "internalType": "address",
          "name": "subject",
          "type": "address"
        },
        {
          "indexed": false,
          "internalType": "bytes",
          "name": "signature",
          "type": "bytes"
        },
        {
          "indexed": false,
          "internalType": "bytes",
          "name": "data",
          "type": "bytes"
        },
        {
          "indexed": false,
          "internalType": "string",
          "name": "uri",
          "type": "string"
        }
      ],
      "name": "ClaimRequested",
      "type": "event"
    },
    {
      "anonymous": false,
      "inputs": [
        {
          "indexed": true,
          "internalType": "address",
          "name": "verifier",
          "type": "address"
        },
        {
          "indexed": false,
          "internalType": "uint256[]",
          "name": "claimTopics",
          "type": "uint256[]"
        }
      ],
      "name": "ClaimTopicsUpdated",
      "type": "event"
    },
    {
      "anonymous": false,
      "inputs": [
        {
          "indexed": true,
          "internalType": "address",
          "name": "previousOwner",
          "type": "address"
        },
        {
          "indexed": true,
          "internalType": "address",
          "name": "newOwner",
          "type": "address"
        }
      ],
      "name": "OwnershipTransferred",
      "type": "event"
    },
    {
      "anonymous": false,
      "inputs": [
        {
          "indexed": true,
          "internalType": "address",
          "name": "verifier",
          "type": "address"
        },
        {
          "indexed": false,
          "internalType": "uint256[]",
          "name": "claimTopics",
          "type": "uint256[]"
        }
      ],
      "name": "TrustedVerifierAdded",
      "type": "event"
    },
    {
      "anonymous": false,
      "inputs": [
        {
          "indexed": true,
          "internalType": "address",
          "name": "verifier",
          "type": "address"
        }
      ],
      "name": "TrustedVerifierRemoved",
      "type": "event"
    },
    {
      "inputs": [
        {
          "internalType": "bytes",
          "name": "",
          "type": "bytes"
        }
      ],
      "name": "_revokedBySig",
      "outputs": [
        {
          "internalType": "bool",
          "name": "",
          "type": "bool"
        }
      ],
      "stateMutability": "view",
      "type": "function"
    },
    {
      "inputs": [
        {
          "internalType": "address",
          "name": "",
          "type": "address"
        },
        {
          "internalType": "uint256",
          "name": "",
          "type": "uint256"
        }
      ],
      "name": "_verifierTrustedTopics",
      "outputs": [
        {
          "internalType": "uint256",
          "name": "",
          "type": "uint256"
        }
      ],
      "stateMutability": "view",
      "type": "function"
    },
    {
      "inputs": [
        {
          "internalType": "uint256",
          "name": "",
          "type": "uint256"
        }
      ],
      "name": "_verifiers",
      "outputs": [
        {
          "internalType": "address",
          "name": "",
          "type": "address"
        }
      ],
      "stateMutability": "view",
      "type": "function"
    },
    {
      "inputs": [
        {
          "internalType": "uint256",
          "name": "topic",
          "type": "uint256"
        },
        {
          "internalType": "uint256",
          "name": "scheme",
          "type": "uint256"
        },
        {
          "internalType": "address",
          "name": "issuer",
          "type": "address"
        },
        {
          "internalType": "address",
          "name": "subject",
          "type": "address"
        },
        {
          "internalType": "bytes",
          "name": "sig",
          "type": "bytes"
        },
        {
          "internalType": "bytes",
          "name": "data",
          "type": "bytes"
        },
        {
          "internalType": "string",
          "name": "uri",
          "type": "string"
        }
      ],
      "name": "addClaim",
      "outputs": [
        {
          "internalType": "bytes32",
          "name": "claimRequestId",
          "type": "bytes32"
        }
      ],
      "stateMutability": "nonpayable",
      "type": "function"
    },
    {
      "inputs": [
        {
          "internalType": "address",
          "name": "verifier",
          "type": "address"
        },
        {
          "internalType": "uint256[]",
          "name": "trustedTopics",
          "type": "uint256[]"
        }
      ],
      "name": "addTrustedVerifier",
      "outputs": [],
      "stateMutability": "nonpayable",
      "type": "function"
    },
    {
      "inputs": [
        {
          "internalType": "bytes",
          "name": "_sig",
          "type": "bytes"
        }
      ],
      "name": "checkIsClaimRevoked",
      "outputs": [
        {
          "internalType": "bool",
          "name": "",
          "type": "bool"
        }
      ],
      "stateMutability": "view",
      "type": "function"
    },
    {
      "inputs": [
        {
          "internalType": "address",
          "name": "subject",
          "type": "address"
        },
        {
          "internalType": "uint256",
          "name": "topic",
          "type": "uint256"
        },
        {
          "internalType": "bytes",
          "name": "sig",
          "type": "bytes"
        },
        {
          "internalType": "bytes",
          "name": "data",
          "type": "bytes"
        }
      ],
      "name": "checkIsClaimValid",
      "outputs": [
        {
          "internalType": "bool",
          "name": "claimValid",
          "type": "bool"
        }
      ],
      "stateMutability": "view",
      "type": "function"
    },
    {
      "inputs": [
        {
          "internalType": "address",
          "name": "subject",
          "type": "address"
        },
        {
          "internalType": "bytes32",
          "name": "claimId",
          "type": "bytes32"
        }
      ],
      "name": "checkIsClaimValidById",
      "outputs": [
        {
          "internalType": "bool",
          "name": "claimValid",
          "type": "bool"
        }
      ],
      "stateMutability": "view",
      "type": "function"
    },
    {
      "inputs": [
        {
          "internalType": "address",
          "name": "verifier",
          "type": "address"
        }
      ],
      "name": "checkIsVerifier",
      "outputs": [
        {
          "internalType": "bool",
          "name": "",
          "type": "bool"
        }
      ],
      "stateMutability": "view",
      "type": "function"
    },
    {
      "inputs": [
        {
          "internalType": "address",
          "name": "verifier",
          "type": "address"
        },
        {
          "internalType": "uint256",
          "name": "topic",
          "type": "uint256"
        }
      ],
      "name": "checkIsVerifierTrustedTopic",
      "outputs": [
        {
          "internalType": "bool",
          "name": "",
          "type": "bool"
        }
      ],
      "stateMutability": "view",
      "type": "function"
    },
    {
      "inputs": [
        {
          "internalType": "bytes32",
          "name": "claimId",
          "type": "bytes32"
        },
        {
          "internalType": "address",
          "name": "subject",
          "type": "address"
        }
      ],
      "name": "getClaim",
      "outputs": [
        {
          "internalType": "uint256",
          "name": "",
          "type": "uint256"
        },
        {
          "internalType": "uint256",
          "name": "",
          "type": "uint256"
        },
        {
          "internalType": "address",
          "name": "",
          "type": "address"
        },
        {
          "internalType": "bytes",
          "name": "",
          "type": "bytes"
        },
        {
          "internalType": "bytes",
          "name": "",
          "type": "bytes"
        },
        {
          "internalType": "string",
          "name": "",
          "type": "string"
        }
      ],
      "stateMutability": "view",
      "type": "function"
    },
    {
      "inputs": [
        {
          "internalType": "address",
          "name": "subject",
          "type": "address"
        },
        {
          "internalType": "uint256",
          "name": "topic",
          "type": "uint256"
        }
      ],
      "name": "getClaimIdsByTopic",
      "outputs": [
        {
          "internalType": "bytes32[]",
          "name": "claimIds",
          "type": "bytes32[]"
        }
      ],
      "stateMutability": "view",
      "type": "function"
    },
    {
      "inputs": [
        {
          "internalType": "bytes",
          "name": "sig",
          "type": "bytes"
        },
        {
          "internalType": "bytes32",
          "name": "dataHash",
          "type": "bytes32"
        }
      ],
      "name": "getRecoveredAddress",
      "outputs": [
        {
          "internalType": "address",
          "name": "addr",
          "type": "address"
        }
      ],
      "stateMutability": "pure",
      "type": "function"
    },
    {
      "inputs": [],
      "name": "owner",
      "outputs": [
        {
          "internalType": "address",
          "name": "",
          "type": "address"
        }
      ],
      "stateMutability": "view",
      "type": "function"
    },
    {
      "inputs": [
        {
          "internalType": "bytes32",
          "name": "claimId",
          "type": "bytes32"
        },
        {
          "internalType": "address",
          "name": "subject",
          "type": "address"
        }
      ],
      "name": "removeClaim",
      "outputs": [
        {
          "internalType": "bool",
          "name": "success",
          "type": "bool"
        }
      ],
      "stateMutability": "nonpayable",
      "type": "function"
    },
    {
      "inputs": [
        {
          "internalType": "address",
          "name": "verifier",
          "type": "address"
        }
      ],
      "name": "removeTrustedVerifier",
      "outputs": [],
      "stateMutability": "nonpayable",
      "type": "function"
    },
    {
      "inputs": [],
      "name": "renounceOwnership",
      "outputs": [],
      "stateMutability": "nonpayable",
      "type": "function"
    },
    {
      "inputs": [
        {
          "internalType": "bytes32",
          "name": "claimId",
          "type": "bytes32"
        },
        {
          "internalType": "address",
          "name": "subject",
          "type": "address"
        }
      ],
      "name": "revokeClaim",
      "outputs": [
        {
          "internalType": "bool",
          "name": "",
          "type": "bool"
        }
      ],
      "stateMutability": "nonpayable",
      "type": "function"
    },
    {
      "inputs": [
        {
          "internalType": "address",
          "name": "newOwner",
          "type": "address"
        }
      ],
      "name": "transferOwnership",
      "outputs": [],
      "stateMutability": "nonpayable",
      "type": "function"
    },
    {
      "inputs": [
        {
          "internalType": "address",
          "name": "verifier",
          "type": "address"
        },
        {
          "internalType": "uint256[]",
          "name": "trustedTopics",
          "type": "uint256[]"
        }
      ],
      "name": "updateVerifierClaimTopics",
      "outputs": [],
      "stateMutability": "nonpayable",
      "type": "function"
    }
  ],
  "bytecode": {
    "object": "0x608060405234801561001057600080fd5b5061001a3361001f565b61006f565b600080546001600160a01b038381166001600160a01b0319831681178455604051919092169283917f8be0079c531659141344cd1fd0a4f28419497f9722a3daafe3b4186f6b6457e09190a35050565b6120788061007e6000396000f3fe608060405234801561001057600080fd5b506004361061012c5760003560e01c8063be4a5040116100ad578063e8241d4e11610071578063e8241d4e146102b4578063ecccf27b146102c7578063f0f40189146102da578063f2fde38b146102ed578063f7efada21461030057600080fd5b8063be4a504014610247578063c3b129e31461025a578063c44609751461026d578063d91b308714610280578063dd5ae160146102a157600080fd5b806381e45bd2116100f457806381e45bd2146101b757806385048035146101ca5780638da5cb5b146101ea5780639d030de11461020f578063bc99e1901461023457600080fd5b806345b2b682146101315780636036ff4a14610159578063715018a61461018757806373c3370814610191578063801d2cf1146101a4575b600080fd5b61014461013f36600461195a565b610313565b60405190151581526020015b60405180910390f35b6101446101673660046119d8565b805160208183018101805160038252928201919093012091525460ff1681565b61018f610408565b005b61014461019f366004611a0d565b610447565b61018f6101b2366004611a39565b6104b0565b61018f6101c5366004611a54565b61069b565b6101dd6101d8366004611ada565b61082f565b6040516101509190611b04565b6000546001600160a01b03165b6040516001600160a01b039091168152602001610150565b61022261021d366004611a0d565b6108a4565b60405161015096959493929190611ba4565b6101446102423660046119d8565b610ab1565b610144610255366004611ada565b610aeb565b6101f7610268366004611c04565b610c6b565b61014461027b366004611ada565b610d1c565b61029361028e366004611c49565b610da3565b604051908152602001610150565b6102936102af366004611ada565b6111c8565b6101446102c2366004611a0d565b6111f9565b61018f6102d5366004611a54565b6114b6565b6101446102e8366004611a39565b6115ec565b61018f6102fb366004611a39565b611655565b6101f761030e366004611d1a565b6116f0565b60008085858460405160200161032b93929190611d33565b60405160208183030381529060405280519060200120905060008160405160200161038291907f19457468657265756d205369676e6564204d6573736167653a0a3332000000008152601c810191909152603c0190565b60405160208183030381529060405280519060200120905060006103a68683610c6b565b604080516001600160a01b0383166020820152919250600091016040516020818303038152906040528051906020012090506103e187610ab1565b15156000036103f7576001945050505050610400565b60009450505050505b949350505050565b6000546001600160a01b0316331461043b5760405162461bcd60e51b815260040161043290611d63565b60405180910390fd5b610445600061171a565b565b600080600080606080606061045c89896108a4565b604051959b5093995091975095509350915060019060039061047f908690611d98565b908152604051908190036020019020805491151560ff19909216919091179055506001955050505050505b92915050565b6000546001600160a01b031633146104da5760405162461bcd60e51b815260040161043290611d63565b6001600160a01b038116600090815260056020526040812054900361053a5760405162461bcd60e51b815260206004820152601660248201527515995c9a599a595c88191bd95cdb89dd08195e1a5cdd60521b6044820152606401610432565b60005b60045481101561064257816001600160a01b03166004828154811061056457610564611db4565b6000918252602090912001546001600160a01b031603610630576004805461058e90600190611de0565b8154811061059e5761059e611db4565b600091825260209091200154600480546001600160a01b0390921691839081106105ca576105ca611db4565b9060005260206000200160006101000a8154816001600160a01b0302191690836001600160a01b03160217905550600480548061060957610609611df7565b600082815260209020810160001990810180546001600160a01b0319169055019055610642565b8061063a81611e0d565b91505061053d565b506001600160a01b03811660009081526005602052604081206106649161176a565b6040516001600160a01b038216907f950a8e112b31e97be460baabc0d4707401514b9c8de4a4bc01b7b1554e4dbb1690600090a250565b6000546001600160a01b031633146106c55760405162461bcd60e51b815260040161043290611d63565b6001600160a01b0383166000908152600560205260409020541561072b5760405162461bcd60e51b815260206004820152601f60248201527f5472757374656420566572696669657220616c726561647920657869737473006044820152606401610432565b806107845760405162461bcd60e51b8152602060048201526024808201527f5472757374656420636c61696d20746f706963732063616e6e6f7420626520656044820152636d70747960e01b6064820152608401610432565b60048054600181019091557f8a35acfbc15ff81a39ae7d344fd709f28e8600b4aa8c65c6b64bfe7fe36bd19b0180546001600160a01b0319166001600160a01b03851690811790915560009081526005602052604090206107e6908383611788565b50826001600160a01b03167f8cfa048f319519100018c070f5b70ebdb10f75f14622c98ec59725c0de0f12f18383604051610822929190611e26565b60405180910390a2505050565b6001600160a01b038216600090815260026020908152604080832084845282529182902080548351818402810184019094528084526060939283018282801561089757602002820191906000526020600020905b815481526020019060010190808311610883575b5050505050905092915050565b6001600160a01b0381811660009081526001602081815260408084208785529091528220805491810154600282015460048301805495968796879660609687968796929590949290921692600582019160060190839061090390611e62565b80601f016020809104026020016040519081016040528092919081815260200182805461092f90611e62565b801561097c5780601f106109515761010080835404028352916020019161097c565b820191906000526020600020905b81548152906001019060200180831161095f57829003601f168201915b5050505050925081805461098f90611e62565b80601f01602080910402602001604051908101604052809291908181526020018280546109bb90611e62565b8015610a085780601f106109dd57610100808354040283529160200191610a08565b820191906000526020600020905b8154815290600101906020018083116109eb57829003601f168201915b50505050509150808054610a1b90611e62565b80601f0160208091040260200160405190810160405280929190818152602001828054610a4790611e62565b8015610a945780601f10610a6957610100808354040283529160200191610a94565b820191906000526020600020905b815481529060010190602001808311610a7757829003601f168201915b505050505090509550955095509550955095509295509295509295565b6000600382604051610ac39190611d98565b9081526040519081900360200190205460ff1615610ae357506001919050565b506000919050565b6001600160a01b038281166000908152600160209081526040808320858452909152812060038101548154600490920180549394610c649492169291610b3090611e62565b80601f0160208091040260200160405190810160405280929190818152602001828054610b5c90611e62565b8015610ba95780601f10610b7e57610100808354040283529160200191610ba9565b820191906000526020600020905b815481529060010190602001808311610b8c57829003601f168201915b5050506001600160a01b03891660009081526001602090815260408083208b845290915290206005018054909250610be19150611e62565b80601f0160208091040260200160405190810160405280929190818152602001828054610c0d90611e62565b8015610c5a5780601f10610c2f57610100808354040283529160200191610c5a565b820191906000526020600020905b815481529060010190602001808311610c3d57829003601f168201915b5050505050610313565b9392505050565b6000806000808551604114610c8657600093505050506104aa565b50505060208301516040840151606085015160001a601b811015610cb257610caf601b82611e9c565b90505b6040805160008082526020820180845288905260ff841692820192909252606081018590526080810184905260019060a0016020604051602081039080840390855afa158015610d06573d6000803e3d6000fd5b5050604051601f19015198975050505050505050565b6000805b6001600160a01b038416600090815260056020526040902054811015610d99576001600160a01b0384166000908152600560205260409020805484919083908110610d6d57610d6d611db4565b906000526020600020015403610d875760019150506104aa565b80610d9181611e0d565b915050610d20565b5060009392505050565b604080516001600160a01b0387811660208084018290528385018c905284518085038601815260609094018552835193810193909320888316600090815260018552858120828252909452938320600201549293929091161461109d5760026000876001600160a01b03166001600160a01b0316815260200190815260200160002060008a81526020019081526020016000208190806001815401808255809150506001900390600052602060002001600090919091909150558860016000886001600160a01b03166001600160a01b031681526020019081526020016000206000838152602001908152602001600020600001819055508760016000886001600160a01b03166001600160a01b031681526020019081526020016000206000838152602001908152602001600020600101819055508660016000886001600160a01b03166001600160a01b03168152602001908152602001600020600083815260200190815260200160002060020160006101000a8154816001600160a01b0302191690836001600160a01b031602179055508560016000886001600160a01b03166001600160a01b03168152602001908152602001600020600083815260200190815260200160002060030160006101000a8154816001600160a01b0302191690836001600160a01b031602179055508460016000886001600160a01b03166001600160a01b0316815260200190815260200160002060008381526020019081526020016000206004019080519060200190610fe29291906117d3565b506001600160a01b03861660009081526001602090815260408083208484528252909120855161101a926005909201918701906117d3565b506001600160a01b038616600090815260016020908152604080832084845282529091208451611052926006909201918601906117d3565b507f86ea032ace832ee5963d0fd78c0db5612b4b18873fc907c8f0983c932468f669818a8a8a8a8a8a8a604051611090989796959493929190611ec1565b60405180910390a16111bc565b6001600160a01b03868116600081815260016020818152604080842087855282529092208d81559081018c9055600281018054948c166001600160a01b03199586161790556003810180549094169092179092558651611105926004909201918801906117d3565b506001600160a01b03861660009081526001602090815260408083208484528252909120855161113d926005909201918701906117d3565b506001600160a01b038616600090815260016020908152604080832084845282529091208451611175926006909201918601906117d3565b507fc43d78b16213c025978f20e4b16d97c1ef39a4a7ecee28dc1ca79c3b4040aab4818a8a8a8a8a8a8a6040516111b3989796959493929190611ec1565b60405180910390a15b98975050505050505050565b600560205281600052604060002081815481106111e457600080fd5b90600052602060002001600091509150505481565b6001600160a01b03811660009081526001602090815260408083208584529091528120548082036112805760405162461bcd60e51b815260206004820152602b60248201527f4e6f6e4578697374696e673a205468657265206973206e6f20636c61696d207760448201526a1a5d1a081d1a1a5cc8125160aa1b6064820152608401610432565b60005b6001600160a01b038416600090815260026020908152604080832085845290915290208054869190839081106112bb576112bb611db4565b9060005260206000200154146112dd57806112d581611e0d565b915050611283565b6001600160a01b03841660009081526002602090815260408083208584529091529020805461130e90600190611de0565b8154811061131e5761131e611db4565b60009182526020808320909101546001600160a01b0387168352600282526040808420868552909252912080548390811061135b5761135b611db4565b60009182526020808320909101929092556001600160a01b03861681526002825260408082208583529092522080548061139757611397611df7565b6000828152602080822060001990840181018390559092019092556001600160a01b038681168352600180835260408085208a8652909352928290208054938101546002820154600383015494517f507dd2d01a3eaa5a5d3cf7532c8e8b2cdd9ead9af7fc19621af1c0e2936a693f9661142b968d9691959382169391169160048201916005810191600690910190611fd9565b60405180910390a16001600160a01b038416600090815260016020818152604080842089855290915282208281559081018290556002810180546001600160a01b031990811690915560038201805490911690559061148d6004830182611847565b61149b600583016000611847565b6114a9600683016000611847565b5060019695505050505050565b6000546001600160a01b031633146114e05760405162461bcd60e51b815260040161043290611d63565b6001600160a01b03831660009081526005602052604081205490036115405760405162461bcd60e51b815260206004820152601660248201527515995c9a599a595c88191bd95cdb89dd08195e1a5cdd60521b6044820152606401610432565b8061158d5760405162461bcd60e51b815260206004820152601d60248201527f436c61696d7320746f706963732063616e6e6f7420626520656d7074790000006044820152606401610432565b6001600160a01b03831660009081526005602052604090206115b0908383611788565b50826001600160a01b03167fec753cfc52044f61676f18a11e500093a9f2b1cd5e4942bc476f2b0438159bcf8383604051610822929190611e26565b6000805b60045481101561164c57826001600160a01b03166004828154811061161757611617611db4565b6000918252602090912001546001600160a01b03160361163a5750600192915050565b8061164481611e0d565b9150506115f0565b50600092915050565b6000546001600160a01b0316331461167f5760405162461bcd60e51b815260040161043290611d63565b6001600160a01b0381166116e45760405162461bcd60e51b815260206004820152602660248201527f4f776e61626c653a206e6577206f776e657220697320746865207a65726f206160448201526564647265737360d01b6064820152608401610432565b6116ed8161171a565b50565b6004818154811061170057600080fd5b6000918252602090912001546001600160a01b0316905081565b600080546001600160a01b038381166001600160a01b0319831681178455604051919092169283917f8be0079c531659141344cd1fd0a4f28419497f9722a3daafe3b4186f6b6457e09190a35050565b50805460008255906000526020600020908101906116ed919061187d565b8280548282559060005260206000209081019282156117c3579160200282015b828111156117c35782358255916020019190600101906117a8565b506117cf92915061187d565b5090565b8280546117df90611e62565b90600052602060002090601f01602090048101928261180157600085556117c3565b82601f1061181a57805160ff19168380011785556117c3565b828001600101855582156117c3579182015b828111156117c357825182559160200191906001019061182c565b50805461185390611e62565b6000825580601f10611863575050565b601f0160209004906000526020600020908101906116ed91905b5b808211156117cf576000815560010161187e565b80356001600160a01b03811681146118a957600080fd5b919050565b634e487b7160e01b600052604160045260246000fd5b600067ffffffffffffffff808411156118df576118df6118ae565b604051601f8501601f19908116603f01168101908282118183101715611907576119076118ae565b8160405280935085815286868601111561192057600080fd5b858560208301376000602087830101525050509392505050565b600082601f83011261194b57600080fd5b610c64838335602085016118c4565b6000806000806080858703121561197057600080fd5b61197985611892565b935060208501359250604085013567ffffffffffffffff8082111561199d57600080fd5b6119a98883890161193a565b935060608701359150808211156119bf57600080fd5b506119cc8782880161193a565b91505092959194509250565b6000602082840312156119ea57600080fd5b813567ffffffffffffffff811115611a0157600080fd5b6104008482850161193a565b60008060408385031215611a2057600080fd5b82359150611a3060208401611892565b90509250929050565b600060208284031215611a4b57600080fd5b610c6482611892565b600080600060408486031215611a6957600080fd5b611a7284611892565b9250602084013567ffffffffffffffff80821115611a8f57600080fd5b818601915086601f830112611aa357600080fd5b813581811115611ab257600080fd5b8760208260051b8501011115611ac757600080fd5b6020830194508093505050509250925092565b60008060408385031215611aed57600080fd5b611af683611892565b946020939093013593505050565b6020808252825182820181905260009190848201906040850190845b81811015611b3c57835183529284019291840191600101611b20565b50909695505050505050565b60005b83811015611b63578181015183820152602001611b4b565b83811115611b72576000848401525b50505050565b60008151808452611b90816020860160208601611b48565b601f01601f19169290920160200192915050565b86815285602082015260018060a01b038516604082015260c060608201526000611bd160c0830186611b78565b8281036080840152611be38186611b78565b905082810360a0840152611bf78185611b78565b9998505050505050505050565b60008060408385031215611c1757600080fd5b823567ffffffffffffffff811115611c2e57600080fd5b611c3a8582860161193a565b95602094909401359450505050565b600080600080600080600060e0888a031215611c6457600080fd5b8735965060208801359550611c7b60408901611892565b9450611c8960608901611892565b9350608088013567ffffffffffffffff80821115611ca657600080fd5b611cb28b838c0161193a565b945060a08a0135915080821115611cc857600080fd5b611cd48b838c0161193a565b935060c08a0135915080821115611cea57600080fd5b508801601f81018a13611cfc57600080fd5b611d0b8a8235602084016118c4565b91505092959891949750929550565b600060208284031215611d2c57600080fd5b5035919050565b60018060a01b0384168152826020820152606060408201526000611d5a6060830184611b78565b95945050505050565b6020808252818101527f4f776e61626c653a2063616c6c6572206973206e6f7420746865206f776e6572604082015260600190565b60008251611daa818460208701611b48565b9190910192915050565b634e487b7160e01b600052603260045260246000fd5b634e487b7160e01b600052601160045260246000fd5b600082821015611df257611df2611dca565b500390565b634e487b7160e01b600052603160045260246000fd5b600060018201611e1f57611e1f611dca565b5060010190565b6020808252810182905260006001600160fb1b03831115611e4657600080fd5b8260051b80856040850137600092016040019182525092915050565b600181811c90821680611e7657607f821691505b602082108103611e9657634e487b7160e01b600052602260045260246000fd5b50919050565b600060ff821660ff84168060ff03821115611eb957611eb9611dca565b019392505050565b88815260208101889052604081018790526001600160a01b0386811660608301528516608082015261010060a08201819052600090611f0283820187611b78565b905082810360c0840152611f168186611b78565b905082810360e0840152611f2a8185611b78565b9b9a5050505050505050505050565b8054600090600181811c9080831680611f5357607f831692505b60208084108203611f7457634e487b7160e01b600052602260045260246000fd5b838852818015611f8b5760018114611f9f57611fcd565b60ff19861689830152604089019650611fcd565b876000528160002060005b86811015611fc55781548b8201850152908501908301611faa565b8a0183019750505b50505050505092915050565b88815260208101889052604081018790526001600160a01b0386811660608301528516608082015261010060a0820181905260009061201a83820187611f39565b905082810360c084015261202e8186611f39565b905082810360e0840152611f2a8185611f3956fea2646970667358221220b3f28e23c5b5e2b4a744baec493ef6a7d193c35a756d65fbf4b6fe74e566054b64736f6c634300080e0033",
    "linkReferences": {}
  },
  "methodIdentifiers": {
    "_revokedBySig(bytes)": "6036ff4a",
    "_verifierTrustedTopics(address,uint256)": "dd5ae160",
    "_verifiers(uint256)": "f7efada2",
    "addClaim(uint256,uint256,address,address,bytes,bytes,string)": "d91b3087",
    "addTrustedVerifier(address,uint256[])": "81e45bd2",
    "checkIsClaimRevoked(bytes)": "bc99e190",
    "checkIsClaimValid(address,uint256,bytes,bytes)": "45b2b682",
    "checkIsClaimValidById(address,bytes32)": "be4a5040",
    "checkIsVerifier(address)": "f0f40189",
    "checkIsVerifierTrustedTopic(address,uint256)": "c4460975",
    "getClaim(bytes32,address)": "9d030de1",
    "getClaimIdsByTopic(address,uint256)": "85048035",
    "getRecoveredAddress(bytes,bytes32)": "c3b129e3",
    "owner()": "8da5cb5b",
    "removeClaim(bytes32,address)": "e8241d4e",
    "removeTrustedVerifier(address)": "801d2cf1",
    "renounceOwnership()": "715018a6",
    "revokeClaim(bytes32,address)": "73c33708",
    "transferOwnership(address)": "f2fde38b",
    "updateVerifierClaimTopics(address,uint256[])": "ecccf27b"
  },
  "id": 29
}