{
  "abi": [
    {
      "inputs": [
        {
          "internalType": "address",
          "name": "forwarder",
          "type": "address"
        }
      ],
      "stateMutability": "nonpayable",
      "type": "constructor"
    },
    {
      "inputs": [],
      "name": "EmptyClaimTopics",
      "type": "error"
    },
    {
      "inputs": [],
      "name": "NonExistantClaim",
      "type": "error"
    },
    {
      "inputs": [],
      "name": "NonExistantVerifier",
      "type": "error"
    },
    {
      "inputs": [],
      "name": "NotIssuer",
      "type": "error"
    },
    {
      "inputs": [],
      "name": "NotIssuerOrSubject",
      "type": "error"
    },
    {
      "inputs": [],
      "name": "VerifierAlreadyExists",
      "type": "error"
    },
    {
      "anonymous": false,
      "inputs": [
        {
          "indexed": false,
          "internalType": "uint256",
          "name": "claimId",
          "type": "uint256"
        },
        {
          "indexed": true,
          "internalType": "uint256",
          "name": "topic",
          "type": "uint256"
        },
        {
          "indexed": false,
          "internalType": "uint256",
          "name": "scheme",
          "type": "uint256"
        },
        {
          "indexed": true,
          "internalType": "address",
          "name": "issuer",
          "type": "address"
        },
        {
          "indexed": true,
          "internalType": "address",
          "name": "subject",
          "type": "address"
        },
        {
          "indexed": false,
          "internalType": "string",
          "name": "uri",
          "type": "string"
        }
      ],
      "name": "ClaimAdded",
      "type": "event"
    },
    {
      "anonymous": false,
      "inputs": [
        {
          "indexed": false,
          "internalType": "uint256",
          "name": "claimId",
          "type": "uint256"
        },
        {
          "indexed": false,
          "internalType": "uint256",
          "name": "topic",
          "type": "uint256"
        },
        {
          "indexed": false,
          "internalType": "uint256",
          "name": "scheme",
          "type": "uint256"
        },
        {
          "indexed": false,
          "internalType": "address",
          "name": "issuer",
          "type": "address"
        },
        {
          "indexed": false,
          "internalType": "address",
          "name": "subject",
          "type": "address"
        },
        {
          "indexed": false,
          "internalType": "string",
          "name": "uri",
          "type": "string"
        }
      ],
      "name": "ClaimChanged",
      "type": "event"
    },
    {
      "anonymous": false,
      "inputs": [
        {
          "indexed": false,
          "internalType": "uint256",
          "name": "claimId",
          "type": "uint256"
        },
        {
          "indexed": false,
          "internalType": "uint256",
          "name": "topic",
          "type": "uint256"
        },
        {
          "indexed": false,
          "internalType": "uint256",
          "name": "scheme",
          "type": "uint256"
        },
        {
          "indexed": false,
          "internalType": "address",
          "name": "issuer",
          "type": "address"
        },
        {
          "indexed": false,
          "internalType": "address",
          "name": "subject",
          "type": "address"
        },
        {
          "indexed": false,
          "internalType": "string",
          "name": "uri",
          "type": "string"
        }
      ],
      "name": "ClaimRemoved",
      "type": "event"
    },
    {
      "anonymous": false,
      "inputs": [
        {
          "indexed": false,
          "internalType": "uint256",
          "name": "claimId",
          "type": "uint256"
        },
        {
          "indexed": false,
          "internalType": "uint256",
          "name": "topic",
          "type": "uint256"
        },
        {
          "indexed": false,
          "internalType": "uint256",
          "name": "scheme",
          "type": "uint256"
        },
        {
          "indexed": false,
          "internalType": "address",
          "name": "issuer",
          "type": "address"
        },
        {
          "indexed": false,
          "internalType": "address",
          "name": "subject",
          "type": "address"
        },
        {
          "indexed": false,
          "internalType": "string",
          "name": "uri",
          "type": "string"
        }
      ],
      "name": "ClaimRequested",
      "type": "event"
    },
    {
      "anonymous": false,
      "inputs": [
        {
          "indexed": true,
          "internalType": "address",
          "name": "previousOwner",
          "type": "address"
        },
        {
          "indexed": true,
          "internalType": "address",
          "name": "newOwner",
          "type": "address"
        }
      ],
      "name": "OwnershipTransferred",
      "type": "event"
    },
    {
      "anonymous": false,
      "inputs": [
        {
          "indexed": true,
          "internalType": "address",
          "name": "verifier",
          "type": "address"
        },
        {
          "indexed": false,
          "internalType": "uint256[]",
          "name": "trustedTopics",
          "type": "uint256[]"
        }
      ],
      "name": "TrustedClaimTopicsUpdated",
      "type": "event"
    },
    {
      "anonymous": false,
      "inputs": [
        {
          "indexed": true,
          "internalType": "address",
          "name": "verifier",
          "type": "address"
        },
        {
          "indexed": false,
          "internalType": "uint256[]",
          "name": "claimTopics",
          "type": "uint256[]"
        }
      ],
      "name": "TrustedVerifierAdded",
      "type": "event"
    },
    {
      "anonymous": false,
      "inputs": [
        {
          "indexed": true,
          "internalType": "address",
          "name": "verifier",
          "type": "address"
        }
      ],
      "name": "TrustedVerifierRemoved",
      "type": "event"
    },
    {
      "inputs": [
        {
          "internalType": "address",
          "name": "",
          "type": "address"
        },
        {
          "internalType": "uint256",
          "name": "",
          "type": "uint256"
        }
      ],
      "name": "_verifierTrustedTopics",
      "outputs": [
        {
          "internalType": "uint256",
          "name": "",
          "type": "uint256"
        }
      ],
      "stateMutability": "view",
      "type": "function"
    },
    {
      "inputs": [
        {
          "internalType": "uint256",
          "name": "",
          "type": "uint256"
        }
      ],
      "name": "_verifiers",
      "outputs": [
        {
          "internalType": "address",
          "name": "",
          "type": "address"
        }
      ],
      "stateMutability": "view",
      "type": "function"
    },
    {
      "inputs": [
        {
          "internalType": "uint256",
          "name": "topic",
          "type": "uint256"
        },
        {
          "internalType": "uint256",
          "name": "scheme",
          "type": "uint256"
        },
        {
          "internalType": "address",
          "name": "subject",
          "type": "address"
        },
        {
          "internalType": "string",
          "name": "uri",
          "type": "string"
        }
      ],
      "name": "addClaim",
      "outputs": [
        {
          "internalType": "uint256",
          "name": "claimId",
          "type": "uint256"
        }
      ],
      "stateMutability": "nonpayable",
      "type": "function"
    },
    {
      "inputs": [
        {
          "internalType": "address",
          "name": "verifier",
          "type": "address"
        },
        {
          "internalType": "uint256[]",
          "name": "trustedTopics",
          "type": "uint256[]"
        }
      ],
      "name": "addTrustedVerifier",
      "outputs": [
        {
          "internalType": "uint256",
          "name": "",
          "type": "uint256"
        }
      ],
      "stateMutability": "nonpayable",
      "type": "function"
    },
    {
      "inputs": [
        {
          "internalType": "uint256",
          "name": "claim",
          "type": "uint256"
        }
      ],
      "name": "checkIsClaimRevoked",
      "outputs": [
        {
          "internalType": "bool",
          "name": "",
          "type": "bool"
        }
      ],
      "stateMutability": "view",
      "type": "function"
    },
    {
      "inputs": [
        {
          "internalType": "uint256",
          "name": "claim",
          "type": "uint256"
        }
      ],
      "name": "checkIsClaimValid",
      "outputs": [
        {
          "internalType": "bool",
          "name": "claimValid",
          "type": "bool"
        }
      ],
      "stateMutability": "view",
      "type": "function"
    },
    {
      "inputs": [
        {
          "internalType": "address",
          "name": "verifier",
          "type": "address"
        }
      ],
      "name": "checkIsVerifier",
      "outputs": [
        {
          "internalType": "bool",
          "name": "",
          "type": "bool"
        }
      ],
      "stateMutability": "view",
      "type": "function"
    },
    {
      "inputs": [
        {
          "internalType": "address",
          "name": "verifier",
          "type": "address"
        },
        {
          "internalType": "uint256",
          "name": "topic",
          "type": "uint256"
        }
      ],
      "name": "checkIsVerifierTrustedTopic",
      "outputs": [
        {
          "internalType": "bool",
          "name": "",
          "type": "bool"
        }
      ],
      "stateMutability": "view",
      "type": "function"
    },
    {
      "inputs": [
        {
          "internalType": "uint256",
          "name": "claim",
          "type": "uint256"
        }
      ],
      "name": "getClaim",
      "outputs": [
        {
          "internalType": "uint256",
          "name": "",
          "type": "uint256"
        },
        {
          "internalType": "uint256",
          "name": "",
          "type": "uint256"
        },
        {
          "internalType": "address",
          "name": "",
          "type": "address"
        },
        {
          "internalType": "string",
          "name": "",
          "type": "string"
        }
      ],
      "stateMutability": "view",
      "type": "function"
    },
    {
      "inputs": [
        {
          "internalType": "address",
          "name": "issuer",
          "type": "address"
        }
      ],
      "name": "getClaimsByIssuer",
      "outputs": [
        {
          "internalType": "uint256[]",
          "name": "",
          "type": "uint256[]"
        }
      ],
      "stateMutability": "view",
      "type": "function"
    },
    {
      "inputs": [
        {
          "internalType": "address",
          "name": "subject",
          "type": "address"
        }
      ],
      "name": "getClaimsBySubject",
      "outputs": [
        {
          "internalType": "uint256[]",
          "name": "",
          "type": "uint256[]"
        }
      ],
      "stateMutability": "view",
      "type": "function"
    },
    {
      "inputs": [
        {
          "internalType": "address",
          "name": "issuer",
          "type": "address"
        },
        {
          "internalType": "uint256",
          "name": "topic",
          "type": "uint256"
        }
      ],
      "name": "getClaimsIssuerTopic",
      "outputs": [
        {
          "internalType": "uint256[]",
          "name": "",
          "type": "uint256[]"
        }
      ],
      "stateMutability": "view",
      "type": "function"
    },
    {
      "inputs": [
        {
          "internalType": "address",
          "name": "subject",
          "type": "address"
        },
        {
          "internalType": "uint256",
          "name": "topic",
          "type": "uint256"
        }
      ],
      "name": "getClaimsSubjectTopic",
      "outputs": [
        {
          "internalType": "uint256[]",
          "name": "",
          "type": "uint256[]"
        }
      ],
      "stateMutability": "view",
      "type": "function"
    },
    {
      "inputs": [
        {
          "internalType": "address",
          "name": "forwarder",
          "type": "address"
        }
      ],
      "name": "isTrustedForwarder",
      "outputs": [
        {
          "internalType": "bool",
          "name": "",
          "type": "bool"
        }
      ],
      "stateMutability": "view",
      "type": "function"
    },
    {
      "inputs": [],
      "name": "owner",
      "outputs": [
        {
          "internalType": "address",
          "name": "",
          "type": "address"
        }
      ],
      "stateMutability": "view",
      "type": "function"
    },
    {
      "inputs": [
        {
          "internalType": "uint256",
          "name": "claim",
          "type": "uint256"
        }
      ],
      "name": "removeClaim",
      "outputs": [
        {
          "internalType": "bool",
          "name": "success",
          "type": "bool"
        }
      ],
      "stateMutability": "nonpayable",
      "type": "function"
    },
    {
      "inputs": [
        {
          "internalType": "address",
          "name": "verifier",
          "type": "address"
        }
      ],
      "name": "removeTrustedVerifier",
      "outputs": [],
      "stateMutability": "nonpayable",
      "type": "function"
    },
    {
      "inputs": [],
      "name": "renounceOwnership",
      "outputs": [],
      "stateMutability": "nonpayable",
      "type": "function"
    },
    {
      "inputs": [
        {
          "internalType": "uint256",
          "name": "claim",
          "type": "uint256"
        }
      ],
      "name": "revokeClaim",
      "outputs": [
        {
          "internalType": "bool",
          "name": "",
          "type": "bool"
        }
      ],
      "stateMutability": "nonpayable",
      "type": "function"
    },
    {
      "inputs": [
        {
          "internalType": "address",
          "name": "newOwner",
          "type": "address"
        }
      ],
      "name": "transferOwnership",
      "outputs": [],
      "stateMutability": "nonpayable",
      "type": "function"
    },
    {
      "inputs": [
        {
          "internalType": "address",
          "name": "verifier",
          "type": "address"
        },
        {
          "internalType": "uint256[]",
          "name": "trustedTopics",
          "type": "uint256[]"
        }
      ],
      "name": "updateVerifierClaimTopics",
      "outputs": [],
      "stateMutability": "nonpayable",
      "type": "function"
    }
  ],
  "bytecode": {
    "object": "0x60a06040523480156200001157600080fd5b5060405162001c9638038062001c968339810160408190526200003491620000ef565b6001600160a01b038116608052620000556200004f6200005c565b62000099565b5062000121565b6080516000906001600160a01b031633036200007f575060131936013560601c90565b62000094620000eb60201b620014881760201c565b905090565b600880546001600160a01b038381166001600160a01b0319831681179093556040519116919082907f8be0079c531659141344cd1fd0a4f28419497f9722a3daafe3b4186f6b6457e090600090a35050565b3390565b6000602082840312156200010257600080fd5b81516001600160a01b03811681146200011a57600080fd5b9392505050565b608051611b5262000144600039600081816101a401526114900152611b526000f3fe608060405234801561001057600080fd5b50600436106101375760003560e01c8063c21d89dd116100b8578063ecccf27b1161007c578063ecccf27b146102df578063ef2f8787146102f2578063f0f4018914610305578063f10ab11b14610318578063f2fde38b1461032b578063f7efada21461033e57600080fd5b8063c21d89dd14610280578063c273706514610293578063c4460975146102a6578063dd5ae160146102b9578063ec6124b6146102cc57600080fd5b8063801d2cf1116100ff578063801d2cf11461020157806381e45bd2146102145780638da5cb5b146102355780639a6a5e411461025a5780639c9ec9421461026d57600080fd5b80631802e5481461013c57806329bc279814610174578063572b6c05146101945780635aef2447146101d4578063715018a6146101f7575b600080fd5b61015f61014a36600461164a565b60009081526001602052604090205460ff1690565b60405190151581526020015b60405180910390f35b61018761018236600461167f565b610351565b60405161016b91906116a1565b61015f6101a236600461167f565b7f00000000000000000000000000000000000000000000000000000000000000006001600160a01b0390811691161490565b6101e76101e236600461164a565b6103bd565b60405161016b9493929190611732565b6101ff6104ff565b005b6101ff61020f36600461167f565b61055d565b610227610222366004611769565b61073f565b60405190815260200161016b565b6008546001600160a01b03165b6040516001600160a01b03909116815260200161016b565b61015f61026836600461164a565b610894565b61018761027b3660046117ef565b61095e565b61015f61028e36600461164a565b6109d4565b6101876102a13660046117ef565b610a58565b61015f6102b43660046117ef565b610acb565b6102276102c73660046117ef565b610b52565b6102276102da36600461182f565b610b83565b6101ff6102ed366004611769565b610dc5565b61015f61030036600461164a565b610ed1565b61015f61031336600461167f565b6112d1565b61018761032636600461167f565b61133a565b6101ff61033936600461167f565b6113a4565b61024261034c36600461164a565b61145e565b6001600160a01b0381166000908152600260209081526040918290208054835181840281018401909452808452606093928301828280156103b157602002820191906000526020600020905b81548152602001906001019080831161039d575b50505050509050919050565b60008060006060600085815481106103d7576103d7611904565b906000526020600020906005020160000154600086815481106103fc576103fc611904565b9060005260206000209060050201600101546000878154811061042157610421611904565b6000918252602082206002600590920201015481546001600160a01b0390911691908990811061045357610453611904565b90600052602060002090600502016004018080546104709061191a565b80601f016020809104026020016040519081016040528092919081815260200182805461049c9061191a565b80156104e95780601f106104be576101008083540402835291602001916104e9565b820191906000526020600020905b8154815290600101906020018083116104cc57829003601f168201915b5050505050905093509350935093509193509193565b61050761148c565b6001600160a01b03166105226008546001600160a01b031690565b6001600160a01b0316146105515760405162461bcd60e51b81526004016105489061194e565b60405180910390fd5b61055b60006114d0565b565b61056561148c565b6001600160a01b03166105806008546001600160a01b031690565b6001600160a01b0316146105a65760405162461bcd60e51b81526004016105489061194e565b6001600160a01b03811660009081526007602052604081205490036105de5760405163163091ab60e21b815260040160405180910390fd5b60005b6006548110156106e657816001600160a01b03166006828154811061060857610608611904565b6000918252602090912001546001600160a01b0316036106d4576006805461063290600190611999565b8154811061064257610642611904565b600091825260209091200154600680546001600160a01b03909216918390811061066e5761066e611904565b9060005260206000200160006101000a8154816001600160a01b0302191690836001600160a01b0316021790555060068054806106ad576106ad6119b0565b600082815260209020810160001990810180546001600160a01b03191690550190556106e6565b806106de816119c6565b9150506105e1565b506001600160a01b038116600090815260076020526040812061070891611522565b6040516001600160a01b038216907f950a8e112b31e97be460baabc0d4707401514b9c8de4a4bc01b7b1554e4dbb1690600090a250565b600061074961148c565b6001600160a01b03166107646008546001600160a01b031690565b6001600160a01b03161461078a5760405162461bcd60e51b81526004016105489061194e565b6001600160a01b038416600090815260076020526040902054156107c15760405163fdb6137760e01b815260040160405180910390fd5b60008290036107e357604051631eda577d60e11b815260040160405180910390fd5b60068054600181019091557ff652222313e28459528d920b65115c16c04f3efc82aaedc97be59f3f377c0d3f0180546001600160a01b0319166001600160a01b0386169081179091556000908152600760205260409020610845908484611540565b50836001600160a01b03167f8cfa048f319519100018c070f5b70ebdb10f75f14622c98ec59725c0de0f12f184846040516108819291906119df565b60405180910390a2506006549392505050565b60008181526001602052604081205460ff1680156108e557506108e5600083815481106108c3576108c3611904565b60009182526020909120600260059092020101546001600160a01b03166112d1565b15610956576109496000838154811061090057610900611904565b6000918252602082206002600590920201015481546001600160a01b0390911691908590811061093257610932611904565b906000526020600020906005020160000154610acb565b1561095657506001919050565b506000919050565b6001600160a01b03821660009081526005602090815260408083208484528252918290208054835181840281018401909452808452606093928301828280156109c657602002820191906000526020600020905b8154815260200190600101908083116109b2575b505050505090505b92915050565b600081600081815481106109ea576109ea611904565b60009182526020909120600260059092020101546001600160a01b0316610a0f61148c565b6001600160a01b031614610a36576040516354ec506360e01b815260040160405180910390fd5b6000838152600160208190526040909120805460ff1916905591505b50919050565b6001600160a01b03821660009081526003602090815260408083208484528252918290208054835181840281018401909452808452606093928301828280156109c657602002820191906000526020600020908154815260200190600101908083116109b2575050505050905092915050565b6000805b6001600160a01b038416600090815260076020526040902054811015610b48576001600160a01b0384166000908152600760205260409020805484919083908110610b1c57610b1c611904565b906000526020600020015403610b365760019150506109ce565b80610b40816119c6565b915050610acf565b5060009392505050565b60076020528160005260406000208181548110610b6e57600080fd5b90600052602060002001600091509150505481565b600080610b8e61148c565b6040805160a08101825288815260208082018981526001600160a01b0380861694840194855289811660608501908152608085018a815260008054600181018255908052865160059091027f290decd9548b62a8d60345a988386fc84ba6bc95484008f6362f93160ef3e563810191825594517f290decd9548b62a8d60345a988386fc84ba6bc95484008f6362f93160ef3e56486015596517f290decd9548b62a8d60345a988386fc84ba6bc95484008f6362f93160ef3e565850180549185166001600160a01b031992831617905591517f290decd9548b62a8d60345a988386fc84ba6bc95484008f6362f93160ef3e56685018054919094169216919091179091555180519596509294859493610ccd937f290decd9548b62a8d60345a988386fc84ba6bc95484008f6362f93160ef3e56790930192019061158b565b505060008054808252600160208181526040808520805460ff1916841790556001600160a01b03808c16808752600284528287208054808701825590885284882001869055808752600384528287208f885284528287208054808701825590885284882001869055908916808752600484528287208054808701825590885284882001869055808752600584528287208f8852845282872080549586018155875292909520909201839055905191965091925089907f4cf7b1ee8a78cfe59e2842d2cd92bcb384a03762a3fd8ca4ff5f4ab8bc435d8190610db39088908c908b90611a1b565b60405180910390a45050949350505050565b610dcd61148c565b6001600160a01b0316610de86008546001600160a01b031690565b6001600160a01b031614610e0e5760405162461bcd60e51b81526004016105489061194e565b6001600160a01b0383166000908152600760205260408120549003610e465760405163163091ab60e21b815260040160405180910390fd5b8015610e6557604051631eda577d60e11b815260040160405180910390fd5b6001600160a01b0383166000908152600760205260409020610e88908383611540565b50826001600160a01b03167f67adb3160f1b29d02eaac3d30a18ecfd19d38ea4c4777c300a6572f21918188c8383604051610ec49291906119df565b60405180910390a2505050565b60008160008181548110610ee757610ee7611904565b60009182526020909120600260059092020101546001600160a01b0316610f0c61148c565b6001600160a01b031614610f33576040516354ec506360e01b815260040160405180910390fd5b60008381548110610f4657610f46611904565b906000526020600020906005020160000154600003610f785760405163dbc9651760e01b815260040160405180910390fd5b6000838152600160205260408120805460ff19169055805460029190819086908110610fa657610fa6611904565b60009182526020808320600360059093020191909101546001600160a01b031683528201929092526040018120610fdc91611522565b60036000808581548110610ff257610ff2611904565b906000526020600020906005020160030160009054906101000a90046001600160a01b03166001600160a01b03166001600160a01b03168152602001908152602001600020600080858154811061104b5761104b611904565b906000526020600020906005020160000154815260200190815260200160002060006110779190611522565b6004600080858154811061108d5761108d611904565b60009182526020808320600260059093020191909101546001600160a01b0316835282019290925260400181206110c391611522565b600560008085815481106110d9576110d9611904565b906000526020600020906005020160020160009054906101000a90046001600160a01b03166001600160a01b03166001600160a01b03168152602001908152602001600020600080858154811061113257611132611904565b9060005260206000209060050201600001548152602001908152602001600020600061115e9190611522565b7fb61af01075e2316479704fde059a6bbcf158e61c80e12f3742f93de53b213bf2836000858154811061119357611193611904565b906000526020600020906005020160000154600086815481106111b8576111b8611904565b906000526020600020906005020160010154600087815481106111dd576111dd611904565b6000918252602082206002600590920201015481546001600160a01b0390911691908990811061120f5761120f611904565b6000918252602082206003600590920201015481546001600160a01b0390911691908a90811061124157611241611904565b906000526020600020906005020160040160405161126496959493929190611a43565b60405180910390a16000838154811061127f5761127f611904565b600091825260208220600590910201818155600181018290556002810180546001600160a01b03199081169091556003820180549091169055906112c660048301826115ff565b506001949350505050565b6000805b60065481101561133157826001600160a01b0316600682815481106112fc576112fc611904565b6000918252602090912001546001600160a01b03160361131f5750600192915050565b80611329816119c6565b9150506112d5565b50600092915050565b6001600160a01b0381166000908152600460209081526040918290208054835181840281018401909452808452606093928301828280156103b1576020028201919060005260206000209081548152602001906001019080831161039d5750505050509050919050565b6113ac61148c565b6001600160a01b03166113c76008546001600160a01b031690565b6001600160a01b0316146113ed5760405162461bcd60e51b81526004016105489061194e565b6001600160a01b0381166114525760405162461bcd60e51b815260206004820152602660248201527f4f776e61626c653a206e6577206f776e657220697320746865207a65726f206160448201526564647265737360d01b6064820152608401610548565b61145b816114d0565b50565b6006818154811061146e57600080fd5b6000918252602090912001546001600160a01b0316905081565b3390565b60007f00000000000000000000000000000000000000000000000000000000000000006001600160a01b031633036114cb575060131936013560601c90565b503390565b600880546001600160a01b038381166001600160a01b0319831681179093556040519116919082907f8be0079c531659141344cd1fd0a4f28419497f9722a3daafe3b4186f6b6457e090600090a35050565b508054600082559060005260206000209081019061145b9190611635565b82805482825590600052602060002090810192821561157b579160200282015b8281111561157b578235825591602001919060010190611560565b50611587929150611635565b5090565b8280546115979061191a565b90600052602060002090601f0160209004810192826115b9576000855561157b565b82601f106115d257805160ff191683800117855561157b565b8280016001018555821561157b579182015b8281111561157b5782518255916020019190600101906115e4565b50805461160b9061191a565b6000825580601f1061161b575050565b601f01602090049060005260206000209081019061145b91905b5b808211156115875760008155600101611636565b60006020828403121561165c57600080fd5b5035919050565b80356001600160a01b038116811461167a57600080fd5b919050565b60006020828403121561169157600080fd5b61169a82611663565b9392505050565b6020808252825182820181905260009190848201906040850190845b818110156116d9578351835292840192918401916001016116bd565b50909695505050505050565b6000815180845260005b8181101561170b576020818501810151868301820152016116ef565b8181111561171d576000602083870101525b50601f01601f19169290920160200192915050565b84815283602082015260018060a01b038316604082015260806060820152600061175f60808301846116e5565b9695505050505050565b60008060006040848603121561177e57600080fd5b61178784611663565b9250602084013567ffffffffffffffff808211156117a457600080fd5b818601915086601f8301126117b857600080fd5b8135818111156117c757600080fd5b8760208260051b85010111156117dc57600080fd5b6020830194508093505050509250925092565b6000806040838503121561180257600080fd5b61180b83611663565b946020939093013593505050565b634e487b7160e01b600052604160045260246000fd5b6000806000806080858703121561184557600080fd5b843593506020850135925061185c60408601611663565b9150606085013567ffffffffffffffff8082111561187957600080fd5b818701915087601f83011261188d57600080fd5b81358181111561189f5761189f611819565b604051601f8201601f19908116603f011681019083821181831017156118c7576118c7611819565b816040528281528a60208487010111156118e057600080fd5b82602086016020830137600060208483010152809550505050505092959194509250565b634e487b7160e01b600052603260045260246000fd5b600181811c9082168061192e57607f821691505b602082108103610a5257634e487b7160e01b600052602260045260246000fd5b6020808252818101527f4f776e61626c653a2063616c6c6572206973206e6f7420746865206f776e6572604082015260600190565b634e487b7160e01b600052601160045260246000fd5b6000828210156119ab576119ab611983565b500390565b634e487b7160e01b600052603160045260246000fd5b6000600182016119d8576119d8611983565b5060010190565b6020808252810182905260006001600160fb1b038311156119ff57600080fd5b8260051b80856040850137600092016040019182525092915050565b838152826020820152606060408201526000611a3a60608301846116e5565b95945050505050565b8681526020808201879052604082018690526001600160a01b0385811660608401528416608083015260c060a08301528254600091908290600181811c9082811680611a9057607f831692505b8583108103611aad57634e487b7160e01b85526022600452602485fd5b60c0880183905260e08801818015611acc5760018114611add57611b08565b60ff19861682528782019650611b08565b60008b81526020902060005b86811015611b0257815484820152908501908901611ae9565b83019750505b50949e9d505050505050505050505050505056fea26469706673582212208feca45cf31f25e81d57b389fef9d8fdde23ade39672e12bd6a8f21b09ce92cc64736f6c634300080e0033",
    "linkReferences": {}
  },
  "methodIdentifiers": {
    "_verifierTrustedTopics(address,uint256)": "dd5ae160",
    "_verifiers(uint256)": "f7efada2",
    "addClaim(uint256,uint256,address,string)": "ec6124b6",
    "addTrustedVerifier(address,uint256[])": "81e45bd2",
    "checkIsClaimRevoked(uint256)": "1802e548",
    "checkIsClaimValid(uint256)": "9a6a5e41",
    "checkIsVerifier(address)": "f0f40189",
    "checkIsVerifierTrustedTopic(address,uint256)": "c4460975",
    "getClaim(uint256)": "5aef2447",
    "getClaimsByIssuer(address)": "f10ab11b",
    "getClaimsBySubject(address)": "29bc2798",
    "getClaimsIssuerTopic(address,uint256)": "9c9ec942",
    "getClaimsSubjectTopic(address,uint256)": "c2737065",
    "isTrustedForwarder(address)": "572b6c05",
    "owner()": "8da5cb5b",
    "removeClaim(uint256)": "ef2f8787",
    "removeTrustedVerifier(address)": "801d2cf1",
    "renounceOwnership()": "715018a6",
    "revokeClaim(uint256)": "c21d89dd",
    "transferOwnership(address)": "f2fde38b",
    "updateVerifierClaimTopics(address,uint256[])": "ecccf27b"
  },
  "id": 12
}