{
  "abi": [
    {
      "anonymous": false,
      "inputs": [
        {
          "indexed": false,
          "internalType": "uint256",
          "name": "newValue",
          "type": "uint256"
        }
      ],
      "name": "ValueChanged",
      "type": "event"
    },
    {
      "inputs": [],
      "name": "getValue",
      "outputs": [
        {
          "internalType": "uint256",
          "name": "",
          "type": "uint256"
        }
      ],
      "stateMutability": "view",
      "type": "function"
    },
    {
      "inputs": [
        {
          "internalType": "uint256",
          "name": "newValue",
          "type": "uint256"
        }
      ],
      "name": "store",
      "outputs": [],
      "stateMutability": "nonpayable",
      "type": "function"
    },
    {
      "inputs": [
        {
          "internalType": "uint256",
          "name": "",
          "type": "uint256"
        }
      ],
      "name": "storedValues",
      "outputs": [
        {
          "internalType": "uint256",
          "name": "",
          "type": "uint256"
        }
      ],
      "stateMutability": "view",
      "type": "function"
    },
    {
      "inputs": [],
      "name": "value",
      "outputs": [
        {
          "internalType": "uint256",
          "name": "",
          "type": "uint256"
        }
      ],
      "stateMutability": "view",
      "type": "function"
    }
  ],
  "bytecode": {
    "object": "0x608060405234801561001057600080fd5b50610174806100206000396000f3fe608060405234801561001057600080fd5b506004361061004c5760003560e01c806320965255146100515780633fa4f245146100675780636057361d146100705780639e258efe14610085575b600080fd5b6000545b60405190815260200160405180910390f35b61005560005481565b61008361007e366004610125565b610098565b005b610055610093366004610125565b610104565b60018054808201825560009182527fb10e2d527612073b26eecdfd717e6a320cf44b4afac2b0732d9fcbe2b7fa0cf6018290558190556040518181527f93fe6d397c74fdf1402a8b72e47b68512f0510d7b98a4bc4cbdf6ac7108b3c599060200160405180910390a150565b6001818154811061011457600080fd5b600091825260209091200154905081565b60006020828403121561013757600080fd5b503591905056fea264697066735822122081536668b94ddbd4704bdb28e8711ad9ba83f30d16950bcfebdc30c61f0b6b7d64736f6c634300080e0033",
    "linkReferences": {}
  },
  "methodIdentifiers": {
    "getValue()": "20965255",
    "store(uint256)": "6057361d",
    "storedValues(uint256)": "9e258efe",
    "value()": "3fa4f245"
  },
  "id": 22
}