{
  "abi": [
    {
      "inputs": [
        {
          "internalType": "address",
          "name": "paymentToken",
          "type": "address"
        },
        {
          "internalType": "uint8",
          "name": "txFeePercentage",
          "type": "uint8"
        }
      ],
      "stateMutability": "nonpayable",
      "type": "constructor"
    },
    {
      "anonymous": false,
      "inputs": [
        {
          "indexed": true,
          "internalType": "address",
          "name": "previousOwner",
          "type": "address"
        },
        {
          "indexed": true,
          "internalType": "address",
          "name": "newOwner",
          "type": "address"
        }
      ],
      "name": "OwnershipTransferred",
      "type": "event"
    },
    {
      "inputs": [
        {
          "components": [
            {
              "internalType": "address",
              "name": "from",
              "type": "address"
            },
            {
              "internalType": "address",
              "name": "to",
              "type": "address"
            },
            {
              "internalType": "uint256",
              "name": "value",
              "type": "uint256"
            },
            {
              "internalType": "uint256",
              "name": "gas",
              "type": "uint256"
            },
            {
              "internalType": "uint256",
              "name": "nonce",
              "type": "uint256"
            },
            {
              "internalType": "bytes",
              "name": "data",
              "type": "bytes"
            }
          ],
          "internalType": "struct MinimalForwarder.ForwardRequest",
          "name": "req",
          "type": "tuple"
        },
        {
          "internalType": "bytes",
          "name": "signature",
          "type": "bytes"
        }
      ],
      "name": "execute",
      "outputs": [
        {
          "internalType": "bool",
          "name": "",
          "type": "bool"
        },
        {
          "internalType": "bytes",
          "name": "",
          "type": "bytes"
        }
      ],
      "stateMutability": "payable",
      "type": "function"
    },
    {
      "inputs": [
        {
          "internalType": "address",
          "name": "from",
          "type": "address"
        }
      ],
      "name": "getNonce",
      "outputs": [
        {
          "internalType": "uint256",
          "name": "",
          "type": "uint256"
        }
      ],
      "stateMutability": "view",
      "type": "function"
    },
    {
      "inputs": [],
      "name": "owner",
      "outputs": [
        {
          "internalType": "address",
          "name": "",
          "type": "address"
        }
      ],
      "stateMutability": "view",
      "type": "function"
    },
    {
      "inputs": [],
      "name": "renounceOwnership",
      "outputs": [],
      "stateMutability": "nonpayable",
      "type": "function"
    },
    {
      "inputs": [
        {
          "internalType": "address",
          "name": "paymentToken",
          "type": "address"
        }
      ],
      "name": "setProtocolToken",
      "outputs": [],
      "stateMutability": "nonpayable",
      "type": "function"
    },
    {
      "inputs": [
        {
          "internalType": "uint8",
          "name": "txFeePercentage",
          "type": "uint8"
        }
      ],
      "name": "setTxFeePercentage",
      "outputs": [],
      "stateMutability": "nonpayable",
      "type": "function"
    },
    {
      "inputs": [
        {
          "internalType": "address",
          "name": "newOwner",
          "type": "address"
        }
      ],
      "name": "transferOwnership",
      "outputs": [],
      "stateMutability": "nonpayable",
      "type": "function"
    },
    {
      "inputs": [
        {
          "components": [
            {
              "internalType": "address",
              "name": "from",
              "type": "address"
            },
            {
              "internalType": "address",
              "name": "to",
              "type": "address"
            },
            {
              "internalType": "uint256",
              "name": "value",
              "type": "uint256"
            },
            {
              "internalType": "uint256",
              "name": "gas",
              "type": "uint256"
            },
            {
              "internalType": "uint256",
              "name": "nonce",
              "type": "uint256"
            },
            {
              "internalType": "bytes",
              "name": "data",
              "type": "bytes"
            }
          ],
          "internalType": "struct MinimalForwarder.ForwardRequest",
          "name": "req",
          "type": "tuple"
        },
        {
          "internalType": "bytes",
          "name": "signature",
          "type": "bytes"
        }
      ],
      "name": "verify",
      "outputs": [
        {
          "internalType": "bool",
          "name": "",
          "type": "bool"
        }
      ],
      "stateMutability": "view",
      "type": "function"
    }
  ],
  "bytecode": {
    "object": "0x61014060405234801561001157600080fd5b5060405161108e38038061108e833981016040819052610030916101bd565b604080518082018252601081526f26b4b734b6b0b62337b93bb0b93232b960811b602080830191825283518085019094526005845264302e302e3160d81b908401528151902060e08190527fae209a0b48f21c054280f2455d32cf309387644879d9acbd8ffc1991638118856101008190524660a0529192917f8b73c3c69bb8fe3d512ecc4cf759cc79239f7b179b0ffacaa9a75d522b39400f6101198184846040805160208101859052908101839052606081018290524660808201523060a082015260009060c0016040516020818303038152906040528051906020012090509392505050565b6080523060c052610120525061013992506101349150503390565b61016b565b6002805460ff909216600160a01b026001600160a81b03199092166001600160a01b0390931692909217179055610209565b600180546001600160a01b038381166001600160a01b0319831681179093556040519116919082907f8be0079c531659141344cd1fd0a4f28419497f9722a3daafe3b4186f6b6457e090600090a35050565b600080604083850312156101d057600080fd5b82516001600160a01b03811681146101e757600080fd5b602084015190925060ff811681146101fe57600080fd5b809150509250929050565b60805160a05160c05160e0516101005161012051610e36610258600039600061078f015260006107de015260006107b9015260006107120152600061073c015260006107660152610e366000f3fe60806040526004361061007b5760003560e01c8063715018a61161004e578063715018a61461012c5780638da5cb5b14610141578063bf5d3bdb14610169578063f2fde38b1461019957600080fd5b80632d0335ab146100805780633967f87e146100c957806347153f82146100eb57806356d229b01461010c575b600080fd5b34801561008c57600080fd5b506100b661009b366004610b76565b6001600160a01b031660009081526020819052604090205490565b6040519081526020015b60405180910390f35b3480156100d557600080fd5b506100e96100e4366004610ba6565b6101b9565b005b6100fe6100f9366004610bc9565b61020c565b6040516100c0929190610c98565b34801561011857600080fd5b506100e9610127366004610b76565b6103a0565b34801561013857600080fd5b506100e96103ec565b34801561014d57600080fd5b506001546040516001600160a01b0390911681526020016100c0565b34801561017557600080fd5b50610189610184366004610bc9565b610422565b60405190151581526020016100c0565b3480156101a557600080fd5b506100e96101b4366004610b76565b6105a0565b6001546001600160a01b031633146101ec5760405162461bcd60e51b81526004016101e390610cd4565b60405180910390fd5b6002805460ff909216600160a01b0260ff60a01b19909216919091179055565b6000606061021b858585610422565b6102825760405162461bcd60e51b815260206004820152603260248201527f4d696e696d616c466f727761726465723a207369676e617475726520646f6573604482015271081b9bdd081b585d18da081c995c5d595cdd60721b60648201526084016101e3565b61029160808601356001610d09565b6000806102a16020890189610b76565b6001600160a01b03166001600160a01b03168152602001908152602001600020819055506000808660200160208101906102db9190610b76565b6001600160a01b0316606088013560408901356102fb60a08b018b610d2f565b61030860208d018d610b76565b60405160200161031a93929190610d76565b60408051601f198184030181529082905261033491610d9c565b600060405180830381858888f193505050503d8060008114610372576040519150601f19603f3d011682016040523d82523d6000602084013e610377565b606091505b50909250905061038c603f6060890135610db8565b5a1161039457fe5b90969095509350505050565b6001546001600160a01b031633146103ca5760405162461bcd60e51b81526004016101e390610cd4565b600280546001600160a01b0319166001600160a01b0392909216919091179055565b6001546001600160a01b031633146104165760405162461bcd60e51b81526004016101e390610cd4565b610420600061063b565b565b60008061053584848080601f01602080910402602001604051908101604052809392919081815260200183838082843760009201919091525061052f92507fdd8f4b70b0f4393e889bd39128a30628a78b61816a9eb8199759e7a349657e489150610492905060208a018a610b76565b6104a260408b0160208c01610b76565b60408b013560608c013560808d01356104be60a08f018f610d2f565b6040516104cc929190610dda565b6040805191829003822060208301989098526001600160a01b0396871690820152949093166060850152608084019190915260a083015260c082015260e0810191909152610100016040516020818303038152906040528051906020012061068d565b906106e1565b9050608085013560008061054c6020890189610b76565b6001600160a01b03166001600160a01b031681526020019081526020016000205414801561059757506105826020860186610b76565b6001600160a01b0316816001600160a01b0316145b95945050505050565b6001546001600160a01b031633146105ca5760405162461bcd60e51b81526004016101e390610cd4565b6001600160a01b03811661062f5760405162461bcd60e51b815260206004820152602660248201527f4f776e61626c653a206e6577206f776e657220697320746865207a65726f206160448201526564647265737360d01b60648201526084016101e3565b6106388161063b565b50565b600180546001600160a01b038381166001600160a01b0319831681179093556040519116919082907f8be0079c531659141344cd1fd0a4f28419497f9722a3daafe3b4186f6b6457e090600090a35050565b60006106db61069a610705565b8360405161190160f01b6020820152602281018390526042810182905260009060620160405160208183030381529060405280519060200120905092915050565b92915050565b60008060006106f0858561082c565b915091506106fd8161089a565b509392505050565b6000306001600160a01b037f00000000000000000000000000000000000000000000000000000000000000001614801561075e57507f000000000000000000000000000000000000000000000000000000000000000046145b1561078857507f000000000000000000000000000000000000000000000000000000000000000090565b50604080517f00000000000000000000000000000000000000000000000000000000000000006020808301919091527f0000000000000000000000000000000000000000000000000000000000000000828401527f000000000000000000000000000000000000000000000000000000000000000060608301524660808301523060a0808401919091528351808403909101815260c0909201909252805191012090565b60008082516041036108625760208301516040840151606085015160001a61085687828585610a50565b94509450505050610893565b825160400361088b5760208301516040840151610880868383610b3d565b935093505050610893565b506000905060025b9250929050565b60008160048111156108ae576108ae610dea565b036108b65750565b60018160048111156108ca576108ca610dea565b036109175760405162461bcd60e51b815260206004820152601860248201527f45434453413a20696e76616c6964207369676e6174757265000000000000000060448201526064016101e3565b600281600481111561092b5761092b610dea565b036109785760405162461bcd60e51b815260206004820152601f60248201527f45434453413a20696e76616c6964207369676e6174757265206c656e6774680060448201526064016101e3565b600381600481111561098c5761098c610dea565b036109e45760405162461bcd60e51b815260206004820152602260248201527f45434453413a20696e76616c6964207369676e6174757265202773272076616c604482015261756560f01b60648201526084016101e3565b60048160048111156109f8576109f8610dea565b036106385760405162461bcd60e51b815260206004820152602260248201527f45434453413a20696e76616c6964207369676e6174757265202776272076616c604482015261756560f01b60648201526084016101e3565b6000807f7fffffffffffffffffffffffffffffff5d576e7357a4501ddfe92f46681b20a0831115610a875750600090506003610b34565b8460ff16601b14158015610a9f57508460ff16601c14155b15610ab05750600090506004610b34565b6040805160008082526020820180845289905260ff881692820192909252606081018690526080810185905260019060a0016020604051602081039080840390855afa158015610b04573d6000803e3d6000fd5b5050604051601f1901519150506001600160a01b038116610b2d57600060019250925050610b34565b9150600090505b94509492505050565b6000806001600160ff1b03831681610b5a60ff86901c601b610d09565b9050610b6887828885610a50565b935093505050935093915050565b600060208284031215610b8857600080fd5b81356001600160a01b0381168114610b9f57600080fd5b9392505050565b600060208284031215610bb857600080fd5b813560ff81168114610b9f57600080fd5b600080600060408486031215610bde57600080fd5b833567ffffffffffffffff80821115610bf657600080fd5b9085019060c08288031215610c0a57600080fd5b90935060208501359080821115610c2057600080fd5b818601915086601f830112610c3457600080fd5b813581811115610c4357600080fd5b876020828501011115610c5557600080fd5b6020830194508093505050509250925092565b60005b83811015610c83578181015183820152602001610c6b565b83811115610c92576000848401525b50505050565b82151581526040602082015260008251806040840152610cbf816060850160208701610c68565b601f01601f1916919091016060019392505050565b6020808252818101527f4f776e61626c653a2063616c6c6572206973206e6f7420746865206f776e6572604082015260600190565b60008219821115610d2a57634e487b7160e01b600052601160045260246000fd5b500190565b6000808335601e19843603018112610d4657600080fd5b83018035915067ffffffffffffffff821115610d6157600080fd5b60200191503681900382131561089357600080fd5b8284823760609190911b6bffffffffffffffffffffffff19169101908152601401919050565b60008251610dae818460208701610c68565b9190910192915050565b600082610dd557634e487b7160e01b600052601260045260246000fd5b500490565b8183823760009101908152919050565b634e487b7160e01b600052602160045260246000fdfea2646970667358221220ed029733342ff58881c6a45fe622cefe5acf230a3a51897672dddbf7b3bed22b64736f6c634300080e0033",
    "linkReferences": {}
  },
  "methodIdentifiers": {
    "execute((address,address,uint256,uint256,uint256,bytes),bytes)": "47153f82",
    "getNonce(address)": "2d0335ab",
    "owner()": "8da5cb5b",
    "renounceOwnership()": "715018a6",
    "setProtocolToken(address)": "56d229b0",
    "setTxFeePercentage(uint8)": "3967f87e",
    "transferOwnership(address)": "f2fde38b",
    "verify((address,address,uint256,uint256,uint256,bytes),bytes)": "bf5d3bdb"
  },
  "id": 30
}