{
  "abi": [
    {
      "inputs": [
        {
          "internalType": "address",
          "name": "forwarder",
          "type": "address"
        }
      ],
      "stateMutability": "nonpayable",
      "type": "constructor"
    },
    {
      "inputs": [],
      "name": "KeyApproved",
      "type": "error"
    },
    {
      "inputs": [],
      "name": "KeyDoesNotExist",
      "type": "error"
    },
    {
      "inputs": [],
      "name": "KeyExists",
      "type": "error"
    },
    {
      "inputs": [],
      "name": "KeyNotApproved",
      "type": "error"
    },
    {
      "inputs": [],
      "name": "KeyRequirementInvalid",
      "type": "error"
    },
    {
      "inputs": [],
      "name": "KeyZeroAddress",
      "type": "error"
    },
    {
      "inputs": [],
      "name": "OnlyThis",
      "type": "error"
    },
    {
      "inputs": [],
      "name": "TransactionArrayUnequal",
      "type": "error"
    },
    {
      "inputs": [],
      "name": "TransactionEmpty",
      "type": "error"
    },
    {
      "inputs": [],
      "name": "TransactionExecuted",
      "type": "error"
    },
    {
      "inputs": [],
      "name": "TransactionExists",
      "type": "error"
    },
    {
      "inputs": [],
      "name": "TransactionNotPending",
      "type": "error"
    },
    {
      "anonymous": false,
      "inputs": [
        {
          "indexed": true,
          "internalType": "address",
          "name": "sender",
          "type": "address"
        },
        {
          "indexed": true,
          "internalType": "uint256",
          "name": "transactionId",
          "type": "uint256"
        }
      ],
      "name": "Approved",
      "type": "event"
    },
    {
      "anonymous": false,
      "inputs": [
        {
          "indexed": true,
          "internalType": "uint256",
          "name": "executionId",
          "type": "uint256"
        },
        {
          "indexed": true,
          "internalType": "address[]",
          "name": "to",
          "type": "address[]"
        },
        {
          "indexed": true,
          "internalType": "uint256[]",
          "name": "value",
          "type": "uint256[]"
        },
        {
          "indexed": false,
          "internalType": "bytes[]",
          "name": "data",
          "type": "bytes[]"
        }
      ],
      "name": "Cancelled",
      "type": "event"
    },
    {
      "anonymous": false,
      "inputs": [
        {
          "indexed": true,
          "internalType": "uint256",
          "name": "executionId",
          "type": "uint256"
        },
        {
          "indexed": true,
          "internalType": "address[]",
          "name": "to",
          "type": "address[]"
        },
        {
          "indexed": true,
          "internalType": "uint256[]",
          "name": "value",
          "type": "uint256[]"
        },
        {
          "indexed": false,
          "internalType": "bytes[]",
          "name": "data",
          "type": "bytes[]"
        }
      ],
      "name": "Executed",
      "type": "event"
    },
    {
      "anonymous": false,
      "inputs": [
        {
          "indexed": true,
          "internalType": "uint256",
          "name": "transactionId",
          "type": "uint256"
        }
      ],
      "name": "ExecutionFailure",
      "type": "event"
    },
    {
      "anonymous": false,
      "inputs": [
        {
          "indexed": true,
          "internalType": "address",
          "name": "key",
          "type": "address"
        }
      ],
      "name": "KeyAdded",
      "type": "event"
    },
    {
      "anonymous": false,
      "inputs": [
        {
          "indexed": true,
          "internalType": "address",
          "name": "key",
          "type": "address"
        }
      ],
      "name": "KeyRemoved",
      "type": "event"
    },
    {
      "anonymous": false,
      "inputs": [
        {
          "indexed": false,
          "internalType": "uint256",
          "name": "requirement",
          "type": "uint256"
        }
      ],
      "name": "RequirementChange",
      "type": "event"
    },
    {
      "anonymous": false,
      "inputs": [
        {
          "indexed": true,
          "internalType": "address",
          "name": "sender",
          "type": "address"
        },
        {
          "indexed": true,
          "internalType": "uint256",
          "name": "transactionId",
          "type": "uint256"
        }
      ],
      "name": "Revoked",
      "type": "event"
    },
    {
      "anonymous": false,
      "inputs": [
        {
          "indexed": true,
          "internalType": "uint256",
          "name": "executionId",
          "type": "uint256"
        },
        {
          "indexed": true,
          "internalType": "address[]",
          "name": "to",
          "type": "address[]"
        },
        {
          "indexed": true,
          "internalType": "uint256[]",
          "name": "value",
          "type": "uint256[]"
        },
        {
          "indexed": false,
          "internalType": "bytes[]",
          "name": "data",
          "type": "bytes[]"
        }
      ],
      "name": "Submitted",
      "type": "event"
    },
    {
      "inputs": [
        {
          "internalType": "uint256",
          "name": "",
          "type": "uint256"
        }
      ],
      "name": "_keys",
      "outputs": [
        {
          "internalType": "address",
          "name": "",
          "type": "address"
        }
      ],
      "stateMutability": "view",
      "type": "function"
    },
    {
      "inputs": [
        {
          "internalType": "address",
          "name": "key",
          "type": "address"
        }
      ],
      "name": "addKey",
      "outputs": [],
      "stateMutability": "nonpayable",
      "type": "function"
    },
    {
      "inputs": [
        {
          "internalType": "uint256",
          "name": "txHash",
          "type": "uint256"
        }
      ],
      "name": "approve",
      "outputs": [],
      "stateMutability": "nonpayable",
      "type": "function"
    },
    {
      "inputs": [
        {
          "internalType": "uint256",
          "name": "txHash",
          "type": "uint256"
        }
      ],
      "name": "checkIsApproved",
      "outputs": [
        {
          "internalType": "bool",
          "name": "",
          "type": "bool"
        }
      ],
      "stateMutability": "view",
      "type": "function"
    },
    {
      "inputs": [
        {
          "internalType": "uint256",
          "name": "txHash",
          "type": "uint256"
        }
      ],
      "name": "checkTransactionExists",
      "outputs": [
        {
          "internalType": "bool",
          "name": "",
          "type": "bool"
        }
      ],
      "stateMutability": "view",
      "type": "function"
    },
    {
      "inputs": [
        {
          "internalType": "uint256",
          "name": "txHash",
          "type": "uint256"
        }
      ],
      "name": "execute",
      "outputs": [],
      "stateMutability": "payable",
      "type": "function"
    },
    {
      "inputs": [
        {
          "internalType": "uint256",
          "name": "txHash",
          "type": "uint256"
        }
      ],
      "name": "getApprovalCount",
      "outputs": [
        {
          "internalType": "uint8",
          "name": "approvalCount",
          "type": "uint8"
        }
      ],
      "stateMutability": "view",
      "type": "function"
    },
    {
      "inputs": [
        {
          "internalType": "uint256",
          "name": "txHash",
          "type": "uint256"
        }
      ],
      "name": "getApprovals",
      "outputs": [
        {
          "internalType": "address[]",
          "name": "approvalsByTransaction",
          "type": "address[]"
        }
      ],
      "stateMutability": "view",
      "type": "function"
    },
    {
      "inputs": [],
      "name": "getExecutedTransactions",
      "outputs": [
        {
          "internalType": "uint256[]",
          "name": "",
          "type": "uint256[]"
        }
      ],
      "stateMutability": "nonpayable",
      "type": "function"
    },
    {
      "inputs": [],
      "name": "getExpiryPeriod",
      "outputs": [
        {
          "internalType": "uint256",
          "name": "",
          "type": "uint256"
        }
      ],
      "stateMutability": "view",
      "type": "function"
    },
    {
      "inputs": [],
      "name": "getKeys",
      "outputs": [
        {
          "internalType": "address[]",
          "name": "",
          "type": "address[]"
        }
      ],
      "stateMutability": "view",
      "type": "function"
    },
    {
      "inputs": [],
      "name": "getMaxKeyCount",
      "outputs": [
        {
          "internalType": "uint256",
          "name": "",
          "type": "uint256"
        }
      ],
      "stateMutability": "view",
      "type": "function"
    },
    {
      "inputs": [],
      "name": "getPendingTransaction",
      "outputs": [
        {
          "internalType": "uint256[]",
          "name": "",
          "type": "uint256[]"
        }
      ],
      "stateMutability": "nonpayable",
      "type": "function"
    },
    {
      "inputs": [],
      "name": "getPendingTransactions",
      "outputs": [
        {
          "internalType": "uint256[]",
          "name": "",
          "type": "uint256[]"
        }
      ],
      "stateMutability": "nonpayable",
      "type": "function"
    },
    {
      "inputs": [
        {
          "internalType": "uint256",
          "name": "txHash",
          "type": "uint256"
        }
      ],
      "name": "getTransaction",
      "outputs": [
        {
          "internalType": "bool",
          "name": "exists",
          "type": "bool"
        },
        {
          "internalType": "uint64",
          "name": "submitted",
          "type": "uint64"
        },
        {
          "internalType": "uint64",
          "name": "expires",
          "type": "uint64"
        },
        {
          "internalType": "address[]",
          "name": "targets",
          "type": "address[]"
        },
        {
          "internalType": "uint256[]",
          "name": "values",
          "type": "uint256[]"
        },
        {
          "internalType": "bytes[]",
          "name": "calldatas",
          "type": "bytes[]"
        },
        {
          "internalType": "uint256",
          "name": "status",
          "type": "uint256"
        }
      ],
      "stateMutability": "view",
      "type": "function"
    },
    {
      "inputs": [
        {
          "internalType": "address[]",
          "name": "targets",
          "type": "address[]"
        },
        {
          "internalType": "uint256[]",
          "name": "values",
          "type": "uint256[]"
        },
        {
          "internalType": "bytes[]",
          "name": "calldatas",
          "type": "bytes[]"
        }
      ],
      "name": "getTransactionHash",
      "outputs": [
        {
          "internalType": "uint256",
          "name": "",
          "type": "uint256"
        }
      ],
      "stateMutability": "view",
      "type": "function"
    },
    {
      "inputs": [
        {
          "internalType": "address",
          "name": "forwarder",
          "type": "address"
        }
      ],
      "name": "isTrustedForwarder",
      "outputs": [
        {
          "internalType": "bool",
          "name": "",
          "type": "bool"
        }
      ],
      "stateMutability": "view",
      "type": "function"
    },
    {
      "inputs": [
        {
          "internalType": "address",
          "name": "key",
          "type": "address"
        }
      ],
      "name": "removeKey",
      "outputs": [],
      "stateMutability": "nonpayable",
      "type": "function"
    },
    {
      "inputs": [
        {
          "internalType": "address",
          "name": "key",
          "type": "address"
        },
        {
          "internalType": "address",
          "name": "newKey",
          "type": "address"
        }
      ],
      "name": "replaceKey",
      "outputs": [],
      "stateMutability": "nonpayable",
      "type": "function"
    },
    {
      "inputs": [
        {
          "internalType": "uint256",
          "name": "txHash",
          "type": "uint256"
        }
      ],
      "name": "revokeApproval",
      "outputs": [],
      "stateMutability": "nonpayable",
      "type": "function"
    },
    {
      "inputs": [
        {
          "internalType": "uint8",
          "name": "required",
          "type": "uint8"
        }
      ],
      "name": "setRequirement",
      "outputs": [],
      "stateMutability": "nonpayable",
      "type": "function"
    },
    {
      "inputs": [
        {
          "internalType": "address[]",
          "name": "targets",
          "type": "address[]"
        },
        {
          "internalType": "uint256[]",
          "name": "values",
          "type": "uint256[]"
        },
        {
          "internalType": "bytes[]",
          "name": "calldatas",
          "type": "bytes[]"
        }
      ],
      "name": "submit",
      "outputs": [
        {
          "internalType": "uint256",
          "name": "txHash",
          "type": "uint256"
        }
      ],
      "stateMutability": "nonpayable",
      "type": "function"
    }
  ],
  "bytecode": {
    "object": "0x60a06040526004805460ff191660081790553480156200001e57600080fd5b50604051620026b8380380620026b883398101604081905262000041916200010b565b6001600160a01b03811660805260066200005a620000ca565b815460018082018455600093845260209093200180546001600160a01b0319166001600160a01b03929092169190911790556006546200009b91906200013d565b60076000620000a9620000ca565b6001600160a01b031681526020810191909152604001600020555062000163565b6080516000906001600160a01b03163303620000ed575060131936013560601c90565b620001026200010760201b6200134e1760201c565b905090565b3390565b6000602082840312156200011e57600080fd5b81516001600160a01b03811681146200013657600080fd5b9392505050565b6000828210156200015e57634e487b7160e01b600052601160045260246000fd5b500390565b6080516125326200018660003960008181610203015261135601526125326000f3fe6080604052600436106101355760003560e01c8063b1e130fc116100ab578063bf6b0a861161006f578063bf6b0a86146103ce578063d11db83f14610191578063e6a6d4c8146103ee578063ea39ddd814610403578063f62a7a4414610423578063fe0d94c11461043b57600080fd5b8063b1e130fc1461031d578063b53ea1b61461033d578063b759f9541461035d578063ba7e7cab1461037d578063be2f5f52146103af57600080fd5b80635f7b68be116100fd5780635f7b68be14610233578063669187ac1461025557806369e7849914610275578063a4e360c814610295578063aad59c2c146102b5578063ac6bc327146102e557600080fd5b806304ad76501461013a5780632150c5181461016f57806332a85b3e1461019157806333ea3dc8146101b3578063572b6c05146101e6575b600080fd5b34801561014657600080fd5b5061015a610155366004611c93565b61044e565b60405190151581526020015b60405180910390f35b34801561017b57600080fd5b50610184610479565b6040516101669190611cf0565b34801561019d57600080fd5b506101a66104db565b6040516101669190611d33565b3480156101bf57600080fd5b506101d36101ce366004611c93565b610555565b6040516101669796959493929190611df3565b3480156101f257600080fd5b5061015a610201366004611e79565b7f00000000000000000000000000000000000000000000000000000000000000006001600160a01b0390811691161490565b34801561023f57600080fd5b5061025361024e366004611e79565b610761565b005b34801561026157600080fd5b50610253610270366004611e94565b6108e5565b34801561028157600080fd5b50610253610290366004611e79565b6109a9565b3480156102a157600080fd5b506101846102b0366004611c93565b610b28565b3480156102c157600080fd5b5061015a6102d0366004611c93565b60009081526002602052604090205460ff1690565b3480156102f157600080fd5b50610305610300366004611c93565b610d06565b6040516001600160a01b039091168152602001610166565b34801561032957600080fd5b50610253610338366004611c93565b610d30565b34801561034957600080fd5b50610253610358366004611eb7565b610e87565b34801561036957600080fd5b50610253610378366004611c93565b610f45565b34801561038957600080fd5b5061039d610398366004611c93565b6110a8565b60405160ff9091168152602001610166565b3480156103bb57600080fd5b506001545b604051908152602001610166565b3480156103da57600080fd5b506103c06103e93660046120a1565b61112e565b3480156103fa57600080fd5b506101a6611168565b34801561040f57600080fd5b506103c061041e3660046120a1565b611175565b34801561042f57600080fd5b5060045460ff166103c0565b610253610449366004611c93565b6111ff565b6000610459826110a8565b60ff166005541161046c57506001919050565b506000919050565b919050565b606060068054806020026020016040519081016040528092919081815260200182805480156104d157602002820191906000526020600020905b81546001600160a01b031681526001909101906020018083116104b3575b5050505050905090565b606060036000805b60038111156104f4576104f4612184565b81526020019081526020016000208054806020026020016040519081016040528092919081815260200182805480156104d157602002820191906000526020600020905b815481526020019060010190808311610538575050505050905090565b600081815260026020908152604080832080546001909101805483518186028101860190945280845260ff8316956001600160401b036101008504811696600160481b90950416946060948594859490918301828280156105df57602002820191906000526020600020905b81546001600160a01b031681526001909101906020018083116105c1575b505050505093506002600089815260200190815260200160002060020180548060200260200160405190810160405280929190818152602001828054801561064657602002820191906000526020600020905b815481526020019060010190808311610632575b50505060008b815260026020908152604080832060030180548251818502810185019093528083529699509095909450925084015b8282101561072757838290600052602060002001805461069a9061219a565b80601f01602080910402602001604051908101604052809291908181526020018280546106c69061219a565b80156107135780601f106106e857610100808354040283529160200191610713565b820191906000526020600020905b8154815290600101906020018083116106f657829003601f168201915b50505050508152602001906001019061067b565b50505060008a8152600260205260409020600401549193505060ff16600381111561075457610754612184565b9050919395979092949650565b3061076a611352565b6001600160a01b03161461079157604051637c6c558760e11b815260040160405180910390fd5b6001600160a01b038116600090815260086020526040902054819060ff16156107cd5760405163adb8cab560e01b815260040160405180910390fd5b816001600160a01b0381166107f557604051632adfb71160e01b815260040160405180910390fd5b6006546108039060016121e4565b60065460045460ff1611158061081e575060065460ff821610155b8061082a575060ff8116155b806108355750600654155b1561085357604051634c47aba160e01b815260040160405180910390fd5b6006805460018082019092557ff652222313e28459528d920b65115c16c04f3efc82aaedc97be59f3f377c0d3f0180546001600160a01b0319166001600160a01b038716908117909155600081815260086020526040808220805460ff1916909417909355915190917f654abba5d3170185ed25c9b41f7d2094db3643986b05e9e9cab37028b800ad7e91a250505050565b306108ee611352565b6001600160a01b03161461091557604051637c6c558760e11b815260040160405180910390fd5b600654600454829160ff909116111580610934575060065460ff821610155b80610940575060ff8116155b8061094b5750600654155b1561096957604051634c47aba160e01b815260040160405180910390fd5b60ff821660058190556040519081527fa3f1ee9126a074d9326c682f561767f710e927faa811f7a99829d49dc421797a9060200160405180910390a15050565b306109b2611352565b6001600160a01b0316146109d957604051637c6c558760e11b815260040160405180910390fd5b6001600160a01b038116600090815260086020526040902054819060ff16610a145760405163395ed8c160e21b815260040160405180910390fd5b600654610a23906001906121fc565b600110610a775760405162461bcd60e51b815260206004820181905260248201527f4879706572626173653a2043616e6e6f742068617665207a65726f206b65797360448201526064015b60405180910390fd5b6005546006541015610a9657600654610a9690610270906001906121fc565b6001600160a01b038216600090815260076020526040902054600680549091908110610ac457610ac4612213565b6000918252602080832090910180546001600160a01b03191690556001600160a01b03841680835260089091526040808320805460ff191690555190917fd2b2d9609b634ccc6f93482de9f8431ec6222fed4fa3cfca3b2a7e1a96a924ae91a25050565b6006546060906000906001600160401b03811115610b4857610b48611eea565b604051908082528060200260200182016040528015610b71578160200160208202803683370190505b5090506000805b600654811015610c525760008581526009602052604081206006805491929184908110610ba757610ba7612213565b60009182526020808320909101546001600160a01b0316835282019290925260400190205460ff1615610c405760068181548110610be757610be7612213565b9060005260206000200160009054906101000a90046001600160a01b0316838360ff1681518110610c1a57610c1a612213565b6001600160a01b039092166020928302919091019091015281610c3c81612229565b9250505b80610c4a81612248565b915050610b78565b508060ff166001600160401b03811115610c6e57610c6e611eea565b604051908082528060200260200182016040528015610c97578160200160208202803683370190505b50925060005b8160ff16811015610cfe57828181518110610cba57610cba612213565b6020026020010151848281518110610cd457610cd4612213565b6001600160a01b039092166020928302919091019091015280610cf681612248565b915050610c9d565b505050919050565b60068181548110610d1657600080fd5b6000918252602090912001546001600160a01b0316905081565b610d38611352565b6001600160a01b03811660009081526008602052604090205460ff16610d715760405163395ed8c160e21b815260040160405180910390fd5b81610d7a611352565b60008281526009602090815260408083206001600160a01b038516845290915290205460ff16610dbd576040516315ed6d0560e11b815260040160405180910390fd5b836000808281526002602052604090206004015460ff166003811115610de557610de5612184565b14610e03576040516382235d5360e01b815260040160405180910390fd5b600085815260096020526040812081610e1a611352565b6001600160a01b031681526020810191909152604001600020805460ff191691151591909117905584610e4b611352565b6001600160a01b03167f713b90881ad62c4fa8ab6bd9197fa86481fc0c11b2edba60026514281b2dbac460405160405180910390a35050505050565b30610e90611352565b6001600160a01b031614610eb757604051637c6c558760e11b815260040160405180910390fd5b6001600160a01b038216600090815260086020526040902054829060ff16610ef25760405163395ed8c160e21b815260040160405180910390fd5b6001600160a01b038216600090815260086020526040902054829060ff16610f2d5760405163395ed8c160e21b815260040160405180910390fd5b610f3683610761565b610f3f846109a9565b50505050565b610f4d611352565b6001600160a01b03811660009081526008602052604090205460ff16610f865760405163395ed8c160e21b815260040160405180910390fd5b81610f8f611352565b60008281526009602090815260408083206001600160a01b038516845290915290205460ff1615610fd35760405163bfc0046360e01b815260040160405180910390fd5b836000808281526002602052604090206004015460ff166003811115610ffb57610ffb612184565b14611019576040516382235d5360e01b815260040160405180910390fd5b6000858152600960205260408120600191611032611352565b6001600160a01b031681526020810191909152604001600020805460ff191691151591909117905584611063611352565b6001600160a01b03167ff13bfe0b6ec5df39265dccb0a01a09aa4162489c7a083dc6670bde0255d02ca760405160405180910390a36110a1856111ff565b5050505050565b6000805b60065481101561112857600083815260096020526040812060068054919291849081106110db576110db612213565b60009182526020808320909101546001600160a01b0316835282019290925260400190205460ff1615611116578161111281612229565b9250505b8061112081612248565b9150506110ac565b50919050565b600083838360405160200161114593929190612261565b6040516020818303038152906040528051906020012060001c90505b9392505050565b60606003600060026104e3565b6000611182848484611396565b905061118d81611651565b61119681610f45565b826040516111a491906122a4565b6040518091039020846040516111ba91906122da565b6040518091039020827f36e07c71f504a656b790f6ebf4ca4eee6b5868d22fe9a6fd195a0ea54d9a24b7856040516111f2919061230d565b60405180910390a4611161815b611207611352565b6001600160a01b03811660009081526008602052604090205460ff166112405760405163395ed8c160e21b815260040160405180910390fd5b81611249611352565b60008281526009602090815260408083206001600160a01b038516845290915290205460ff1661128c576040516315ed6d0560e11b815260040160405180910390fd5b611295846110a8565b60ff1660055411610f3f576112a9846116eb565b600260008581526020019081526020016000206002016040516112cc9190612320565b60408051918290038220600087815260026020529190912090916112f39160010190612351565b6040518091039020857f606df15328702c746e4b85fd70292add0c21224b4362c4e1f190d4d010dbd24a60026000898152602001908152602001600020600301604051611340919061238b565b60405180910390a450505050565b3390565b60007f00000000000000000000000000000000000000000000000000000000000000006001600160a01b03163303611391575060131936013560601c90565b503390565b60008380516000036113bb57604051633731f60f60e21b815260040160405180910390fd5b848484815183511415806113d157508051825114155b156113ef576040516313c12e5160e31b815260040160405180910390fd5b60006113fc89898961112e565b9050600061140943611a1a565b9050600061141e61141960015490565b611a1a565b611428908361247a565b60008481526002602052604090205490915060ff16156114a857600083815260026020526040902080546001600160401b03838116600160481b0267ffffffffffffffff60481b19918616610100029190911670ffffffffffffffffffffffffffffffff001990921691909117178155600401805460ff191690556115ec565b6040518060e00160405280600115158152602001836001600160401b03168152602001826001600160401b031681526020018c81526020018b81526020018a8152602001600060038111156114ff576114ff612184565b905260008481526002602090815260409182902083518154858401519486015168ffffffffffffffffff1990911691151568ffffffffffffffff001916919091176101006001600160401b03958616021767ffffffffffffffff60481b1916600160481b9490911693909302929092178255606083015180516115889260018501920190611abf565b50608082015180516115a4916002840191602090910190611b20565b5060a082015180516115c0916003840191602090910190611b5b565b5060c082015160048201805460ff191660018360038111156115e4576115e4612184565b021790555050505b505060036020527f3617319a054d772f909f7c479a2cebe5066e836a939412e32403c99029b92eff80546001810182556000919091527fcfb339bd1c51c488f6134f4ac63d1594afad827b3401c3fc51ed1da74a8ca14e015550929695505050505050565b60008181526002602052604090205460ff16156116e85760005b60065460ff821610156116e65760008281526009602052604081206006805483919060ff86169081106116a0576116a0612213565b6000918252602080832091909101546001600160a01b031683528201929092526040019020805460ff1916911515919091179055806116de81612229565b91505061166b565b505b50565b806000808281526002602052604090206004015460ff16600381111561171357611713612184565b14611731576040516382235d5360e01b815260040160405180910390fd5b60008281526002602090815260408083206001018054825181850281018501909352808352919290919083018282801561179457602002820191906000526020600020905b81546001600160a01b03168152600190910190602001808311611776575b505050505090506000600260008581526020019081526020016000206002018054806020026020016040519081016040528092919081815260200182805480156117fd57602002820191906000526020600020905b8154815260200190600101908083116117e9575b50505050509050600060026000868152602001908152602001600020600301805480602002602001604051908101604052809291908181526020016000905b828210156118e857838290600052602060002001805461185b9061219a565b80601f01602080910402602001604051908101604052809291908181526020018280546118879061219a565b80156118d45780601f106118a9576101008083540402835291602001916118d4565b820191906000526020600020905b8154815290600101906020018083116118b757829003601f168201915b50505050508152602001906001019061183c565b50505050905060006040518060600160405280602881526020016124d560289139905060005b84518160ff1610156119f257600080868360ff168151811061193257611932612213565b60200260200101516001600160a01b0316868460ff168151811061195857611958612213565b6020026020010151868560ff168151811061197557611975612213565b602002602001015160405161198a91906124a5565b60006040518083038185875af1925050503d80600081146119c7576040519150601f19603f3d011682016040523d82523d6000602084013e6119cc565b606091505b50915091506119dc828286611a86565b50505080806119ea90612229565b91505061190e565b50505060009384525050600260208190526040909220600401805460ff191690921790915550565b60006001600160401b03821115611a825760405162461bcd60e51b815260206004820152602660248201527f53616665436173743a2076616c756520646f65736e27742066697420696e203660448201526534206269747360d01b6064820152608401610a6e565b5090565b60608315611a95575081611161565b825115611aa55782518084602001fd5b8160405162461bcd60e51b8152600401610a6e91906124c1565b828054828255906000526020600020908101928215611b14579160200282015b82811115611b1457825182546001600160a01b0319166001600160a01b03909116178255602090920191600190910190611adf565b50611a82929150611bb4565b828054828255906000526020600020908101928215611b14579160200282015b82811115611b14578251825591602001919060010190611b40565b828054828255906000526020600020908101928215611ba8579160200282015b82811115611ba85782518051611b98918491602090910190611bc9565b5091602001919060010190611b7b565b50611a82929150611c3c565b5b80821115611a825760008155600101611bb5565b828054611bd59061219a565b90600052602060002090601f016020900481019282611bf75760008555611b14565b82601f10611c1057805160ff1916838001178555611b14565b82800160010185558215611b145791820182811115611b14578251825591602001919060010190611b40565b80821115611a82576000611c508282611c59565b50600101611c3c565b508054611c659061219a565b6000825580601f10611c75575050565b601f0160209004906000526020600020908101906116e89190611bb4565b600060208284031215611ca557600080fd5b5035919050565b600081518084526020808501945080840160005b83811015611ce55781516001600160a01b031687529582019590820190600101611cc0565b509495945050505050565b6020815260006111616020830184611cac565b600081518084526020808501945080840160005b83811015611ce557815187529582019590820190600101611d17565b6020815260006111616020830184611d03565b60005b83811015611d61578181015183820152602001611d49565b83811115610f3f5750506000910152565b60008151808452611d8a816020860160208601611d46565b601f01601f19169290920160200192915050565b600081518084526020808501808196508360051b8101915082860160005b85811015611de6578284038952611dd4848351611d72565b98850198935090840190600101611dbc565b5091979650505050505050565b871515815260006001600160401b03808916602084015280881660408401525060e06060830152611e2760e0830187611cac565b8281036080840152611e398187611d03565b905082810360a0840152611e4d8186611d9e565b9150508260c083015298975050505050505050565b80356001600160a01b038116811461047457600080fd5b600060208284031215611e8b57600080fd5b61116182611e62565b600060208284031215611ea657600080fd5b813560ff8116811461116157600080fd5b60008060408385031215611eca57600080fd5b611ed383611e62565b9150611ee160208401611e62565b90509250929050565b634e487b7160e01b600052604160045260246000fd5b604051601f8201601f191681016001600160401b0381118282101715611f2857611f28611eea565b604052919050565b60006001600160401b03821115611f4957611f49611eea565b5060051b60200190565b600082601f830112611f6457600080fd5b81356020611f79611f7483611f30565b611f00565b82815260059290921b84018101918181019086841115611f9857600080fd5b8286015b84811015611fb35780358352918301918301611f9c565b509695505050505050565b6000601f8381840112611fd057600080fd5b82356020611fe0611f7483611f30565b82815260059290921b85018101918181019087841115611fff57600080fd5b8287015b848110156120955780356001600160401b03808211156120235760008081fd5b818a0191508a603f8301126120385760008081fd5b8582013560408282111561204e5761204e611eea565b61205f828b01601f19168901611f00565b92508183528c818386010111156120765760008081fd5b8181850189850137506000908201870152845250918301918301612003565b50979650505050505050565b6000806000606084860312156120b657600080fd5b83356001600160401b03808211156120cd57600080fd5b818601915086601f8301126120e157600080fd5b813560206120f1611f7483611f30565b82815260059290921b8401810191818101908a84111561211057600080fd5b948201945b838610156121355761212686611e62565b82529482019490820190612115565b9750508701359250508082111561214b57600080fd5b61215787838801611f53565b9350604086013591508082111561216d57600080fd5b5061217a86828701611fbe565b9150509250925092565b634e487b7160e01b600052602160045260246000fd5b600181811c908216806121ae57607f821691505b60208210810361112857634e487b7160e01b600052602260045260246000fd5b634e487b7160e01b600052601160045260246000fd5b600082198211156121f7576121f76121ce565b500190565b60008282101561220e5761220e6121ce565b500390565b634e487b7160e01b600052603260045260246000fd5b600060ff821660ff810361223f5761223f6121ce565b60010192915050565b60006001820161225a5761225a6121ce565b5060010190565b6060815260006122746060830186611cac565b82810360208401526122868186611d03565b9050828103604084015261229a8185611d9e565b9695505050505050565b815160009082906020808601845b838110156122ce578151855293820193908201906001016122b2565b50929695505050505050565b815160009082906020808601845b838110156122ce5781516001600160a01b0316855293820193908201906001016122e8565b6020815260006111616020830184611d9e565b60008183548391508460005260208060002060005b838110156122ce57815485529382019360019182019101612335565b60008183548391508460005260208060002060005b838110156122ce5781546001600160a01b031685529382019360019182019101612366565b6000602080830181845280855480835260408601915060408160051b87010192506000878152848120815b8381101561246c57888603603f1901855281548390600181811c90808316806123e057607f831692505b8b831081036123fd57634e487b7160e01b88526022600452602488fd5b828b5260208b01818015612418576001811461242957612453565b60ff19861682528d82019650612453565b6000898152602090208a5b8681101561244d57815484820152908501908f01612434565b83019750505b50949a5050978a019794909401935050506001016123b6565b509398975050505050505050565b60006001600160401b0380831681851680830382111561249c5761249c6121ce565b01949350505050565b600082516124b7818460208701611d46565b9190910192915050565b6020815260006111616020830184611d7256fe4879706572626173653a2063616c6c20726576657274656420776974686f7574206d657373616765a2646970667358221220c4f4349e926e77b39af902ce9dc7908d49ea4f3cdd53a1208ae8fb9856fc817e64736f6c634300080e0033",
    "linkReferences": {}
  },
  "methodIdentifiers": {
    "_keys(uint256)": "ac6bc327",
    "addKey(address)": "5f7b68be",
    "approve(uint256)": "b759f954",
    "checkIsApproved(uint256)": "04ad7650",
    "checkTransactionExists(uint256)": "aad59c2c",
    "execute(uint256)": "fe0d94c1",
    "getApprovalCount(uint256)": "ba7e7cab",
    "getApprovals(uint256)": "a4e360c8",
    "getExecutedTransactions()": "e6a6d4c8",
    "getExpiryPeriod()": "be2f5f52",
    "getKeys()": "2150c518",
    "getMaxKeyCount()": "f62a7a44",
    "getPendingTransaction()": "32a85b3e",
    "getPendingTransactions()": "d11db83f",
    "getTransaction(uint256)": "33ea3dc8",
    "getTransactionHash(address[],uint256[],bytes[])": "bf6b0a86",
    "isTrustedForwarder(address)": "572b6c05",
    "removeKey(address)": "69e78499",
    "replaceKey(address,address)": "b53ea1b6",
    "revokeApproval(uint256)": "b1e130fc",
    "setRequirement(uint8)": "669187ac",
    "submit(address[],uint256[],bytes[])": "ea39ddd8"
  },
  "id": 23
}