{
  "abi": [
    {
      "inputs": [
        {
          "internalType": "address",
          "name": "forwarder",
          "type": "address"
        }
      ],
      "stateMutability": "nonpayable",
      "type": "constructor"
    },
    {
      "anonymous": false,
      "inputs": [
        {
          "indexed": true,
          "internalType": "address",
          "name": "sender",
          "type": "address"
        },
        {
          "indexed": true,
          "internalType": "uint256",
          "name": "transactionId",
          "type": "uint256"
        },
        {
          "indexed": false,
          "internalType": "bool",
          "name": "approved",
          "type": "bool"
        }
      ],
      "name": "Approved",
      "type": "event"
    },
    {
      "anonymous": false,
      "inputs": [
        {
          "indexed": true,
          "internalType": "uint256",
          "name": "executionId",
          "type": "uint256"
        },
        {
          "indexed": true,
          "internalType": "address[]",
          "name": "to",
          "type": "address[]"
        },
        {
          "indexed": true,
          "internalType": "uint256[]",
          "name": "value",
          "type": "uint256[]"
        },
        {
          "indexed": false,
          "internalType": "bytes[]",
          "name": "data",
          "type": "bytes[]"
        }
      ],
      "name": "Executed",
      "type": "event"
    },
    {
      "anonymous": false,
      "inputs": [
        {
          "indexed": true,
          "internalType": "uint256",
          "name": "transactionId",
          "type": "uint256"
        }
      ],
      "name": "ExecutionFailure",
      "type": "event"
    },
    {
      "anonymous": false,
      "inputs": [
        {
          "indexed": true,
          "internalType": "uint256",
          "name": "executionId",
          "type": "uint256"
        },
        {
          "indexed": true,
          "internalType": "address[]",
          "name": "to",
          "type": "address[]"
        },
        {
          "indexed": true,
          "internalType": "uint256[]",
          "name": "value",
          "type": "uint256[]"
        },
        {
          "indexed": false,
          "internalType": "bytes[]",
          "name": "data",
          "type": "bytes[]"
        }
      ],
      "name": "ExecutionRequested",
      "type": "event"
    },
    {
      "anonymous": false,
      "inputs": [
        {
          "indexed": true,
          "internalType": "address",
          "name": "key",
          "type": "address"
        },
        {
          "indexed": true,
          "internalType": "uint8",
          "name": "permission",
          "type": "uint8"
        }
      ],
      "name": "KeyAdded",
      "type": "event"
    },
    {
      "anonymous": false,
      "inputs": [
        {
          "indexed": true,
          "internalType": "address",
          "name": "key",
          "type": "address"
        },
        {
          "indexed": true,
          "internalType": "uint8",
          "name": "permission",
          "type": "uint8"
        }
      ],
      "name": "KeyRemoved",
      "type": "event"
    },
    {
      "anonymous": false,
      "inputs": [
        {
          "indexed": false,
          "internalType": "uint8",
          "name": "permission",
          "type": "uint8"
        },
        {
          "indexed": false,
          "internalType": "uint8",
          "name": "required",
          "type": "uint8"
        }
      ],
      "name": "RequirementChange",
      "type": "event"
    },
    {
      "anonymous": false,
      "inputs": [
        {
          "indexed": true,
          "internalType": "address",
          "name": "sender",
          "type": "address"
        },
        {
          "indexed": true,
          "internalType": "uint256",
          "name": "transactionId",
          "type": "uint256"
        }
      ],
      "name": "Revocation",
      "type": "event"
    },
    {
      "inputs": [
        {
          "internalType": "uint256",
          "name": "",
          "type": "uint256"
        },
        {
          "internalType": "address",
          "name": "",
          "type": "address"
        }
      ],
      "name": "_approvalsByTransaction",
      "outputs": [
        {
          "internalType": "bool",
          "name": "",
          "type": "bool"
        }
      ],
      "stateMutability": "view",
      "type": "function"
    },
    {
      "inputs": [
        {
          "internalType": "uint256",
          "name": "",
          "type": "uint256"
        }
      ],
      "name": "_keys",
      "outputs": [
        {
          "internalType": "address",
          "name": "key",
          "type": "address"
        },
        {
          "internalType": "enum IHyperbase.Permission",
          "name": "permission",
          "type": "uint8"
        },
        {
          "internalType": "bool",
          "name": "exists",
          "type": "bool"
        }
      ],
      "stateMutability": "view",
      "type": "function"
    },
    {
      "inputs": [
        {
          "internalType": "address",
          "name": "key",
          "type": "address"
        },
        {
          "internalType": "enum IHyperbase.Permission",
          "name": "permission",
          "type": "uint8"
        }
      ],
      "name": "addKey",
      "outputs": [],
      "stateMutability": "nonpayable",
      "type": "function"
    },
    {
      "inputs": [
        {
          "internalType": "uint256",
          "name": "txHash",
          "type": "uint256"
        },
        {
          "internalType": "bool",
          "name": "approved",
          "type": "bool"
        }
      ],
      "name": "approve",
      "outputs": [
        {
          "internalType": "uint256",
          "name": "",
          "type": "uint256"
        }
      ],
      "stateMutability": "nonpayable",
      "type": "function"
    },
    {
      "inputs": [
        {
          "internalType": "uint256",
          "name": "txHash",
          "type": "uint256"
        }
      ],
      "name": "checkIsApproved",
      "outputs": [
        {
          "internalType": "bool",
          "name": "",
          "type": "bool"
        }
      ],
      "stateMutability": "nonpayable",
      "type": "function"
    },
    {
      "inputs": [
        {
          "internalType": "address",
          "name": "key",
          "type": "address"
        },
        {
          "internalType": "uint256",
          "name": "permission",
          "type": "uint256"
        }
      ],
      "name": "checkKeyHasPermission",
      "outputs": [
        {
          "internalType": "bool",
          "name": "result",
          "type": "bool"
        }
      ],
      "stateMutability": "view",
      "type": "function"
    },
    {
      "inputs": [
        {
          "internalType": "address[]",
          "name": "targets",
          "type": "address[]"
        },
        {
          "internalType": "uint256[]",
          "name": "values",
          "type": "uint256[]"
        },
        {
          "internalType": "bytes[]",
          "name": "calldatas",
          "type": "bytes[]"
        }
      ],
      "name": "execute",
      "outputs": [
        {
          "internalType": "uint256",
          "name": "",
          "type": "uint256"
        }
      ],
      "stateMutability": "payable",
      "type": "function"
    },
    {
      "inputs": [
        {
          "internalType": "uint256",
          "name": "txHash",
          "type": "uint256"
        }
      ],
      "name": "getApprovalCount",
      "outputs": [
        {
          "internalType": "uint8",
          "name": "approvalCount",
          "type": "uint8"
        }
      ],
      "stateMutability": "view",
      "type": "function"
    },
    {
      "inputs": [
        {
          "internalType": "uint256",
          "name": "txHash",
          "type": "uint256"
        }
      ],
      "name": "getApprovals",
      "outputs": [
        {
          "internalType": "address[]",
          "name": "approvalsByTransaction",
          "type": "address[]"
        }
      ],
      "stateMutability": "view",
      "type": "function"
    },
    {
      "inputs": [],
      "name": "getExpiryPeriod",
      "outputs": [
        {
          "internalType": "uint256",
          "name": "",
          "type": "uint256"
        }
      ],
      "stateMutability": "view",
      "type": "function"
    },
    {
      "inputs": [
        {
          "internalType": "address",
          "name": "key",
          "type": "address"
        }
      ],
      "name": "getKey",
      "outputs": [
        {
          "internalType": "address",
          "name": "",
          "type": "address"
        },
        {
          "internalType": "enum IHyperbase.Permission",
          "name": "",
          "type": "uint8"
        },
        {
          "internalType": "bool",
          "name": "",
          "type": "bool"
        }
      ],
      "stateMutability": "view",
      "type": "function"
    },
    {
      "inputs": [
        {
          "internalType": "address",
          "name": "key",
          "type": "address"
        }
      ],
      "name": "getKeyPermission",
      "outputs": [
        {
          "internalType": "enum IHyperbase.Permission",
          "name": "",
          "type": "uint8"
        }
      ],
      "stateMutability": "view",
      "type": "function"
    },
    {
      "inputs": [
        {
          "internalType": "uint256",
          "name": "_permission",
          "type": "uint256"
        }
      ],
      "name": "getKeysByPermission",
      "outputs": [
        {
          "internalType": "uint256[]",
          "name": "_keys",
          "type": "uint256[]"
        }
      ],
      "stateMutability": "view",
      "type": "function"
    },
    {
      "inputs": [],
      "name": "getMaxKeyCount",
      "outputs": [
        {
          "internalType": "uint256",
          "name": "",
          "type": "uint256"
        }
      ],
      "stateMutability": "view",
      "type": "function"
    },
    {
      "inputs": [
        {
          "internalType": "address[]",
          "name": "targets",
          "type": "address[]"
        },
        {
          "internalType": "uint256[]",
          "name": "values",
          "type": "uint256[]"
        },
        {
          "internalType": "bytes[]",
          "name": "calldatas",
          "type": "bytes[]"
        }
      ],
      "name": "getRequiredPermission",
      "outputs": [
        {
          "internalType": "enum IHyperbase.Permission",
          "name": "",
          "type": "uint8"
        }
      ],
      "stateMutability": "view",
      "type": "function"
    },
    {
      "inputs": [
        {
          "internalType": "bool",
          "name": "pending",
          "type": "bool"
        },
        {
          "internalType": "bool",
          "name": "executed",
          "type": "bool"
        }
      ],
      "name": "getTransactionCount",
      "outputs": [
        {
          "internalType": "uint8",
          "name": "approvalCount",
          "type": "uint8"
        }
      ],
      "stateMutability": "view",
      "type": "function"
    },
    {
      "inputs": [
        {
          "internalType": "address[]",
          "name": "targets",
          "type": "address[]"
        },
        {
          "internalType": "uint256[]",
          "name": "values",
          "type": "uint256[]"
        },
        {
          "internalType": "bytes[]",
          "name": "calldatas",
          "type": "bytes[]"
        }
      ],
      "name": "getTransactionHash",
      "outputs": [
        {
          "internalType": "uint256",
          "name": "",
          "type": "uint256"
        }
      ],
      "stateMutability": "pure",
      "type": "function"
    },
    {
      "inputs": [
        {
          "internalType": "uint256",
          "name": "from",
          "type": "uint256"
        },
        {
          "internalType": "uint256",
          "name": "to",
          "type": "uint256"
        },
        {
          "internalType": "bool",
          "name": "pending",
          "type": "bool"
        },
        {
          "internalType": "bool",
          "name": "executed",
          "type": "bool"
        }
      ],
      "name": "getTransactionIds",
      "outputs": [
        {
          "internalType": "uint256[]",
          "name": "txHashs",
          "type": "uint256[]"
        }
      ],
      "stateMutability": "view",
      "type": "function"
    },
    {
      "inputs": [
        {
          "internalType": "address",
          "name": "forwarder",
          "type": "address"
        }
      ],
      "name": "isTrustedForwarder",
      "outputs": [
        {
          "internalType": "bool",
          "name": "",
          "type": "bool"
        }
      ],
      "stateMutability": "view",
      "type": "function"
    },
    {
      "inputs": [
        {
          "internalType": "address",
          "name": "key",
          "type": "address"
        }
      ],
      "name": "removeKey",
      "outputs": [],
      "stateMutability": "nonpayable",
      "type": "function"
    },
    {
      "inputs": [
        {
          "internalType": "address",
          "name": "key",
          "type": "address"
        },
        {
          "internalType": "address",
          "name": "newKey",
          "type": "address"
        }
      ],
      "name": "replaceKey",
      "outputs": [],
      "stateMutability": "nonpayable",
      "type": "function"
    },
    {
      "inputs": [
        {
          "internalType": "uint256",
          "name": "txHash",
          "type": "uint256"
        }
      ],
      "name": "revokeApproval",
      "outputs": [],
      "stateMutability": "nonpayable",
      "type": "function"
    },
    {
      "inputs": [
        {
          "internalType": "uint8",
          "name": "required",
          "type": "uint8"
        },
        {
          "internalType": "enum IHyperbase.Permission",
          "name": "permission",
          "type": "uint8"
        }
      ],
      "name": "setRequirement",
      "outputs": [],
      "stateMutability": "nonpayable",
      "type": "function"
    },
    {
      "inputs": [
        {
          "internalType": "uint256",
          "name": "txHash",
          "type": "uint256"
        },
        {
          "internalType": "enum IHyperbase.Status",
          "name": "status",
          "type": "uint8"
        }
      ],
      "name": "setTransactionStatus",
      "outputs": [],
      "stateMutability": "nonpayable",
      "type": "function"
    },
    {
      "inputs": [
        {
          "internalType": "address[]",
          "name": "targets",
          "type": "address[]"
        },
        {
          "internalType": "uint256[]",
          "name": "values",
          "type": "uint256[]"
        },
        {
          "internalType": "bytes[]",
          "name": "calldatas",
          "type": "bytes[]"
        }
      ],
      "name": "submit",
      "outputs": [
        {
          "internalType": "uint256",
          "name": "",
          "type": "uint256"
        }
      ],
      "stateMutability": "nonpayable",
      "type": "function"
    }
  ],
  "bytecode": {
    "object": "0x60a06040526000805460ff60a01b1916600160a31b1790553480156200002457600080fd5b50604051620035cd380380620035cd83398101604081905262000047916200021d565b6001600160a01b0381166080526040805160608101909152600090806200006d620001dc565b6001600160a01b03168152602001600281526001602091820181905260038054918201815560005282517fc2575a0e9e593c00f959f8c92f12db2869c3395a3b0502d05e2516446f71f85b90910180546001600160a01b031981166001600160a01b0390931692831782559284015193945084939092909183916001600160a81b03191617600160a01b8360028111156200010c576200010c6200024f565b0217905550604091909101518154901515600160a81b0260ff60a81b199091161790556003546004600062000140620001dc565b6001600160a01b031681526020808201929092526040016000908120929092556006905260017f8819ef417987f8ae7a81f42cdfb18815282fe989326fbff903d13cf0e03ace298190557f3e5fec24aa4dc4e5aee2e025e51e1392c72a2500577559fae9665c6d52bd6a318190559080527f54cdd369e4e8a8515e52ca72ec816c2101831ad1f18bf44102ed171459c9b4f85550620002659050565b6080516000906001600160a01b03163303620001ff575060131936013560601c90565b620002146200021960201b6200270a1760201c565b905090565b3390565b6000602082840312156200023057600080fd5b81516001600160a01b03811681146200024857600080fd5b9392505050565b634e487b7160e01b600052602160045260246000fd5b6080516133456200028860003960008181610211015261271201526133456000f3fe6080604052600436106101665760003560e01c8063a8abe69a116100d1578063be2f5f521161008a578063d701e19f11610064578063d701e19f1461048d578063ea39ddd8146104c8578063ef591de2146104e8578063f62a7a441461050857600080fd5b8063be2f5f5214610438578063bf6b0a861461044d578063d36a0f971461046d57600080fd5b8063a8abe69a1461035e578063ac6bc3271461038b578063ad1aa4fd146103ab578063b1e130fc146103d8578063b53ea1b6146103f8578063ba7e7cab1461041857600080fd5b806373720da41161012357806373720da414610281578063747442d3146102a15780638a1be3b1146102cf57806393790f44146102ef578063a4e360c81461031e578063a516a5bf1461034b57600080fd5b806304ad76501461016b57806337b02c58146101a057806354741525146101c2578063572b6c05146101f457806369e7849914610241578063703dd70a14610261575b600080fd5b34801561017757600080fd5b5061018b610186366004612acc565b610527565b60405190151581526020015b60405180910390f35b3480156101ac57600080fd5b506101c06101bb366004612ae5565b6105be565b005b3480156101ce57600080fd5b506101e26101dd366004612b29565b610795565b60405160ff9091168152602001610197565b34801561020057600080fd5b5061018b61020f366004612b73565b7f00000000000000000000000000000000000000000000000000000000000000006001600160a01b0390811691161490565b34801561024d57600080fd5b506101c061025c366004612b73565b610863565b34801561026d57600080fd5b5061018b61027c366004612b8e565b610a64565b34801561028d57600080fd5b506101c061029c366004612bc7565b610ad4565b3480156102ad57600080fd5b506102c16102bc366004612bf9565b610b7f565b604051908152602001610197565b3480156102db57600080fd5b506101c06102ea366004612c1c565b6111b5565b3480156102fb57600080fd5b5061030f61030a366004612b73565b611362565b60405161019793929190612c70565b34801561032a57600080fd5b5061033e610339366004612acc565b611446565b6040516101979190612ce1565b6102c1610359366004612eab565b61162d565b34801561036a57600080fd5b5061037e610379366004612f8e565b61194b565b6040516101979190613004565b34801561039757600080fd5b5061030f6103a6366004612acc565b611b36565b3480156103b757600080fd5b506103cb6103c6366004612eab565b611b75565b6040516101979190613017565b3480156103e457600080fd5b506101c06103f3366004612acc565b611c3d565b34801561040457600080fd5b506101c0610413366004613025565b611dbe565b34801561042457600080fd5b506101e2610433366004612acc565b611ed1565b34801561044457600080fd5b506001546102c1565b34801561045957600080fd5b506102c1610468366004612eab565b611f64565b34801561047957600080fd5b5061037e610488366004612acc565b611f9b565b34801561049957600080fd5b5061018b6104a836600461304f565b600860209081526000928352604080842090915290825290205460ff1681565b3480156104d457600080fd5b506102c16104e3366004612eab565b611ffd565b3480156104f457600080fd5b506103cb610503366004612b73565b6126c0565b34801561051457600080fd5b50600054600160a01b900460ff166102c1565b600061053282611ed1565b60ff1660066000600760096000878152602001908152602001600020548154811061055f5761055f613072565b600091825260209091206005909102015460ff16600281111561058457610584612c38565b600281111561059557610595612c38565b815260200190815260200160002054116105b157506001919050565b506000919050565b919050565b60008281526009602052604081205460078054919291839081106105e4576105e4613072565b6000918252602082206004600590920201015460ff1691505b600a600083600481111561061357610613612c38565b600481111561062457610624612c38565b81526020810191909152604001600020548110156106f75782600a600084600481111561065357610653612c38565b600481111561066457610664612c38565b8152602001908152602001600020828154811061068357610683613072565b9060005260206000200154036106e557600a60008360048111156106a9576106a9612c38565b60048111156106ba576106ba612c38565b815260200190815260200160002081815481106106d9576106d9613072565b60009182526020822001555b806106ef8161309e565b9150506105fd565b50826007838154811061070c5761070c613072565b906000526020600020906005020160040160006101000a81548160ff0219169083600481111561073e5761073e612c38565b0217905550600a600084600481111561075957610759612c38565b600481111561076a5761076a612c38565b8152602080820192909252604001600090812080546001810182559082529190200191909155505050565b6000805b60075481101561085c578380156107ea57506000600782815481106107c0576107c0613072565b60009182526020909120600460059092020181015460ff16908111156107e8576107e8612c38565b145b806108375750828015610837575060036007828154811061080d5761080d613072565b60009182526020909120600460059092020181015460ff169081111561083557610835612c38565b145b1561084a5781610846816130b7565b9250505b806108548161309e565b915050610799565b5092915050565b3061086c61270e565b6001600160a01b03161461087f57600080fd5b6001600160a01b0381166000908152600460205260409020546003805483929081106108ad576108ad613072565b600091825260209091200154600160a81b900460ff166108cc57600080fd5b6003546108db906001906130d6565b60011061092f5760405162461bcd60e51b815260206004820181905260248201527f4879706572626173653a2043616e6e6f742068617665207a65726f206b65797360448201526064015b60405180910390fd5b6001600160a01b03821660009081526004602052604081205460038054909190811061095d5761095d613072565b6000918252602082200154600160a01b900460ff16915060069082600281111561098957610989612c38565b600281111561099a5761099a612c38565b815260208101919091526040016000205460035410156109cd576003546109cd906109c7906001906130d6565b82610ad4565b6001600160a01b0383166000908152600460205260409020546003805490919081106109fb576109fb613072565b600091825260209091200180546001600160b01b0319169055806002811115610a2657610a26612c38565b60ff16836001600160a01b03167f7747561ec5ce7bfb29eaa2ce403a6c18ce3721a800bb197d03c17c078218722360405160405180910390a3505050565b6001600160a01b038216600090815260046020526040812054600380549091908110610a9257610a92613072565b600091825260209091200154600160a01b900460ff166002811115610ab957610ab9612c38565b60ff168211610aca57506001610ace565b5060005b92915050565b30610add61270e565b6001600160a01b031614610af057600080fd5b8160ff1660066000836002811115610b0a57610b0a612c38565b6002811115610b1b57610b1b612c38565b81526020810191909152604001600020557fc6b1effd76b8a1f78192f9a8008e7de4d75668d034c316b07cfc5e57a89f1201816002811115610b5f57610b5f612c38565b6040805160ff928316815291851660208301520160405180910390a15050565b6000610b8961270e565b6001600160a01b038116600090815260046020526040902054600380549091908110610bb757610bb7613072565b600091825260209091200154600160a81b900460ff16610bd657600080fd5b610bde61270e565b600085815260096020526040902054600780549091908110610c0257610c02613072565b9060005260206000209060050201600101805480602002602001604051908101604052809291908181526020018280548015610c6757602002820191906000526020600020905b81546001600160a01b03168152600190910190602001808311610c49575b50505050506007600960008881526020019081526020016000205481548110610c9257610c92613072565b9060005260206000209060050201600201805480602002602001604051908101604052809291908181526020018280548015610ced57602002820191906000526020600020905b815481526020019060010190808311610cd9575b50505050506007600960008981526020019081526020016000205481548110610d1857610d18613072565b9060005260206000209060050201600301805480602002602001604051908101604052809291908181526020016000905b82821015610df5578382906000526020600020018054610d68906130ed565b80601f0160208091040260200160405190810160405280929190818152602001828054610d94906130ed565b8015610de15780601f10610db657610100808354040283529160200191610de1565b820191906000526020600020905b815481529060010190602001808311610dc457829003601f168201915b505050505081526020019060010190610d49565b50505050610e04838383611b75565b6002811115610e1557610e15612c38565b60ff16600360046000876001600160a01b03166001600160a01b031681526020019081526020016000205481548110610e5057610e50613072565b600091825260209091200154600160a01b900460ff166002811115610e7757610e77612c38565b60ff1610610e8457600080fd5b87610e8d61270e565b6000828152600960209081526040808320548352600882528083206001600160a01b038516845290915290205460ff1615610ec757600080fd5b896003600082815260096020526040902054600780549091908110610eee57610eee613072565b60009182526020909120600460059092020181015460ff1690811115610f1657610f16612c38565b03610f2057600080fd5b60008b8152600960209081526040808320548352600890915281208b91610f4561270e565b6001600160a01b031681526020810191909152604001600020805460ff19169115159190911790558a610f7661270e565b6001600160a01b03167f55bf8b20f6ce8264ee592ab0316f1f8e3e12dc12906329e903d3b020ccec7aea8c604051610fb2911515815260200190565b60405180910390a36111a660078c81548110610fd057610fd0613072565b906000526020600020906005020160010180548060200260200160405190810160405280929190818152602001828054801561103557602002820191906000526020600020905b81546001600160a01b03168152600190910190602001808311611017575b505050505060078d8154811061104d5761104d613072565b90600052602060002090600502016002018054806020026020016040519081016040528092919081815260200182805480156110a857602002820191906000526020600020905b815481526020019060010190808311611094575b505050505060078e815481106110c0576110c0613072565b9060005260206000209060050201600301805480602002602001604051908101604052809291908181526020016000905b8282101561119d578382906000526020600020018054611110906130ed565b80601f016020809104026020016040519081016040528092919081815260200182805461113c906130ed565b80156111895780601f1061115e57610100808354040283529160200191611189565b820191906000526020600020905b81548152906001019060200180831161116c57829003601f168201915b5050505050815260200190600101906110f1565b5050505061162d565b9b9a5050505050505050505050565b306111be61270e565b6001600160a01b0316146111d157600080fd5b6001600160a01b0382166000908152600460205260409020546003805484929081106111ff576111ff613072565b600091825260209091200154600160a81b900460ff161561121f57600080fd5b826001600160a01b03811661123357600080fd5b60006040518060600160405280866001600160a01b0316815260200185600281111561126157611261612c38565b81526001602091820181905260038054918201815560005282517fc2575a0e9e593c00f959f8c92f12db2869c3395a3b0502d05e2516446f71f85b90910180546001600160a01b031981166001600160a01b0390931692831782559284015193945084939092909183916001600160a81b03191617600160a01b8360028111156112ed576112ed612c38565b0217905550604091909101518154901515600160a81b0260ff60a81b1990911617905583600281111561132257611322612c38565b60ff16856001600160a01b03167f381960c0a2d5db99f9117b781d9cf21af515e0ea220e679efaf2c8f6dcf4873060405160405180910390a35050505050565b6001600160a01b038116600090815260046020526040812054600380548392839291811061139257611392613072565b60009182526020808320909101546001600160a01b03878116845260049092526040909220546003805492909316929181106113d0576113d0613072565b9060005260206000200160000160149054906101000a900460ff16600360046000886001600160a01b03166001600160a01b03168152602001908152602001600020548154811061142357611423613072565b6000918252602090912001549196909550600160a81b90910460ff169350915050565b6003546060906000906001600160401b0381111561146657611466612cf4565b60405190808252806020026020018201604052801561148f578160200160208202803683370190505b5090506000805b6003548110156115795760008581526009602090815260408083205483526008909152812060038054919291849081106114d2576114d2613072565b60009182526020808320909101546001600160a01b0316835282019290925260400190205460ff1615611567576003818154811061151257611512613072565b60009182526020909120015483516001600160a01b0390911690849060ff851690811061154157611541613072565b6001600160a01b039092166020928302919091019091015281611563816130b7565b9250505b806115718161309e565b915050611496565b508060ff166001600160401b0381111561159557611595612cf4565b6040519080825280602002602001820160405280156115be578160200160208202803683370190505b50925060005b8160ff16811015611625578281815181106115e1576115e1613072565b60200260200101518482815181106115fb576115fb613072565b6001600160a01b03909216602092830291909101909101528061161d8161309e565b9150506115c4565b505050919050565b600061163761270e565b6001600160a01b03811660009081526004602052604090205460038054909190811061166557611665613072565b600091825260209091200154600160a81b900460ff1661168457600080fd5b61168f858585611f64565b61169761270e565b6000828152600960209081526040808320548352600882528083206001600160a01b038516845290915290205460ff166116d057600080fd5b6116db878787611f64565b6000818152600960205260409020546007805460039290811061170057611700613072565b60009182526020909120600460059092020181015460ff169081111561172857611728612c38565b0361173257600080fd5b600061173f898989611f64565b905061174a81611ed1565b60ff1660066000600760096000868152602001908152602001600020548154811061177757611777613072565b600091825260209091206005909102015460ff16600281111561179c5761179c612c38565b60028111156117ad576117ad612c38565b8152602001908152602001600020541161193e5760006117ce8a8a8a611f64565b60008181526009602052604081205460078054939450919281106117f4576117f4613072565b60009182526020909120600460059092020181015460ff169081111561181c5761181c612c38565b146118695760405162461bcd60e51b815260206004820152601b60248201527f4879706572626173653a2063616e206f6e6c79206578656375746500000000006044820152606401610926565b611875818b8b8b612752565b6000818152600960205260409020546007805460039290811061189a5761189a613072565b906000526020600020906005020160040160006101000a81548160ff021916908360048111156118cc576118cc612c38565b0217905550886040516118df9190613121565b60405180910390208a6040516118f59190613157565b6040518091039020827f606df15328702c746e4b85fd70292add0c21224b4362c4e1f190d4d010dbd24a8b60405161192d9190613237565b60405180910390a495506119409050565b505b505050509392505050565b6007546060906000906001600160401b0381111561196b5761196b612cf4565b604051908082528060200260200182016040528015611994578160200160208202803683370190505b5090506000805b600754811015611a7f578580156119ec57506000600782815481106119c2576119c2613072565b60009182526020909120600460059092020181015460ff16908111156119ea576119ea612c38565b145b80611a395750848015611a395750600360078281548110611a0f57611a0f613072565b60009182526020909120600460059092020181015460ff1690811115611a3757611a37612c38565b145b15611a6d5780838360ff1681518110611a5457611a54613072565b602090810291909101015281611a69816130b7565b9250505b80611a778161309e565b91505061199b565b50611a8a87876130d6565b6001600160401b03811115611aa157611aa1612cf4565b604051908082528060200260200182016040528015611aca578160200160208202803683370190505b509250865b86811015611b2b57828181518110611ae957611ae9613072565b6020026020010151848983611afe91906130d6565b81518110611b0e57611b0e613072565b602090810291909101015280611b238161309e565b915050611acf565b505050949350505050565b60038181548110611b4657600080fd5b6000918252602090912001546001600160a01b038116915060ff600160a01b8204811691600160a81b90041683565b600080805b8551811015611c1c57306001600160a01b0316868281518110611b9f57611b9f613072565b60200260200101516001600160a01b031603611bcc57600260ff83161015611bcc57600292505050611c36565b60025486516001600160a01b0390911690879083908110611bef57611bef613072565b60200260200101516001600160a01b031603611c0a57600091505b80611c148161309e565b915050611b7a565b508060ff166002811115611c3257611c32612c38565b9150505b9392505050565b611c4561270e565b6001600160a01b038116600090815260046020526040902054600380549091908110611c7357611c73613072565b600091825260209091200154600160a81b900460ff16611c9257600080fd5b81611c9b61270e565b6000828152600960209081526040808320548352600882528083206001600160a01b038516845290915290205460ff16611cd457600080fd5b836003600082815260096020526040902054600780549091908110611cfb57611cfb613072565b60009182526020909120600460059092020181015460ff1690811115611d2357611d23612c38565b03611d2d57600080fd5b60008581526009602090815260408083205483526008909152812081611d5161270e565b6001600160a01b031681526020810191909152604001600020805460ff191691151591909117905584611d8261270e565b6001600160a01b03167ff6a317157440607f36269043eb55f1287a5a19ba2216afeab88cd46cbcfb88e960405160405180910390a35050505050565b30611dc761270e565b6001600160a01b031614611dda57600080fd5b6001600160a01b038216600090815260046020526040902054600380548492908110611e0857611e08613072565b600091825260209091200154600160a81b900460ff16611e2757600080fd5b6001600160a01b038216600090815260046020526040902054600380548492908110611e5557611e55613072565b600091825260209091200154600160a81b900460ff1615611e7557600080fd5b6001600160a01b03841660009081526004602052604090205460038054611ec2928692918110611ea757611ea7613072565b600091825260209091200154600160a01b900460ff166111b5565b611ecb84610863565b50505050565b6000805b600354811015611f5e576000838152600960209081526040808320548352600890915281206003805491929184908110611f1157611f11613072565b60009182526020808320909101546001600160a01b0316835282019290925260400190205460ff1615611f4c5781611f48816130b7565b9250505b80611f568161309e565b915050611ed5565b50919050565b6000838383604051602001611f7b9392919061324a565b60408051601f198184030181529190528051602090910120949350505050565b600081815260056020908152604091829020805483518184028101840190945280845260609392830182828015611ff157602002820191906000526020600020905b815481526020019060010190808311611fdd575b50505050509050919050565b600061200761270e565b848484612015838383611b75565b600281111561202657612026612c38565b60ff16600360046000876001600160a01b03166001600160a01b03168152602001908152602001600020548154811061206157612061613072565b600091825260209091200154600160a01b900460ff16600281111561208857612088612c38565b60ff161061209557600080fd5b60008851116120e65760405162461bcd60e51b815260206004820152601c60248201527f4879706572626173653a20656d707479207472616e73616374696f6e000000006044820152606401610926565b865188511480156120f8575085518751145b6121525760405162461bcd60e51b815260206004820152602560248201527f4879706572626173653a20696e76616c6964207472616e73616374696f6e206c6044820152640cadccee8d60db1b6064820152608401610926565b600061215f898989611f64565b9050600061216e8a8a8a611b75565b9050600061217b43612850565b9050600061219061218b60015490565b612850565b61219a908361328d565b600085815260096020526040902054909150156123f7576000848152600960205260409020546007805485929081106121d5576121d5613072565b60009182526020909120600590910201805460ff191660018360028111156121ff576121ff612c38565b021790555060008481526009602052604090205460078054849290811061222857612228613072565b906000526020600020906005020160000160016101000a8154816001600160401b0302191690836001600160401b0316021790555080600760096000878152602001908152602001600020548154811061228457612284613072565b906000526020600020906005020160000160096101000a8154816001600160401b0302191690836001600160401b031602179055508b60076009600087815260200190815260200160002054815481106122e0576122e0613072565b906000526020600020906005020160010190805190602001906123049291906128f5565b50600084815260096020526040902054600780548d9290811061232957612329613072565b9060005260206000209060050201600201908051906020019061234d929190612956565b50600084815260096020526040902054600780548c9290811061237257612372613072565b90600052602060002090600502016003019080519060200190612396929190612991565b506000848152600960205260408120546007805490919081106123bb576123bb613072565b906000526020600020906005020160040160006101000a81548160ff021916908360048111156123ed576123ed612c38565b021790555061259b565b60006040518060e0016040528085600281111561241657612416612c38565b81526001600160401b03808616602083015284166040820152606081018f9052608081018e905260a081018d905260c001600090526007805460018181018355600092909252825160059091027fa66cc928b5edb82af9bd49922954155ab7b0942694bea4ce44661d9a8736c68801805493945084939092839160ff1916908360028111156124a7576124a7612c38565b0217905550602082810151825460408501516001600160401b0390811669010000000000000000000270ffffffffffffffff0000000000000000001991909316610100021670ffffffffffffffffffffffffffffffff0019909116171782556060830151805161251d92600185019201906128f5565b5060808201518051612539916002840191602090910190612956565b5060a08201518051612555916003840191602090910190612991565b5060c08201518160040160006101000a81548160ff0219169083600481111561258057612580612c38565b02179055505060075460008781526009602052604090205550505b6000848152600960209081526040808320547f13da86008ba1c6922daee3e07db95305ef49ebced9f5467a0b8613fcc6b343e3805460018082019092557fe53a0b972c470f18f842c35c712f9b9beaac1e8e838c1ba491d0d478900e81ca0191909155600754845260089092528220909161261461270e565b6001600160a01b0316815260208101919091526040908101600020805460ff1916921515929092179091555161264b908c90613121565b60405180910390208c6040516126619190613157565b6040518091039020857f3462b54350b31c008d5df03e53992710cd1b3f528bd765d7151548ecd2317e258d6040516126999190613237565b60405180910390a46126ac8c8c8c61162d565b50506007549b9a5050505050505050505050565b6001600160a01b0381166000908152600460205260408120546003805490919081106126ee576126ee613072565b600091825260209091200154600160a01b900460ff1692915050565b3390565b60007f00000000000000000000000000000000000000000000000000000000000000006001600160a01b0316330361274d575060131936013560601c90565b503390565b60006040518060600160405280602881526020016132e860289139905060005b84518110156128485760008086838151811061279057612790613072565b60200260200101516001600160a01b03168684815181106127b3576127b3613072565b60200260200101518685815181106127cd576127cd613072565b60200260200101516040516127e291906132b8565b60006040518083038185875af1925050503d806000811461281f576040519150601f19603f3d011682016040523d82523d6000602084013e612824565b606091505b50915091506128348282866128bc565b505050806128419061309e565b9050612772565b505050505050565b60006001600160401b038211156128b85760405162461bcd60e51b815260206004820152602660248201527f53616665436173743a2076616c756520646f65736e27742066697420696e203660448201526534206269747360d01b6064820152608401610926565b5090565b606083156128cb575081611c36565b8251156128db5782518084602001fd5b8160405162461bcd60e51b815260040161092691906132d4565b82805482825590600052602060002090810192821561294a579160200282015b8281111561294a57825182546001600160a01b0319166001600160a01b03909116178255602090920191600190910190612915565b506128b89291506129ea565b82805482825590600052602060002090810192821561294a579160200282015b8281111561294a578251825591602001919060010190612976565b8280548282559060005260206000209081019282156129de579160200282015b828111156129de57825180516129ce9184916020909101906129ff565b50916020019190600101906129b1565b506128b8929150612a72565b5b808211156128b857600081556001016129eb565b828054612a0b906130ed565b90600052602060002090601f016020900481019282612a2d576000855561294a565b82601f10612a4657805160ff191683800117855561294a565b8280016001018555821561294a579182018281111561294a578251825591602001919060010190612976565b808211156128b8576000612a868282612a8f565b50600101612a72565b508054612a9b906130ed565b6000825580601f10612aab575050565b601f016020900490600052602060002090810190612ac991906129ea565b50565b600060208284031215612ade57600080fd5b5035919050565b60008060408385031215612af857600080fd5b82359150602083013560058110612b0e57600080fd5b809150509250929050565b803580151581146105b957600080fd5b60008060408385031215612b3c57600080fd5b612b4583612b19565b9150612b5360208401612b19565b90509250929050565b80356001600160a01b03811681146105b957600080fd5b600060208284031215612b8557600080fd5b611c3682612b5c565b60008060408385031215612ba157600080fd5b612baa83612b5c565b946020939093013593505050565b8035600381106105b957600080fd5b60008060408385031215612bda57600080fd5b823560ff81168114612beb57600080fd5b9150612b5360208401612bb8565b60008060408385031215612c0c57600080fd5b82359150612b5360208401612b19565b60008060408385031215612c2f57600080fd5b612beb83612b5c565b634e487b7160e01b600052602160045260246000fd5b60038110612c6c57634e487b7160e01b600052602160045260246000fd5b9052565b6001600160a01b038416815260608101612c8d6020830185612c4e565b8215156040830152949350505050565b600081518084526020808501945080840160005b83811015612cd65781516001600160a01b031687529582019590820190600101612cb1565b509495945050505050565b602081526000611c366020830184612c9d565b634e487b7160e01b600052604160045260246000fd5b604051601f8201601f191681016001600160401b0381118282101715612d3257612d32612cf4565b604052919050565b60006001600160401b03821115612d5357612d53612cf4565b5060051b60200190565b600082601f830112612d6e57600080fd5b81356020612d83612d7e83612d3a565b612d0a565b82815260059290921b84018101918181019086841115612da257600080fd5b8286015b84811015612dbd5780358352918301918301612da6565b509695505050505050565b6000601f8381840112612dda57600080fd5b82356020612dea612d7e83612d3a565b82815260059290921b85018101918181019087841115612e0957600080fd5b8287015b84811015612e9f5780356001600160401b0380821115612e2d5760008081fd5b818a0191508a603f830112612e425760008081fd5b85820135604082821115612e5857612e58612cf4565b612e69828b01601f19168901612d0a565b92508183528c81838601011115612e805760008081fd5b8181850189850137506000908201870152845250918301918301612e0d565b50979650505050505050565b600080600060608486031215612ec057600080fd5b83356001600160401b0380821115612ed757600080fd5b818601915086601f830112612eeb57600080fd5b81356020612efb612d7e83612d3a565b82815260059290921b8401810191818101908a841115612f1a57600080fd5b948201945b83861015612f3f57612f3086612b5c565b82529482019490820190612f1f565b97505087013592505080821115612f5557600080fd5b612f6187838801612d5d565b93506040860135915080821115612f7757600080fd5b50612f8486828701612dc8565b9150509250925092565b60008060008060808587031215612fa457600080fd5b8435935060208501359250612fbb60408601612b19565b9150612fc960608601612b19565b905092959194509250565b600081518084526020808501945080840160005b83811015612cd657815187529582019590820190600101612fe8565b602081526000611c366020830184612fd4565b60208101610ace8284612c4e565b6000806040838503121561303857600080fd5b61304183612b5c565b9150612b5360208401612b5c565b6000806040838503121561306257600080fd5b82359150612b5360208401612b5c565b634e487b7160e01b600052603260045260246000fd5b634e487b7160e01b600052601160045260246000fd5b6000600182016130b0576130b0613088565b5060010190565b600060ff821660ff81036130cd576130cd613088565b60010192915050565b6000828210156130e8576130e8613088565b500390565b600181811c9082168061310157607f821691505b602082108103611f5e57634e487b7160e01b600052602260045260246000fd5b815160009082906020808601845b8381101561314b5781518552938201939082019060010161312f565b50929695505050505050565b815160009082906020808601845b8381101561314b5781516001600160a01b031685529382019390820190600101613165565b60005b838110156131a557818101518382015260200161318d565b83811115611ecb5750506000910152565b600081518084526131ce81602086016020860161318a565b601f01601f19169290920160200192915050565b600081518084526020808501808196508360051b8101915082860160005b8581101561322a5782840389526132188483516131b6565b98850198935090840190600101613200565b5091979650505050505050565b602081526000611c3660208301846131e2565b60608152600061325d6060830186612c9d565b828103602084015261326f8186612fd4565b9050828103604084015261328381856131e2565b9695505050505050565b60006001600160401b038083168185168083038211156132af576132af613088565b01949350505050565b600082516132ca81846020870161318a565b9190910192915050565b602081526000611c3660208301846131b656fe4879706572626173653a2063616c6c20726576657274656420776974686f7574206d657373616765a2646970667358221220b8f2d19f804e3359411993d7d67d61b974c46bf504eb1c4feb9f1a24ec3bc94c64736f6c634300080e0033",
    "linkReferences": {}
  },
  "methodIdentifiers": {
    "_approvalsByTransaction(uint256,address)": "d701e19f",
    "_keys(uint256)": "ac6bc327",
    "addKey(address,uint8)": "8a1be3b1",
    "approve(uint256,bool)": "747442d3",
    "checkIsApproved(uint256)": "04ad7650",
    "checkKeyHasPermission(address,uint256)": "703dd70a",
    "execute(address[],uint256[],bytes[])": "a516a5bf",
    "getApprovalCount(uint256)": "ba7e7cab",
    "getApprovals(uint256)": "a4e360c8",
    "getExpiryPeriod()": "be2f5f52",
    "getKey(address)": "93790f44",
    "getKeyPermission(address)": "ef591de2",
    "getKeysByPermission(uint256)": "d36a0f97",
    "getMaxKeyCount()": "f62a7a44",
    "getRequiredPermission(address[],uint256[],bytes[])": "ad1aa4fd",
    "getTransactionCount(bool,bool)": "54741525",
    "getTransactionHash(address[],uint256[],bytes[])": "bf6b0a86",
    "getTransactionIds(uint256,uint256,bool,bool)": "a8abe69a",
    "isTrustedForwarder(address)": "572b6c05",
    "removeKey(address)": "69e78499",
    "replaceKey(address,address)": "b53ea1b6",
    "revokeApproval(uint256)": "b1e130fc",
    "setRequirement(uint8,uint8)": "73720da4",
    "setTransactionStatus(uint256,uint8)": "37b02c58",
    "submit(address[],uint256[],bytes[])": "ea39ddd8"
  },
  "id": 28
}