{
  "abi": [
    {
      "inputs": [
        {
          "internalType": "address",
          "name": "forwarder",
          "type": "address"
        }
      ],
      "stateMutability": "nonpayable",
      "type": "constructor"
    },
    {
      "inputs": [],
      "name": "KeyApproved",
      "type": "error"
    },
    {
      "inputs": [],
      "name": "KeyDoesNotExists",
      "type": "error"
    },
    {
      "inputs": [],
      "name": "KeyExists",
      "type": "error"
    },
    {
      "inputs": [],
      "name": "KeyNotApproved",
      "type": "error"
    },
    {
      "inputs": [],
      "name": "KeyRequirementInvalid",
      "type": "error"
    },
    {
      "inputs": [],
      "name": "KeyZeroAddress",
      "type": "error"
    },
    {
      "inputs": [],
      "name": "NoTransactionArrayParity",
      "type": "error"
    },
    {
      "inputs": [],
      "name": "OnlyThis",
      "type": "error"
    },
    {
      "inputs": [],
      "name": "TransactionEmpty",
      "type": "error"
    },
    {
      "inputs": [],
      "name": "TransactionExecuted",
      "type": "error"
    },
    {
      "inputs": [],
      "name": "TransactionExists",
      "type": "error"
    },
    {
      "inputs": [],
      "name": "TransactionNotPending",
      "type": "error"
    },
    {
      "anonymous": false,
      "inputs": [
        {
          "indexed": true,
          "internalType": "address",
          "name": "sender",
          "type": "address"
        },
        {
          "indexed": true,
          "internalType": "uint256",
          "name": "transactionId",
          "type": "uint256"
        }
      ],
      "name": "Approved",
      "type": "event"
    },
    {
      "anonymous": false,
      "inputs": [
        {
          "indexed": true,
          "internalType": "uint256",
          "name": "executionId",
          "type": "uint256"
        },
        {
          "indexed": true,
          "internalType": "address[]",
          "name": "to",
          "type": "address[]"
        },
        {
          "indexed": true,
          "internalType": "uint256[]",
          "name": "value",
          "type": "uint256[]"
        },
        {
          "indexed": false,
          "internalType": "bytes[]",
          "name": "data",
          "type": "bytes[]"
        }
      ],
      "name": "Cancelled",
      "type": "event"
    },
    {
      "anonymous": false,
      "inputs": [
        {
          "indexed": true,
          "internalType": "uint256",
          "name": "executionId",
          "type": "uint256"
        },
        {
          "indexed": true,
          "internalType": "address[]",
          "name": "to",
          "type": "address[]"
        },
        {
          "indexed": true,
          "internalType": "uint256[]",
          "name": "value",
          "type": "uint256[]"
        },
        {
          "indexed": false,
          "internalType": "bytes[]",
          "name": "data",
          "type": "bytes[]"
        }
      ],
      "name": "Executed",
      "type": "event"
    },
    {
      "anonymous": false,
      "inputs": [
        {
          "indexed": true,
          "internalType": "uint256",
          "name": "transactionId",
          "type": "uint256"
        }
      ],
      "name": "ExecutionFailure",
      "type": "event"
    },
    {
      "anonymous": false,
      "inputs": [
        {
          "indexed": true,
          "internalType": "address",
          "name": "key",
          "type": "address"
        }
      ],
      "name": "KeyAdded",
      "type": "event"
    },
    {
      "anonymous": false,
      "inputs": [
        {
          "indexed": true,
          "internalType": "address",
          "name": "key",
          "type": "address"
        }
      ],
      "name": "KeyRemoved",
      "type": "event"
    },
    {
      "anonymous": false,
      "inputs": [
        {
          "indexed": false,
          "internalType": "uint256",
          "name": "requirement",
          "type": "uint256"
        }
      ],
      "name": "RequirementChange",
      "type": "event"
    },
    {
      "anonymous": false,
      "inputs": [
        {
          "indexed": true,
          "internalType": "address",
          "name": "sender",
          "type": "address"
        },
        {
          "indexed": true,
          "internalType": "uint256",
          "name": "transactionId",
          "type": "uint256"
        }
      ],
      "name": "Revoked",
      "type": "event"
    },
    {
      "anonymous": false,
      "inputs": [
        {
          "indexed": true,
          "internalType": "uint256",
          "name": "executionId",
          "type": "uint256"
        },
        {
          "indexed": true,
          "internalType": "address[]",
          "name": "to",
          "type": "address[]"
        },
        {
          "indexed": true,
          "internalType": "uint256[]",
          "name": "value",
          "type": "uint256[]"
        },
        {
          "indexed": false,
          "internalType": "bytes[]",
          "name": "data",
          "type": "bytes[]"
        }
      ],
      "name": "Submitted",
      "type": "event"
    },
    {
      "inputs": [
        {
          "internalType": "uint256",
          "name": "",
          "type": "uint256"
        }
      ],
      "name": "_keys",
      "outputs": [
        {
          "internalType": "address",
          "name": "",
          "type": "address"
        }
      ],
      "stateMutability": "view",
      "type": "function"
    },
    {
      "inputs": [
        {
          "internalType": "address",
          "name": "key",
          "type": "address"
        }
      ],
      "name": "addKey",
      "outputs": [],
      "stateMutability": "nonpayable",
      "type": "function"
    },
    {
      "inputs": [
        {
          "internalType": "uint256",
          "name": "txHash",
          "type": "uint256"
        }
      ],
      "name": "approve",
      "outputs": [],
      "stateMutability": "nonpayable",
      "type": "function"
    },
    {
      "inputs": [
        {
          "internalType": "uint256",
          "name": "txHash",
          "type": "uint256"
        }
      ],
      "name": "checkIsApproved",
      "outputs": [
        {
          "internalType": "bool",
          "name": "",
          "type": "bool"
        }
      ],
      "stateMutability": "view",
      "type": "function"
    },
    {
      "inputs": [
        {
          "internalType": "uint256",
          "name": "txHash",
          "type": "uint256"
        }
      ],
      "name": "execute",
      "outputs": [],
      "stateMutability": "payable",
      "type": "function"
    },
    {
      "inputs": [
        {
          "internalType": "uint256",
          "name": "txHash",
          "type": "uint256"
        }
      ],
      "name": "getApprovalCount",
      "outputs": [
        {
          "internalType": "uint8",
          "name": "approvalCount",
          "type": "uint8"
        }
      ],
      "stateMutability": "view",
      "type": "function"
    },
    {
      "inputs": [
        {
          "internalType": "uint256",
          "name": "txHash",
          "type": "uint256"
        }
      ],
      "name": "getApprovals",
      "outputs": [
        {
          "internalType": "address[]",
          "name": "approvalsByTransaction",
          "type": "address[]"
        }
      ],
      "stateMutability": "view",
      "type": "function"
    },
    {
      "inputs": [],
      "name": "getExpiryPeriod",
      "outputs": [
        {
          "internalType": "uint256",
          "name": "",
          "type": "uint256"
        }
      ],
      "stateMutability": "view",
      "type": "function"
    },
    {
      "inputs": [],
      "name": "getMaxKeyCount",
      "outputs": [
        {
          "internalType": "uint256",
          "name": "",
          "type": "uint256"
        }
      ],
      "stateMutability": "view",
      "type": "function"
    },
    {
      "inputs": [
        {
          "internalType": "bool",
          "name": "pending",
          "type": "bool"
        },
        {
          "internalType": "bool",
          "name": "executed",
          "type": "bool"
        }
      ],
      "name": "getTransactionCount",
      "outputs": [
        {
          "internalType": "uint8",
          "name": "approvalCount",
          "type": "uint8"
        }
      ],
      "stateMutability": "view",
      "type": "function"
    },
    {
      "inputs": [
        {
          "internalType": "address[]",
          "name": "targets",
          "type": "address[]"
        },
        {
          "internalType": "uint256[]",
          "name": "values",
          "type": "uint256[]"
        },
        {
          "internalType": "bytes[]",
          "name": "calldatas",
          "type": "bytes[]"
        }
      ],
      "name": "getTransactionHash",
      "outputs": [
        {
          "internalType": "uint256",
          "name": "",
          "type": "uint256"
        }
      ],
      "stateMutability": "pure",
      "type": "function"
    },
    {
      "inputs": [
        {
          "internalType": "uint256",
          "name": "from",
          "type": "uint256"
        },
        {
          "internalType": "uint256",
          "name": "to",
          "type": "uint256"
        },
        {
          "internalType": "bool",
          "name": "pending",
          "type": "bool"
        },
        {
          "internalType": "bool",
          "name": "executed",
          "type": "bool"
        }
      ],
      "name": "getTransactionIds",
      "outputs": [
        {
          "internalType": "uint256[]",
          "name": "txHashs",
          "type": "uint256[]"
        }
      ],
      "stateMutability": "view",
      "type": "function"
    },
    {
      "inputs": [
        {
          "internalType": "address",
          "name": "forwarder",
          "type": "address"
        }
      ],
      "name": "isTrustedForwarder",
      "outputs": [
        {
          "internalType": "bool",
          "name": "",
          "type": "bool"
        }
      ],
      "stateMutability": "view",
      "type": "function"
    },
    {
      "inputs": [
        {
          "internalType": "address",
          "name": "key",
          "type": "address"
        }
      ],
      "name": "removeKey",
      "outputs": [],
      "stateMutability": "nonpayable",
      "type": "function"
    },
    {
      "inputs": [
        {
          "internalType": "address",
          "name": "key",
          "type": "address"
        },
        {
          "internalType": "address",
          "name": "newKey",
          "type": "address"
        }
      ],
      "name": "replaceKey",
      "outputs": [],
      "stateMutability": "nonpayable",
      "type": "function"
    },
    {
      "inputs": [
        {
          "internalType": "uint256",
          "name": "txHash",
          "type": "uint256"
        }
      ],
      "name": "revokeApproval",
      "outputs": [],
      "stateMutability": "nonpayable",
      "type": "function"
    },
    {
      "inputs": [
        {
          "internalType": "uint8",
          "name": "required",
          "type": "uint8"
        }
      ],
      "name": "setRequirement",
      "outputs": [],
      "stateMutability": "nonpayable",
      "type": "function"
    },
    {
      "inputs": [
        {
          "internalType": "address[]",
          "name": "targets",
          "type": "address[]"
        },
        {
          "internalType": "uint256[]",
          "name": "values",
          "type": "uint256[]"
        },
        {
          "internalType": "bytes[]",
          "name": "calldatas",
          "type": "bytes[]"
        }
      ],
      "name": "submit",
      "outputs": [
        {
          "internalType": "uint256",
          "name": "txHash",
          "type": "uint256"
        }
      ],
      "stateMutability": "nonpayable",
      "type": "function"
    }
  ],
  "bytecode": {
    "object": "0x60a06040526005805460ff191660081790553480156200001e57600080fd5b50604051620027e2380380620027e28339810160408190526200004191620000fd565b6001600160a01b03811660805260076200005a620000bc565b81546001810183556000928352602083200180546001600160a01b0319166001600160a01b0392909216919091179055600754906008906200009b620000bc565b6001600160a01b03168152602081019190915260400160002055506200012f565b6080516000906001600160a01b03163303620000df575060131936013560601c90565b620000f4620000f960201b6200134e1760201c565b905090565b3390565b6000602082840312156200011057600080fd5b81516001600160a01b03811681146200012857600080fd5b9392505050565b6080516126906200015260003960008181610192015261135601526126906000f3fe6080604052600436106101095760003560e01c8063b1e130fc11610095578063be2f5f5211610064578063be2f5f5214610336578063bf6b0a8614610355578063ea39ddd814610375578063f62a7a4414610395578063fe0d94c1146103ad57600080fd5b8063b1e130fc146102b6578063b53ea1b6146102d6578063b759f954146102f6578063ba7e7cab1461031657600080fd5b8063669187ac116100dc578063669187ac146101e457806369e7849914610204578063a4e360c814610224578063a8abe69a14610251578063ac6bc3271461027e57600080fd5b806304ad76501461010e5780635474152514610143578063572b6c05146101755780635f7b68be146101c2575b600080fd5b34801561011a57600080fd5b5061012e610129366004611de0565b6103c0565b60405190151581526020015b60405180910390f35b34801561014f57600080fd5b5061016361015e366004611e09565b6103eb565b60405160ff909116815260200161013a565b34801561018157600080fd5b5061012e610190366004611e53565b7f00000000000000000000000000000000000000000000000000000000000000006001600160a01b0390811691161490565b3480156101ce57600080fd5b506101e26101dd366004611e53565b6104b9565b005b3480156101f057600080fd5b506101e26101ff366004611e6e565b61063d565b34801561021057600080fd5b506101e261021f366004611e53565b610701565b34801561023057600080fd5b5061024461023f366004611de0565b610880565b60405161013a9190611ed5565b34801561025d57600080fd5b5061027161026c366004611ee8565b610a6b565b60405161013a9190611f5e565b34801561028a57600080fd5b5061029e610299366004611de0565b610c56565b6040516001600160a01b03909116815260200161013a565b3480156102c257600080fd5b506101e26102d1366004611de0565b610c80565b3480156102e257600080fd5b506101e26102f1366004611f71565b610e13565b34801561030257600080fd5b506101e2610311366004611de0565b610ed1565b34801561032257600080fd5b50610163610331366004611de0565b611070565b34801561034257600080fd5b506001545b60405190815260200161013a565b34801561036157600080fd5b50610347610370366004612152565b611103565b34801561038157600080fd5b50610347610390366004612152565b61113d565b3480156103a157600080fd5b5060055460ff16610347565b6101e26103bb366004611de0565b6111c7565b60006103cb82611070565b60ff16600654116103de57506001919050565b506000919050565b919050565b6000805b6002548110156104b25783801561044057506000600282815481106104165761041661224b565b60009182526020909120600460059092020181015460ff169081111561043e5761043e612235565b145b8061048d575082801561048d57506003600282815481106104635761046361224b565b60009182526020909120600460059092020181015460ff169081111561048b5761048b612235565b145b156104a0578161049c81612277565b9250505b806104aa81612296565b9150506103ef565b5092915050565b306104c2611352565b6001600160a01b0316146104e957604051637c6c558760e11b815260040160405180910390fd5b6001600160a01b038116600090815260096020526040902054819060ff16156105255760405163adb8cab560e01b815260040160405180910390fd5b816001600160a01b03811661054d57604051632adfb71160e01b815260040160405180910390fd5b60075461055b9060016122af565b60075460055460ff16111580610576575060075460ff821610155b80610582575060ff8116155b8061058d5750600754155b156105ab57604051634c47aba160e01b815260040160405180910390fd5b6007805460018082019092557fa66cc928b5edb82af9bd49922954155ab7b0942694bea4ce44661d9a8736c6880180546001600160a01b0319166001600160a01b038716908117909155600081815260096020526040808220805460ff1916909417909355915190917f654abba5d3170185ed25c9b41f7d2094db3643986b05e9e9cab37028b800ad7e91a250505050565b30610646611352565b6001600160a01b03161461066d57604051637c6c558760e11b815260040160405180910390fd5b600754600554829160ff90911611158061068c575060075460ff821610155b80610698575060ff8116155b806106a35750600754155b156106c157604051634c47aba160e01b815260040160405180910390fd5b60ff821660068190556040519081527fa3f1ee9126a074d9326c682f561767f710e927faa811f7a99829d49dc421797a9060200160405180910390a15050565b3061070a611352565b6001600160a01b03161461073157604051637c6c558760e11b815260040160405180910390fd5b6001600160a01b038116600090815260096020526040902054819060ff1661076c5760405163492f94d560e01b815260040160405180910390fd5b60075461077b906001906122c7565b6001106107cf5760405162461bcd60e51b815260206004820181905260248201527f4879706572626173653a2043616e6e6f742068617665207a65726f206b65797360448201526064015b60405180910390fd5b60065460075410156107ee576007546107ee906101ff906001906122c7565b6001600160a01b03821660009081526008602052604090205460078054909190811061081c5761081c61224b565b6000918252602080832090910180546001600160a01b03191690556001600160a01b03841680835260099091526040808320805460ff191690555190917fd2b2d9609b634ccc6f93482de9f8431ec6222fed4fa3cfca3b2a7e1a96a924ae91a25050565b6007546060906000906001600160401b038111156108a0576108a0611f9b565b6040519080825280602002602001820160405280156108c9578160200160208202803683370190505b5090506000805b6007548110156109b7576000858152600360209081526040808320548352600a9091528120600780549192918490811061090c5761090c61224b565b60009182526020808320909101546001600160a01b0316835282019290925260400190205460ff16156109a5576007818154811061094c5761094c61224b565b9060005260206000200160009054906101000a90046001600160a01b0316838360ff168151811061097f5761097f61224b565b6001600160a01b0390921660209283029190910190910152816109a181612277565b9250505b806109af81612296565b9150506108d0565b508060ff166001600160401b038111156109d3576109d3611f9b565b6040519080825280602002602001820160405280156109fc578160200160208202803683370190505b50925060005b8160ff16811015610a6357828181518110610a1f57610a1f61224b565b6020026020010151848281518110610a3957610a3961224b565b6001600160a01b039092166020928302919091019091015280610a5b81612296565b915050610a02565b505050919050565b6002546060906000906001600160401b03811115610a8b57610a8b611f9b565b604051908082528060200260200182016040528015610ab4578160200160208202803683370190505b5090506000805b600254811015610b9f57858015610b0c5750600060028281548110610ae257610ae261224b565b60009182526020909120600460059092020181015460ff1690811115610b0a57610b0a612235565b145b80610b595750848015610b595750600360028281548110610b2f57610b2f61224b565b60009182526020909120600460059092020181015460ff1690811115610b5757610b57612235565b145b15610b8d5780838360ff1681518110610b7457610b7461224b565b602090810291909101015281610b8981612277565b9250505b80610b9781612296565b915050610abb565b50610baa87876122c7565b6001600160401b03811115610bc157610bc1611f9b565b604051908082528060200260200182016040528015610bea578160200160208202803683370190505b509250865b86811015610c4b57828181518110610c0957610c0961224b565b6020026020010151848983610c1e91906122c7565b81518110610c2e57610c2e61224b565b602090810291909101015280610c4381612296565b915050610bef565b505050949350505050565b60078181548110610c6657600080fd5b6000918252602090912001546001600160a01b0316905081565b610c88611352565b6001600160a01b03811660009081526009602052604090205460ff16610cc15760405163492f94d560e01b815260040160405180910390fd5b81610cca611352565b6000828152600360209081526040808320548352600a82528083206001600160a01b038516845290915290205460ff16610d17576040516315ed6d0560e11b815260040160405180910390fd5b60008481526003602052604081205460028054879392908110610d3c57610d3c61224b565b60009182526020909120600460059092020181015460ff1690811115610d6457610d64612235565b14610d82576040516382235d5360e01b815260040160405180910390fd5b6000858152600360209081526040808320548352600a909152812081610da6611352565b6001600160a01b031681526020810191909152604001600020805460ff191691151591909117905584610dd7611352565b6001600160a01b03167f713b90881ad62c4fa8ab6bd9197fa86481fc0c11b2edba60026514281b2dbac460405160405180910390a35050505050565b30610e1c611352565b6001600160a01b031614610e4357604051637c6c558760e11b815260040160405180910390fd5b6001600160a01b038216600090815260096020526040902054829060ff16610e7e5760405163492f94d560e01b815260040160405180910390fd5b6001600160a01b038216600090815260096020526040902054829060ff16610eb95760405163492f94d560e01b815260040160405180910390fd5b610ec2836104b9565b610ecb84610701565b50505050565b610ed9611352565b6001600160a01b03811660009081526009602052604090205460ff16610f125760405163492f94d560e01b815260040160405180910390fd5b81610f1b611352565b6000828152600360209081526040808320548352600a82528083206001600160a01b038516845290915290205460ff1615610f695760405163bfc0046360e01b815260040160405180910390fd5b60008481526003602052604081205460028054879392908110610f8e57610f8e61224b565b60009182526020909120600460059092020181015460ff1690811115610fb657610fb6612235565b14610fd4576040516382235d5360e01b815260040160405180910390fd5b6000858152600360209081526040808320548352600a9091528120600191610ffa611352565b6001600160a01b031681526020810191909152604001600020805460ff19169115159190911790558461102b611352565b6001600160a01b03167ff13bfe0b6ec5df39265dccb0a01a09aa4162489c7a083dc6670bde0255d02ca760405160405180910390a3611069856111c7565b5050505050565b6000805b6007548110156110fd576000838152600360209081526040808320548352600a909152812060078054919291849081106110b0576110b061224b565b60009182526020808320909101546001600160a01b0316835282019290925260400190205460ff16156110eb57816110e781612277565b9250505b806110f581612296565b915050611074565b50919050565b600083838360405160200161111a9392919061238b565b6040516020818303038152906040528051906020012060001c90505b9392505050565b600061114a848484611396565b90506111558161170a565b61115e81610ed1565b8260405161116c91906123ce565b6040518091039020846040516111829190612404565b6040518091039020827f36e07c71f504a656b790f6ebf4ca4eee6b5868d22fe9a6fd195a0ea54d9a24b7856040516111ba9190612437565b60405180910390a4611136815b6111cf611352565b6001600160a01b03811660009081526009602052604090205460ff166112085760405163492f94d560e01b815260040160405180910390fd5b81611211611352565b6000828152600360209081526040808320548352600a82528083206001600160a01b038516845290915290205460ff1661125e576040516315ed6d0560e11b815260040160405180910390fd5b61126784611070565b60ff1660065411610ecb5761127b846117ae565b6002848154811061128e5761128e61224b565b90600052602060002090600502016002016040516112ac919061244a565b6040518091039020600285815481106112c7576112c761224b565b90600052602060002090600502016001016040516112e5919061247b565b6040518091039020857f606df15328702c746e4b85fd70292add0c21224b4362c4e1f190d4d010dbd24a600288815481106113225761132261224b565b906000526020600020906005020160030160405161134091906124e9565b60405180910390a450505050565b3390565b60007f00000000000000000000000000000000000000000000000000000000000000006001600160a01b03163303611391575060131936013560601c90565b503390565b60008380516000036113bb57604051633731f60f60e21b815260040160405180910390fd5b848484815183511415806113d157508051825114155b156113ef57604051630d3f523960e31b815260040160405180910390fd5b60006113fc898989611103565b9050600061140943611b67565b9050600061141e61141960015490565b611b67565b61142890836125d8565b60008481526003602052604090205490915015611558576000838152600360205260409020546002805484929081106114635761146361224b565b906000526020600020906005020160000160006101000a8154816001600160401b0302191690836001600160401b031602179055508060026003600086815260200190815260200160002054815481106114bf576114bf61224b565b906000526020600020906005020160000160086101000a8154816001600160401b0302191690836001600160401b031602179055506000600260036000868152602001908152602001600020548154811061151c5761151c61224b565b906000526020600020906005020160040160006101000a81548160ff0219169083600481111561154e5761154e612235565b021790555061169d565b60026040518060c00160405280846001600160401b03168152602001836001600160401b031681526020018d81526020018c81526020018b8152602001600060048111156115a8576115a8612235565b9052815460018181018455600093845260209384902083516005909302018054858501516001600160401b0390811668010000000000000000026fffffffffffffffffffffffffffffffff19909216941693909317929092178255604083015180519394929361162093928501929190910190611c0c565b506060820151805161163c916002840191602090910190611c6d565b5060808201518051611658916003840191602090910190611ca8565b5060a08201518160040160006101000a81548160ff0219169083600481111561168357611683612235565b021790555050600254600085815260036020526040902055505b50506000818152600360205260408120547f17ef568e3e12ab5b9c7254a8d58478811de00f9e6eb34345acd53bf8fd09d3ec805460018101825592527f295841a49a1089f4b560f91cfbb0133326654dcbb1041861fc5dde96c724a22f9091015598975050505050505050565b600081815260036020526040902054156117ab5760005b60075460ff821610156117a9576000828152600360209081526040808320548352600a90915281206007805483919060ff86169081106117635761176361224b565b6000918252602080832091909101546001600160a01b031683528201929092526040019020805460ff1916911515919091179055806117a181612277565b915050611721565b505b50565b600081815260036020526040812054600280548493929081106117d3576117d361224b565b60009182526020909120600460059092020181015460ff16908111156117fb576117fb612235565b14611819576040516382235d5360e01b815260040160405180910390fd5b60006002838154811061182e5761182e61224b565b906000526020600020906005020160010180548060200260200160405190810160405280929190818152602001828054801561189357602002820191906000526020600020905b81546001600160a01b03168152600190910190602001808311611875575b505050505090506000600284815481106118af576118af61224b565b906000526020600020906005020160020180548060200260200160405190810160405280929190818152602001828054801561190a57602002820191906000526020600020905b8154815260200190600101908083116118f6575b505050505090506000600285815481106119265761192661224b565b9060005260206000209060050201600301805480602002602001604051908101604052809291908181526020016000905b82821015611a03578382906000526020600020018054611976906124b5565b80601f01602080910402602001604051908101604052809291908181526020018280546119a2906124b5565b80156119ef5780601f106119c4576101008083540402835291602001916119ef565b820191906000526020600020905b8154815290600101906020018083116119d257829003601f168201915b505050505081526020019060010190611957565b505050509050600060405180606001604052806028815260200161263360289139905060005b8451811015611aff57600080868381518110611a4757611a4761224b565b60200260200101516001600160a01b0316868481518110611a6a57611a6a61224b565b6020026020010151868581518110611a8457611a8461224b565b6020026020010151604051611a999190612603565b60006040518083038185875af1925050503d8060008114611ad6576040519150601f19603f3d011682016040523d82523d6000602084013e611adb565b606091505b5091509150611aeb828286611bd3565b50505080611af890612296565b9050611a29565b5060036002600360008981526020019081526020016000205481548110611b2857611b2861224b565b906000526020600020906005020160040160006101000a81548160ff02191690836004811115611b5a57611b5a612235565b0217905550505050505050565b60006001600160401b03821115611bcf5760405162461bcd60e51b815260206004820152602660248201527f53616665436173743a2076616c756520646f65736e27742066697420696e203660448201526534206269747360d01b60648201526084016107c6565b5090565b60608315611be2575081611136565b825115611bf25782518084602001fd5b8160405162461bcd60e51b81526004016107c6919061261f565b828054828255906000526020600020908101928215611c61579160200282015b82811115611c6157825182546001600160a01b0319166001600160a01b03909116178255602090920191600190910190611c2c565b50611bcf929150611d01565b828054828255906000526020600020908101928215611c61579160200282015b82811115611c61578251825591602001919060010190611c8d565b828054828255906000526020600020908101928215611cf5579160200282015b82811115611cf55782518051611ce5918491602090910190611d16565b5091602001919060010190611cc8565b50611bcf929150611d89565b5b80821115611bcf5760008155600101611d02565b828054611d22906124b5565b90600052602060002090601f016020900481019282611d445760008555611c61565b82601f10611d5d57805160ff1916838001178555611c61565b82800160010185558215611c615791820182811115611c61578251825591602001919060010190611c8d565b80821115611bcf576000611d9d8282611da6565b50600101611d89565b508054611db2906124b5565b6000825580601f10611dc2575050565b601f0160209004906000526020600020908101906117ab9190611d01565b600060208284031215611df257600080fd5b5035919050565b803580151581146103e657600080fd5b60008060408385031215611e1c57600080fd5b611e2583611df9565b9150611e3360208401611df9565b90509250929050565b80356001600160a01b03811681146103e657600080fd5b600060208284031215611e6557600080fd5b61113682611e3c565b600060208284031215611e8057600080fd5b813560ff8116811461113657600080fd5b600081518084526020808501945080840160005b83811015611eca5781516001600160a01b031687529582019590820190600101611ea5565b509495945050505050565b6020815260006111366020830184611e91565b60008060008060808587031215611efe57600080fd5b8435935060208501359250611f1560408601611df9565b9150611f2360608601611df9565b905092959194509250565b600081518084526020808501945080840160005b83811015611eca57815187529582019590820190600101611f42565b6020815260006111366020830184611f2e565b60008060408385031215611f8457600080fd5b611f8d83611e3c565b9150611e3360208401611e3c565b634e487b7160e01b600052604160045260246000fd5b604051601f8201601f191681016001600160401b0381118282101715611fd957611fd9611f9b565b604052919050565b60006001600160401b03821115611ffa57611ffa611f9b565b5060051b60200190565b600082601f83011261201557600080fd5b8135602061202a61202583611fe1565b611fb1565b82815260059290921b8401810191818101908684111561204957600080fd5b8286015b84811015612064578035835291830191830161204d565b509695505050505050565b6000601f838184011261208157600080fd5b8235602061209161202583611fe1565b82815260059290921b850181019181810190878411156120b057600080fd5b8287015b848110156121465780356001600160401b03808211156120d45760008081fd5b818a0191508a603f8301126120e95760008081fd5b858201356040828211156120ff576120ff611f9b565b612110828b01601f19168901611fb1565b92508183528c818386010111156121275760008081fd5b81818501898501375060009082018701528452509183019183016120b4565b50979650505050505050565b60008060006060848603121561216757600080fd5b83356001600160401b038082111561217e57600080fd5b818601915086601f83011261219257600080fd5b813560206121a261202583611fe1565b82815260059290921b8401810191818101908a8411156121c157600080fd5b948201945b838610156121e6576121d786611e3c565b825294820194908201906121c6565b975050870135925050808211156121fc57600080fd5b61220887838801612004565b9350604086013591508082111561221e57600080fd5b5061222b8682870161206f565b9150509250925092565b634e487b7160e01b600052602160045260246000fd5b634e487b7160e01b600052603260045260246000fd5b634e487b7160e01b600052601160045260246000fd5b600060ff821660ff810361228d5761228d612261565b60010192915050565b6000600182016122a8576122a8612261565b5060010190565b600082198211156122c2576122c2612261565b500190565b6000828210156122d9576122d9612261565b500390565b60005b838110156122f95781810151838201526020016122e1565b83811115610ecb5750506000910152565b600081518084526123228160208601602086016122de565b601f01601f19169290920160200192915050565b600081518084526020808501808196508360051b8101915082860160005b8581101561237e57828403895261236c84835161230a565b98850198935090840190600101612354565b5091979650505050505050565b60608152600061239e6060830186611e91565b82810360208401526123b08186611f2e565b905082810360408401526123c48185612336565b9695505050505050565b815160009082906020808601845b838110156123f8578151855293820193908201906001016123dc565b50929695505050505050565b815160009082906020808601845b838110156123f85781516001600160a01b031685529382019390820190600101612412565b6020815260006111366020830184612336565b60008183548391508460005260208060002060005b838110156123f85781548552938201936001918201910161245f565b60008183548391508460005260208060002060005b838110156123f85781546001600160a01b031685529382019360019182019101612490565b600181811c908216806124c957607f821691505b6020821081036110fd57634e487b7160e01b600052602260045260246000fd5b6000602080830181845280855480835260408601915060408160051b87010192506000878152848120815b838110156125ca57888603603f1901855281548390600181811c908083168061253e57607f831692505b8b8310810361255b57634e487b7160e01b88526022600452602488fd5b828b5260208b018180156125765760018114612587576125b1565b60ff19861682528d820196506125b1565b6000898152602090208a5b868110156125ab57815484820152908501908f01612592565b83019750505b50949a5050978a01979490940193505050600101612514565b509398975050505050505050565b60006001600160401b038083168185168083038211156125fa576125fa612261565b01949350505050565b600082516126158184602087016122de565b9190910192915050565b602081526000611136602083018461230a56fe4879706572626173653a2063616c6c20726576657274656420776974686f7574206d657373616765a26469706673582212200970202f3797264146213666b09142eca9807178e00319ef930704619b0f502d64736f6c634300080e0033",
    "linkReferences": {}
  },
  "methodIdentifiers": {
    "_keys(uint256)": "ac6bc327",
    "addKey(address)": "5f7b68be",
    "approve(uint256)": "b759f954",
    "checkIsApproved(uint256)": "04ad7650",
    "execute(uint256)": "fe0d94c1",
    "getApprovalCount(uint256)": "ba7e7cab",
    "getApprovals(uint256)": "a4e360c8",
    "getExpiryPeriod()": "be2f5f52",
    "getMaxKeyCount()": "f62a7a44",
    "getTransactionCount(bool,bool)": "54741525",
    "getTransactionHash(address[],uint256[],bytes[])": "bf6b0a86",
    "getTransactionIds(uint256,uint256,bool,bool)": "a8abe69a",
    "isTrustedForwarder(address)": "572b6c05",
    "removeKey(address)": "69e78499",
    "replaceKey(address,address)": "b53ea1b6",
    "revokeApproval(uint256)": "b1e130fc",
    "setRequirement(uint8)": "669187ac",
    "submit(address[],uint256[],bytes[])": "ea39ddd8"
  },
  "id": 6
}