{
  "abi": [
    {
      "inputs": [],
      "name": "TransactionArrayUnequal",
      "type": "error"
    },
    {
      "inputs": [],
      "name": "TransactionEmpty",
      "type": "error"
    },
    {
      "inputs": [],
      "name": "TransactionExecuted",
      "type": "error"
    },
    {
      "inputs": [],
      "name": "TransactionExists",
      "type": "error"
    },
    {
      "inputs": [],
      "name": "TransactionNotPending",
      "type": "error"
    },
    {
      "anonymous": false,
      "inputs": [
        {
          "indexed": true,
          "internalType": "address",
          "name": "sender",
          "type": "address"
        },
        {
          "indexed": true,
          "internalType": "uint256",
          "name": "transactionId",
          "type": "uint256"
        }
      ],
      "name": "Approved",
      "type": "event"
    },
    {
      "anonymous": false,
      "inputs": [
        {
          "indexed": true,
          "internalType": "uint256",
          "name": "executionId",
          "type": "uint256"
        },
        {
          "indexed": true,
          "internalType": "address[]",
          "name": "to",
          "type": "address[]"
        },
        {
          "indexed": true,
          "internalType": "uint256[]",
          "name": "value",
          "type": "uint256[]"
        },
        {
          "indexed": false,
          "internalType": "bytes[]",
          "name": "data",
          "type": "bytes[]"
        }
      ],
      "name": "Cancelled",
      "type": "event"
    },
    {
      "anonymous": false,
      "inputs": [
        {
          "indexed": true,
          "internalType": "uint256",
          "name": "executionId",
          "type": "uint256"
        },
        {
          "indexed": true,
          "internalType": "address[]",
          "name": "to",
          "type": "address[]"
        },
        {
          "indexed": true,
          "internalType": "uint256[]",
          "name": "value",
          "type": "uint256[]"
        },
        {
          "indexed": false,
          "internalType": "bytes[]",
          "name": "data",
          "type": "bytes[]"
        }
      ],
      "name": "Executed",
      "type": "event"
    },
    {
      "anonymous": false,
      "inputs": [
        {
          "indexed": true,
          "internalType": "uint256",
          "name": "transactionId",
          "type": "uint256"
        }
      ],
      "name": "ExecutionFailure",
      "type": "event"
    },
    {
      "anonymous": false,
      "inputs": [
        {
          "indexed": true,
          "internalType": "address",
          "name": "sender",
          "type": "address"
        },
        {
          "indexed": true,
          "internalType": "uint256",
          "name": "transactionId",
          "type": "uint256"
        }
      ],
      "name": "Revoked",
      "type": "event"
    },
    {
      "anonymous": false,
      "inputs": [
        {
          "indexed": true,
          "internalType": "uint256",
          "name": "executionId",
          "type": "uint256"
        },
        {
          "indexed": true,
          "internalType": "address[]",
          "name": "to",
          "type": "address[]"
        },
        {
          "indexed": true,
          "internalType": "uint256[]",
          "name": "value",
          "type": "uint256[]"
        },
        {
          "indexed": false,
          "internalType": "bytes[]",
          "name": "data",
          "type": "bytes[]"
        }
      ],
      "name": "Submitted",
      "type": "event"
    },
    {
      "inputs": [
        {
          "internalType": "uint256",
          "name": "txHash",
          "type": "uint256"
        }
      ],
      "name": "cancel",
      "outputs": [],
      "stateMutability": "nonpayable",
      "type": "function"
    },
    {
      "inputs": [
        {
          "internalType": "uint256",
          "name": "txHash",
          "type": "uint256"
        }
      ],
      "name": "checkTransactionExists",
      "outputs": [
        {
          "internalType": "bool",
          "name": "",
          "type": "bool"
        }
      ],
      "stateMutability": "view",
      "type": "function"
    },
    {
      "inputs": [
        {
          "internalType": "uint256",
          "name": "txHash",
          "type": "uint256"
        }
      ],
      "name": "execute",
      "outputs": [],
      "stateMutability": "nonpayable",
      "type": "function"
    },
    {
      "inputs": [],
      "name": "getExecutedTransactions",
      "outputs": [
        {
          "internalType": "uint256[]",
          "name": "",
          "type": "uint256[]"
        }
      ],
      "stateMutability": "nonpayable",
      "type": "function"
    },
    {
      "inputs": [],
      "name": "getExpiryPeriod",
      "outputs": [
        {
          "internalType": "uint256",
          "name": "",
          "type": "uint256"
        }
      ],
      "stateMutability": "view",
      "type": "function"
    },
    {
      "inputs": [],
      "name": "getPendingTransaction",
      "outputs": [
        {
          "internalType": "uint256[]",
          "name": "",
          "type": "uint256[]"
        }
      ],
      "stateMutability": "nonpayable",
      "type": "function"
    },
    {
      "inputs": [],
      "name": "getPendingTransactions",
      "outputs": [
        {
          "internalType": "uint256[]",
          "name": "",
          "type": "uint256[]"
        }
      ],
      "stateMutability": "nonpayable",
      "type": "function"
    },
    {
      "inputs": [
        {
          "internalType": "uint256",
          "name": "txHash",
          "type": "uint256"
        }
      ],
      "name": "getTransaction",
      "outputs": [
        {
          "internalType": "bool",
          "name": "exists",
          "type": "bool"
        },
        {
          "internalType": "uint64",
          "name": "submitted",
          "type": "uint64"
        },
        {
          "internalType": "uint64",
          "name": "expires",
          "type": "uint64"
        },
        {
          "internalType": "address[]",
          "name": "targets",
          "type": "address[]"
        },
        {
          "internalType": "uint256[]",
          "name": "values",
          "type": "uint256[]"
        },
        {
          "internalType": "bytes[]",
          "name": "calldatas",
          "type": "bytes[]"
        },
        {
          "internalType": "uint256",
          "name": "status",
          "type": "uint256"
        }
      ],
      "stateMutability": "view",
      "type": "function"
    },
    {
      "inputs": [
        {
          "internalType": "address[]",
          "name": "targets",
          "type": "address[]"
        },
        {
          "internalType": "uint256[]",
          "name": "values",
          "type": "uint256[]"
        },
        {
          "internalType": "bytes[]",
          "name": "calldatas",
          "type": "bytes[]"
        }
      ],
      "name": "getTransactionHash",
      "outputs": [
        {
          "internalType": "uint256",
          "name": "",
          "type": "uint256"
        }
      ],
      "stateMutability": "view",
      "type": "function"
    },
    {
      "inputs": [
        {
          "internalType": "address[]",
          "name": "targets",
          "type": "address[]"
        },
        {
          "internalType": "uint256[]",
          "name": "values",
          "type": "uint256[]"
        },
        {
          "internalType": "bytes[]",
          "name": "calldatas",
          "type": "bytes[]"
        }
      ],
      "name": "submit",
      "outputs": [
        {
          "internalType": "uint256",
          "name": "txHash_",
          "type": "uint256"
        }
      ],
      "stateMutability": "nonpayable",
      "type": "function"
    }
  ],
  "bytecode": {
    "object": "0x608060405234801561001057600080fd5b506112d8806100206000396000f3fe608060405234801561001057600080fd5b506004361061009e5760003560e01c8063bf6b0a8611610066578063bf6b0a8614610141578063d11db83f146100a3578063e6a6d4c814610154578063ea39ddd81461015c578063fe0d94c1146100e757600080fd5b806332a85b3e146100a357806333ea3dc8146100c157806340e58ee5146100e7578063aad59c2c146100fc578063be2f5f521461012f575b600080fd5b6100ab61016f565b6040516100b89190610d0b565b60405180910390f35b6100d46100cf366004610d1e565b6101ea565b6040516100b89796959493929190610e24565b6100fa6100f5366004610d1e565b6103f7565b005b61011f61010a366004610d1e565b60009081526002602052604090205460ff1690565b60405190151581526020016100b8565b6001545b6040519081526020016100b8565b61013361014f36600461104e565b610403565b6100ab61043d565b61013361016a36600461104e565b61044a565b606060036000805b600381111561018857610188611141565b81526020019081526020016000208054806020026020016040519081016040528092919081815260200182805480156101e057602002820191906000526020600020905b8154815260200190600101908083116101cc575b5050505050905090565b600081815260026020908152604080832080546001909101805483518186028101860190945280845260ff83169567ffffffffffffffff6101008504811696600160481b909504169460609485948594909183018282801561027557602002820191906000526020600020905b81546001600160a01b03168152600190910190602001808311610257575b50505050509350600260008981526020019081526020016000206002018054806020026020016040519081016040528092919081815260200182805480156102dc57602002820191906000526020600020905b8154815260200190600101908083116102c8575b50505060008b815260026020908152604080832060030180548251818502810185019093528083529699509095909450925084015b828210156103bd57838290600052602060002001805461033090611157565b80601f016020809104026020016040519081016040528092919081815260200182805461035c90611157565b80156103a95780601f1061037e576101008083540402835291602001916103a9565b820191906000526020600020905b81548152906001019060200180831161038c57829003601f168201915b505050505081526020019060010190610311565b50505060008a8152600260205260409020600401549193505060ff1660038111156103ea576103ea611141565b9050919395979092949650565b6104008161045f565b50565b600083838360405160200161041a93929190611191565b6040516020818303038152906040528051906020012060001c90505b9392505050565b6060600360006002610177565b600061045784848461078e565b949350505050565b806000808281526002602052604090206004015460ff16600381111561048757610487611141565b146104a5576040516382235d5360e01b815260040160405180910390fd5b60008281526002602090815260408083206001018054825181850281018501909352808352919290919083018282801561050857602002820191906000526020600020905b81546001600160a01b031681526001909101906020018083116104ea575b5050505050905060006002600085815260200190815260200160002060020180548060200260200160405190810160405280929190818152602001828054801561057157602002820191906000526020600020905b81548152602001906001019080831161055d575b50505050509050600060026000868152602001908152602001600020600301805480602002602001604051908101604052809291908181526020016000905b8282101561065c5783829060005260206000200180546105cf90611157565b80601f01602080910402602001604051908101604052809291908181526020018280546105fb90611157565b80156106485780601f1061061d57610100808354040283529160200191610648565b820191906000526020600020905b81548152906001019060200180831161062b57829003601f168201915b5050505050815260200190600101906105b0565b505050509050600060405180606001604052806028815260200161127b60289139905060005b84518160ff16101561076657600080868360ff16815181106106a6576106a66111d4565b60200260200101516001600160a01b0316868460ff16815181106106cc576106cc6111d4565b6020026020010151868560ff16815181106106e9576106e96111d4565b60200260200101516040516106fe91906111ea565b60006040518083038185875af1925050503d806000811461073b576040519150601f19603f3d011682016040523d82523d6000602084013e610740565b606091505b5091509150610750828286610a4d565b505050808061075e9061121c565b915050610682565b50505060009384525050600260208190526040909220600401805460ff191690921790915550565b60008380516000036107b357604051633731f60f60e21b815260040160405180910390fd5b848484815183511415806107c957508051825114155b156107e7576040516313c12e5160e31b815260040160405180910390fd5b60006107f4898989610403565b9050600061080143610a8f565b9050600061081661081160015490565b610a8f565b610820908361123b565b60008481526002602052604090205490915060ff16156108a1576000838152600260205260409020805467ffffffffffffffff838116600160481b0267ffffffffffffffff60481b19918616610100029190911670ffffffffffffffffffffffffffffffff001990921691909117178155600401805460ff191690556109e8565b6040518060e001604052806001151581526020018367ffffffffffffffff1681526020018267ffffffffffffffff1681526020018c81526020018b81526020018a8152602001600060038111156108fa576108fa611141565b905260008481526002602090815260409182902083518154858401519486015168ffffffffffffffffff1990911691151568ffffffffffffffff0019169190911761010067ffffffffffffffff958616021767ffffffffffffffff60481b1916600160481b9490911693909302929092178255606083015180516109849260018501920190610afc565b50608082015180516109a0916002840191602090910190610b5d565b5060a082015180516109bc916003840191602090910190610b98565b5060c082015160048201805460ff191660018360038111156109e0576109e0611141565b021790555050505b505060036020527f3617319a054d772f909f7c479a2cebe5066e836a939412e32403c99029b92eff80546001810182556000919091527fcfb339bd1c51c488f6134f4ac63d1594afad827b3401c3fc51ed1da74a8ca14e015550929695505050505050565b60608315610a5c575081610436565b825115610a6c5782518084602001fd5b8160405162461bcd60e51b8152600401610a869190611267565b60405180910390fd5b600067ffffffffffffffff821115610af85760405162461bcd60e51b815260206004820152602660248201527f53616665436173743a2076616c756520646f65736e27742066697420696e203660448201526534206269747360d01b6064820152608401610a86565b5090565b828054828255906000526020600020908101928215610b51579160200282015b82811115610b5157825182546001600160a01b0319166001600160a01b03909116178255602090920191600190910190610b1c565b50610af8929150610bf1565b828054828255906000526020600020908101928215610b51579160200282015b82811115610b51578251825591602001919060010190610b7d565b828054828255906000526020600020908101928215610be5579160200282015b82811115610be55782518051610bd5918491602090910190610c06565b5091602001919060010190610bb8565b50610af8929150610c79565b5b80821115610af85760008155600101610bf2565b828054610c1290611157565b90600052602060002090601f016020900481019282610c345760008555610b51565b82601f10610c4d57805160ff1916838001178555610b51565b82800160010185558215610b515791820182811115610b51578251825591602001919060010190610b7d565b80821115610af8576000610c8d8282610c96565b50600101610c79565b508054610ca290611157565b6000825580601f10610cb2575050565b601f0160209004906000526020600020908101906104009190610bf1565b600081518084526020808501945080840160005b83811015610d0057815187529582019590820190600101610ce4565b509495945050505050565b6020815260006104366020830184610cd0565b600060208284031215610d3057600080fd5b5035919050565b600081518084526020808501945080840160005b83811015610d005781516001600160a01b031687529582019590820190600101610d4b565b60005b83811015610d8b578181015183820152602001610d73565b83811115610d9a576000848401525b50505050565b60008151808452610db8816020860160208601610d70565b601f01601f19169290920160200192915050565b600082825180855260208086019550808260051b84010181860160005b84811015610e1757601f19868403018952610e05838351610da0565b98840198925090830190600101610de9565b5090979650505050505050565b8715158152600067ffffffffffffffff808916602084015280881660408401525060e06060830152610e5960e0830187610d37565b8281036080840152610e6b8187610cd0565b905082810360a0840152610e7f8186610dcc565b9150508260c083015298975050505050505050565b634e487b7160e01b600052604160045260246000fd5b604051601f8201601f1916810167ffffffffffffffff81118282101715610ed357610ed3610e94565b604052919050565b600067ffffffffffffffff821115610ef557610ef5610e94565b5060051b60200190565b600082601f830112610f1057600080fd5b81356020610f25610f2083610edb565b610eaa565b82815260059290921b84018101918181019086841115610f4457600080fd5b8286015b84811015610f5f5780358352918301918301610f48565b509695505050505050565b6000601f8381840112610f7c57600080fd5b82356020610f8c610f2083610edb565b82815260059290921b85018101918181019087841115610fab57600080fd5b8287015b8481101561104257803567ffffffffffffffff80821115610fd05760008081fd5b818a0191508a603f830112610fe55760008081fd5b85820135604082821115610ffb57610ffb610e94565b61100c828b01601f19168901610eaa565b92508183528c818386010111156110235760008081fd5b8181850189850137506000908201870152845250918301918301610faf565b50979650505050505050565b60008060006060848603121561106357600080fd5b833567ffffffffffffffff8082111561107b57600080fd5b818601915086601f83011261108f57600080fd5b8135602061109f610f2083610edb565b82815260059290921b8401810191818101908a8411156110be57600080fd5b948201945b838610156110f25785356001600160a01b03811681146110e35760008081fd5b825294820194908201906110c3565b9750508701359250508082111561110857600080fd5b61111487838801610eff565b9350604086013591508082111561112a57600080fd5b5061113786828701610f6a565b9150509250925092565b634e487b7160e01b600052602160045260246000fd5b600181811c9082168061116b57607f821691505b60208210810361118b57634e487b7160e01b600052602260045260246000fd5b50919050565b6060815260006111a46060830186610d37565b82810360208401526111b68186610cd0565b905082810360408401526111ca8185610dcc565b9695505050505050565b634e487b7160e01b600052603260045260246000fd5b600082516111fc818460208701610d70565b9190910192915050565b634e487b7160e01b600052601160045260246000fd5b600060ff821660ff810361123257611232611206565b60010192915050565b600067ffffffffffffffff80831681851680830382111561125e5761125e611206565b01949350505050565b6020815260006104366020830184610da056fe4879706572626173653a2063616c6c20726576657274656420776974686f7574206d657373616765a2646970667358221220d77f92547cbff129dac404977b55dda412cd3ad6d7f909810f6cc0f0a669aa6b64736f6c634300080e0033",
    "linkReferences": {}
  },
  "methodIdentifiers": {
    "cancel(uint256)": "40e58ee5",
    "checkTransactionExists(uint256)": "aad59c2c",
    "execute(uint256)": "fe0d94c1",
    "getExecutedTransactions()": "e6a6d4c8",
    "getExpiryPeriod()": "be2f5f52",
    "getPendingTransaction()": "32a85b3e",
    "getPendingTransactions()": "d11db83f",
    "getTransaction(uint256)": "33ea3dc8",
    "getTransactionHash(address[],uint256[],bytes[])": "bf6b0a86",
    "submit(address[],uint256[],bytes[])": "ea39ddd8"
  },
  "id": 28
}